{"abi":[{"type":"constructor","inputs":[{"name":"initialOwner","type":"address","internalType":"address"},{"name":"_ticketManager","type":"address","internalType":"address"},{"name":"_platformToken","type":"address","internalType":"address"}],"stateMutability":"nonpayable"},{"type":"receive","stateMutability":"payable"},{"type":"function","name":"addTicketType","inputs":[{"name":"eventId","type":"uint256","internalType":"uint256"},{"name":"name","type":"string","internalType":"string"},{"name":"price","type":"uint256","internalType":"uint256"},{"name":"ethPrice","type":"uint256","internalType":"uint256"},{"name":"totalSupply","type":"uint256","internalType":"uint256"},{"name":"presaleStart","type":"uint256","internalType":"uint256"},{"name":"saleStart","type":"uint256","internalType":"uint256"},{"name":"saleEnd","type":"uint256","internalType":"uint256"},{"name":"isTransferable","type":"bool","internalType":"bool"},{"name":"presaleOnly","type":"bool","internalType":"bool"}],"outputs":[{"name":"","type":"uint256","internalType":"uint256"}],"stateMutability":"nonpayable"},{"type":"function","name":"addToPresaleWhitelist","inputs":[{"name":"eventId","type":"uint256","internalType":"uint256"},{"name":"typeId","type":"uint256","internalType":"uint256"},{"name":"users","type":"address[]","internalType":"address[]"}],"outputs":[],"stateMutability":"nonpayable"},{"type":"function","name":"approveEvent","inputs":[{"name":"eventId","type":"uint256","internalType":"uint256"},{"name":"approved","type":"bool","internalType":"bool"}],"outputs":[],"stateMutability":"nonpayable"},{"type":"function","name":"authorizeOrganizer","inputs":[{"name":"organizer","type":"address","internalType":"address"},{"name":"authorized","type":"bool","internalType":"bool"}],"outputs":[],"stateMutability":"nonpayable"},{"type":"function","name":"authorizedOrganizers","inputs":[{"name":"","type":"address","internalType":"address"}],"outputs":[{"name":"","type":"bool","internalType":"bool"}],"stateMutability":"view"},{"type":"function","name":"createEvent","inputs":[{"name":"name","type":"string","internalType":"string"},{"name":"description","type":"string","internalType":"string"},{"name":"imageURI","type":"string","internalType":"string"},{"name":"venue","type":"string","internalType":"string"},{"name":"startTime","type":"uint256","internalType":"uint256"},{"name":"endTime","type":"uint256","internalType":"uint256"},{"name":"requiresApproval","type":"bool","internalType":"bool"}],"outputs":[{"name":"","type":"uint256","internalType":"uint256"}],"stateMutability":"nonpayable"},{"type":"function","name":"defaultOrganizerFeeRate","inputs":[],"outputs":[{"name":"","type":"uint256","internalType":"uint256"}],"stateMutability":"view"},{"type":"function","name":"emergencyWithdraw","inputs":[{"name":"token","type":"address","internalType":"address"},{"name":"to","type":"address","internalType":"address"},{"name":"amount","type":"uint256","internalType":"uint256"}],"outputs":[],"stateMutability":"nonpayable"},{"type":"function","name":"events","inputs":[{"name":"","type":"uint256","internalType":"uint256"}],"outputs":[{"name":"name","type":"string","internalType":"string"},{"name":"description","type":"string","internalType":"string"},{"name":"imageURI","type":"string","internalType":"string"},{"name":"venue","type":"string","internalType":"string"},{"name":"organizer","type":"address","internalType":"address"},{"name":"startTime","type":"uint256","internalType":"uint256"},{"name":"endTime","type":"uint256","internalType":"uint256"},{"name":"status","type":"uint8","internalType":"enum EventManager.EventStatus"},{"name":"createdAt","type":"uint256","internalType":"uint256"},{"name":"totalTicketTypes","type":"uint256","internalType":"uint256"},{"name":"totalRevenue","type":"uint256","internalType":"uint256"},{"name":"totalEthRevenue","type":"uint256","internalType":"uint256"},{"name":"organizerFeeRate","type":"uint256","internalType":"uint256"},{"name":"requiresApproval","type":"bool","internalType":"bool"},{"name":"isApproved","type":"bool","internalType":"bool"}],"stateMutability":"view"},{"type":"function","name":"getEventInfo","inputs":[{"name":"eventId","type":"uint256","internalType":"uint256"}],"outputs":[{"name":"name","type":"string","internalType":"string"},{"name":"description","type":"string","internalType":"string"},{"name":"imageURI","type":"string","internalType":"string"},{"name":"venue","type":"string","internalType":"string"},{"name":"organizer","type":"address","internalType":"address"},{"name":"startTime","type":"uint256","internalType":"uint256"},{"name":"endTime","type":"uint256","internalType":"uint256"},{"name":"status","type":"uint8","internalType":"enum EventManager.EventStatus"},{"name":"createdAt","type":"uint256","internalType":"uint256"},{"name":"totalTicketTypes","type":"uint256","internalType":"uint256"},{"name":"totalRevenue","type":"uint256","internalType":"uint256"},{"name":"totalEthRevenue","type":"uint256","internalType":"uint256"},{"name":"requiresApproval","type":"bool","internalType":"bool"},{"name":"isApproved","type":"bool","internalType":"bool"}],"stateMutability":"view"},{"type":"function","name":"getOrganizerEvents","inputs":[{"name":"organizer","type":"address","internalType":"address"}],"outputs":[{"name":"","type":"uint256[]","internalType":"uint256[]"}],"stateMutability":"view"},{"type":"function","name":"getTicketTypeInfo","inputs":[{"name":"eventId","type":"uint256","internalType":"uint256"},{"name":"typeId","type":"uint256","internalType":"uint256"}],"outputs":[{"name":"name","type":"string","internalType":"string"},{"name":"price","type":"uint256","internalType":"uint256"},{"name":"ethPrice","type":"uint256","internalType":"uint256"},{"name":"totalSupply","type":"uint256","internalType":"uint256"},{"name":"sold","type":"uint256","internalType":"uint256"},{"name":"presaleStart","type":"uint256","internalType":"uint256"},{"name":"saleStart","type":"uint256","internalType":"uint256"},{"name":"saleEnd","type":"uint256","internalType":"uint256"},{"name":"isTransferable","type":"bool","internalType":"bool"},{"name":"presaleOnly","type":"bool","internalType":"bool"}],"stateMutability":"view"},{"type":"function","name":"isInPresaleWhitelist","inputs":[{"name":"eventId","type":"uint256","internalType":"uint256"},{"name":"typeId","type":"uint256","internalType":"uint256"},{"name":"user","type":"address","internalType":"address"}],"outputs":[{"name":"","type":"bool","internalType":"bool"}],"stateMutability":"view"},{"type":"function","name":"organizerBalance","inputs":[{"name":"","type":"address","internalType":"address"}],"outputs":[{"name":"","type":"uint256","internalType":"uint256"}],"stateMutability":"view"},{"type":"function","name":"organizerEthBalance","inputs":[{"name":"","type":"address","internalType":"address"}],"outputs":[{"name":"","type":"uint256","internalType":"uint256"}],"stateMutability":"view"},{"type":"function","name":"organizerEvents","inputs":[{"name":"","type":"address","internalType":"address"},{"name":"","type":"uint256","internalType":"uint256"}],"outputs":[{"name":"","type":"uint256","internalType":"uint256"}],"stateMutability":"view"},{"type":"function","name":"owner","inputs":[],"outputs":[{"name":"","type":"address","internalType":"address"}],"stateMutability":"view"},{"type":"function","name":"pause","inputs":[],"outputs":[],"stateMutability":"nonpayable"},{"type":"function","name":"paused","inputs":[],"outputs":[{"name":"","type":"bool","internalType":"bool"}],"stateMutability":"view"},{"type":"function","name":"platformBalance","inputs":[],"outputs":[{"name":"","type":"uint256","internalType":"uint256"}],"stateMutability":"view"},{"type":"function","name":"platformEthBalance","inputs":[],"outputs":[{"name":"","type":"uint256","internalType":"uint256"}],"stateMutability":"view"},{"type":"function","name":"platformFeeRate","inputs":[],"outputs":[{"name":"","type":"uint256","internalType":"uint256"}],"stateMutability":"view"},{"type":"function","name":"platformToken","inputs":[],"outputs":[{"name":"","type":"address","internalType":"contract IERC20"}],"stateMutability":"view"},{"type":"function","name":"purchaseTickets","inputs":[{"name":"eventId","type":"uint256","internalType":"uint256"},{"name":"typeId","type":"uint256","internalType":"uint256"},{"name":"quantity","type":"uint256","internalType":"uint256"},{"name":"seatNumbers","type":"uint256[]","internalType":"uint256[]"}],"outputs":[],"stateMutability":"nonpayable"},{"type":"function","name":"purchaseTicketsWithEth","inputs":[{"name":"eventId","type":"uint256","internalType":"uint256"},{"name":"typeId","type":"uint256","internalType":"uint256"},{"name":"quantity","type":"uint256","internalType":"uint256"},{"name":"seatNumbers","type":"uint256[]","internalType":"uint256[]"}],"outputs":[],"stateMutability":"payable"},{"type":"function","name":"renounceOwnership","inputs":[],"outputs":[],"stateMutability":"nonpayable"},{"type":"function","name":"setDefaultOrganizerFeeRate","inputs":[{"name":"feeRate","type":"uint256","internalType":"uint256"}],"outputs":[],"stateMutability":"nonpayable"},{"type":"function","name":"setPlatformFeeRate","inputs":[{"name":"feeRate","type":"uint256","internalType":"uint256"}],"outputs":[],"stateMutability":"nonpayable"},{"type":"function","name":"setTicketTypePurchaseLimit","inputs":[{"name":"eventId","type":"uint256","internalType":"uint256"},{"name":"typeId","type":"uint256","internalType":"uint256"},{"name":"user","type":"address","internalType":"address"},{"name":"limit","type":"uint256","internalType":"uint256"}],"outputs":[],"stateMutability":"nonpayable"},{"type":"function","name":"ticketManager","inputs":[],"outputs":[{"name":"","type":"address","internalType":"contract TicketManager"}],"stateMutability":"view"},{"type":"function","name":"transferOwnership","inputs":[{"name":"newOwner","type":"address","internalType":"address"}],"outputs":[],"stateMutability":"nonpayable"},{"type":"function","name":"unpause","inputs":[],"outputs":[],"stateMutability":"nonpayable"},{"type":"function","name":"updateEvent","inputs":[{"name":"eventId","type":"uint256","internalType":"uint256"},{"name":"name","type":"string","internalType":"string"},{"name":"description","type":"string","internalType":"string"},{"name":"imageURI","type":"string","internalType":"string"},{"name":"venue","type":"string","internalType":"string"},{"name":"startTime","type":"uint256","internalType":"uint256"},{"name":"endTime","type":"uint256","internalType":"uint256"}],"outputs":[],"stateMutability":"nonpayable"},{"type":"function","name":"updateEventStatus","inputs":[{"name":"eventId","type":"uint256","internalType":"uint256"},{"name":"newStatus","type":"uint8","internalType":"enum EventManager.EventStatus"}],"outputs":[],"stateMutability":"nonpayable"},{"type":"function","name":"withdrawPlatformRevenue","inputs":[{"name":"isEth","type":"bool","internalType":"bool"},{"name":"amount","type":"uint256","internalType":"uint256"}],"outputs":[],"stateMutability":"nonpayable"},{"type":"function","name":"withdrawRevenue","inputs":[{"name":"isEth","type":"bool","internalType":"bool"}],"outputs":[],"stateMutability":"nonpayable"},{"type":"event","name":"EventApproved","inputs":[{"name":"eventId","type":"uint256","indexed":true,"internalType":"uint256"},{"name":"approved","type":"bool","indexed":false,"internalType":"bool"}],"anonymous":false},{"type":"event","name":"EventCreated","inputs":[{"name":"eventId","type":"uint256","indexed":true,"internalType":"uint256"},{"name":"organizer","type":"address","indexed":true,"internalType":"address"},{"name":"name","type":"string","indexed":false,"internalType":"string"},{"name":"startTime","type":"uint256","indexed":false,"internalType":"uint256"},{"name":"endTime","type":"uint256","indexed":false,"internalType":"uint256"}],"anonymous":false},{"type":"event","name":"EventUpdated","inputs":[{"name":"eventId","type":"uint256","indexed":true,"internalType":"uint256"},{"name":"oldStatus","type":"uint8","indexed":false,"internalType":"enum EventManager.EventStatus"},{"name":"newStatus","type":"uint8","indexed":false,"internalType":"enum EventManager.EventStatus"}],"anonymous":false},{"type":"event","name":"OrganizerAuthorized","inputs":[{"name":"organizer","type":"address","indexed":true,"internalType":"address"},{"name":"authorized","type":"bool","indexed":false,"internalType":"bool"}],"anonymous":false},{"type":"event","name":"OwnershipTransferred","inputs":[{"name":"previousOwner","type":"address","indexed":true,"internalType":"address"},{"name":"newOwner","type":"address","indexed":true,"internalType":"address"}],"anonymous":false},{"type":"event","name":"Paused","inputs":[{"name":"account","type":"address","indexed":false,"internalType":"address"}],"anonymous":false},{"type":"event","name":"RevenueWithdrawn","inputs":[{"name":"organizer","type":"address","indexed":true,"internalType":"address"},{"name":"amount","type":"uint256","indexed":false,"internalType":"uint256"},{"name":"isEth","type":"bool","indexed":false,"internalType":"bool"}],"anonymous":false},{"type":"event","name":"TicketPurchased","inputs":[{"name":"eventId","type":"uint256","indexed":true,"internalType":"uint256"},{"name":"typeId","type":"uint256","indexed":true,"internalType":"uint256"},{"name":"buyer","type":"address","indexed":true,"internalType":"address"},{"name":"quantity","type":"uint256","indexed":false,"internalType":"uint256"},{"name":"totalCost","type":"uint256","indexed":false,"internalType":"uint256"},{"name":"paidWithEth","type":"bool","indexed":false,"internalType":"bool"}],"anonymous":false},{"type":"event","name":"TicketTypeAdded","inputs":[{"name":"eventId","type":"uint256","indexed":true,"internalType":"uint256"},{"name":"typeId","type":"uint256","indexed":true,"internalType":"uint256"},{"name":"name","type":"string","indexed":false,"internalType":"string"},{"name":"price","type":"uint256","indexed":false,"internalType":"uint256"},{"name":"totalSupply","type":"uint256","indexed":false,"internalType":"uint256"}],"anonymous":false},{"type":"event","name":"Unpaused","inputs":[{"name":"account","type":"address","indexed":false,"internalType":"address"}],"anonymous":false},{"type":"error","name":"EnforcedPause","inputs":[]},{"type":"error","name":"ExpectedPause","inputs":[]},{"type":"error","name":"OwnableInvalidOwner","inputs":[{"name":"owner","type":"address","internalType":"address"}]},{"type":"error","name":"OwnableUnauthorizedAccount","inputs":[{"name":"account","type":"address","internalType":"address"}]},{"type":"error","name":"ReentrancyGuardReentrantCall","inputs":[]}],"bytecode":{"object":"0x60c034620001de57601f62003db138819003918201601f191683019291906001600160401b03841183851017620001e2578160609284926040968752833981010312620001de576200005181620001f6565b6200006c836200006460208501620001f6565b9301620001f6565b6001600160a01b03918216928315620001c7575f80546001600160a01b031981168617825586519585939290918416907f8be0079c531659141344cd1fd0a4f28419497f9722a3daafe3b4186f6b6457e09080a3600180556101f460075560fa6008551692831562000179575016908115620001295760805260a052600160035551613ba590816200020c8239608051818181610bbd0152613667015260a051818181610e300152818161106f01528181611394015261212e0152f35b825162461bcd60e51b8152602060048201526024808201527f4576656e744d616e616765723a20696e76616c696420706c6174666f726d207460448201526337b5b2b760e11b6064820152608490fd5b62461bcd60e51b8152602060048201526024808201527f4576656e744d616e616765723a20696e76616c6964207469636b6574206d616e60448201526330b3b2b960e11b6064820152608490fd5b8451631e4fbdf760e01b81525f6004820152602490fd5b5f80fd5b634e487b7160e01b5f52604160045260245ffd5b51906001600160a01b0382168203620001de5756fe6080604052600436101561001a575b3615610018575f80fd5b005b5f3560e01c8063087b863614612f375780630b79143014612dff578063102589f314612d425780631c9ee3dd146127055780631d645b12146125bc5780631fd6896e1461253f5780633f4ba83a146124d657806355210b4d1461249e5780635c56a3f514611fe75780635c975abb14611fc557806362a5dbbc14611fa85780636307b89814611f8b5780636acaa93f14611e0c578063715018a614611db557806382a20d6d14611d785780638456cb5914611d1f5780638d1ae30114611d025780638da5cb5b14611cdb5780639181346c146118a0578063927fef2e14611825578063965b4101146113eb5780639a8d1615146112d8578063b6116af9146112a0578063b639e9d414611148578063b7db43c814610f52578063ca8b01d414610e5f578063d1b812cd14610e1b578063e4aa47e314610dc4578063e63ea40814610c93578063eeca08f014610c76578063f2fde38b14610bec578063f96b61cf14610ba8578063fa5d718014610404578063fc733996146102cb578063fd4acb351461025c5763ff9f59700361000e573461025857602080600319360112610258576001600160a01b036101cc612fe1565b165f526005815260405f20604051908183825491828152019081925f52845f20905f5b868282106102445786866102058288038361302f565b60405192839281840190828552518091526040840192915f5b82811061022d57505050500390f35b83518552869550938101939281019260010161021e565b8354855290930192600192830192016101ef565b5f80fd5b34610258576020366003190112610258576004356102786135db565b612710811161028657600755005b60405162461bcd60e51b815260206004820152601f60248201527f4576656e744d616e616765723a20666565207261746520746f6f2068696768006044820152606490fd5b3461025857604036600319011261025857600435602435600881101561025857811515806103f9575b6102fd90613292565b815f52600460205261032960018060a01b0380600460405f2001541633149081156103ec575b5061333f565b815f526004602052600760405f20019060ff82541661034882826138e7565b15610397576103948261037e6040947fda91aae36c3f7cc06460a580bf85526904742aecbaf1de25b794bfbe15aed1679661351b565b61038a84518094613138565b6020830190613138565ba2005b60405162461bcd60e51b815260206004820152602760248201527f4576656e744d616e616765723a20696e76616c696420737461747573207472616044820152663739b4ba34b7b760c91b6064820152608490fd5b90505f5416331484610323565b5060035482106102f4565b346102585760e0366003190112610258576004356001600160401b03811161025857610434903690600401613160565b6024356001600160401b03811161025857610453903690600401613160565b6044356001600160401b03811161025857610472903690600401613160565b906064356001600160401b03811161025857610492903690600401613160565b60c435151560c4350361025857335f52600660205260ff60405f2054168015610b95575b15610b41576104c3613606565b835115610afc57426084351115610ab85760843560a4351115610a7357600354926104ed84613533565b600355835f52600460205260405f209285516001600160401b038111610753576105178554612ff7565b601f8111610a32575b50806020601f82116001146109cf575f916109c4575b508160011b915f199060031b1c19161784555b8051906001600160401b0382116107535781906105696001870154612ff7565b601f8111610974575b50602090601f8311600114610906575f926108fb575b50508160011b915f199060031b1c19161760018401555b8051906001600160401b0382116107535781906105bf6002860154612ff7565b601f81116108ab575b50602090601f831160011461083d575f92610832575b50508160011b915f199060031b1c19161760028301555b8051906001600160401b038211610753576106136003840154612ff7565b601f81116107ee575b50602090601f831160011461077c5791806106c49492600d945f92610771575b50508160011b915f199060031b1c19161760038201555b6004810180546001600160a01b03191633179055608435600582015560a435600682015560c435156107675761068d5f5b6007830161351b565b426008820155600754600c82015501805460ff191660ff60c435151516178155805461ff00191660c4351560081b61ff0016179055565b335f52600560205260405f20918254926801000000000000000084101561075357836106f7916001602096018155613269565b81549060031b9084821b915f19901b1916179055817f3e1e16dc53562886fa9ab2acde567c1067c24a0c4daad0e47ab75c7b194a90ed60405180610744339560a435906084359084613541565b0390a360018055604051908152f35b634e487b7160e01b5f52604160045260245ffd5b61068d6001610684565b01519050878061063c565b90600384015f5260205f20915f5b601f19851681106107d65750926106c49492600192600d9583601f198116106107be575b505050811b016003820155610653565b01515f1960f88460031b161c191690558780806107ae565b9192602060018192868501518155019401920161078a565b600384015f5260205f20601f840160051c81016020851061082b575b601f830160051c8201811061082057505061061c565b5f815560010161080a565b508061080a565b0151905086806105de565b9250600285015f5260205f20905f935b601f1984168510610890576001945083601f19811610610878575b505050811b0160028301556105f5565b01515f1960f88460031b161c19169055868080610868565b8181015183556020948501946001909301929091019061084d565b909150600285015f5260205f20601f840160051c8101602085106108f4575b90849392915b601f830160051c820181106108e65750506105c8565b5f81558594506001016108d0565b50806108ca565b015190508780610588565b9250600186015f5260205f20905f935b601f1984168510610959576001945083601f19811610610941575b505050811b01600184015561059f565b01515f1960f88460031b161c19169055878080610931565b81810151835560209485019460019093019290910190610916565b909150600186015f5260205f20601f840160051c8101602085106109bd575b90849392915b601f830160051c820181106109af575050610572565b5f8155859450600101610999565b5080610993565b905087015188610536565b9150855f5260205f205f925b601f1983168410610a1a576001935082601f19811610610a02575b5050811b018455610549565b8901515f1960f88460031b161c1916905588806109f6565b898101518255602093840193600190920191016109db565b855f5260205f20601f830160051c810160208410610a6c575b601f830160051c82018110610a61575050610520565b5f8155600101610a4b565b5080610a4b565b60405162461bcd60e51b815260206004820152601e60248201527f4576656e744d616e616765723a20696e76616c696420656e642074696d6500006044820152606490fd5b606460405162461bcd60e51b815260206004820152602060248201527f4576656e744d616e616765723a20696e76616c69642073746172742074696d656044820152fd5b60405162461bcd60e51b815260206004820152601860248201527f4576656e744d616e616765723a20656d707479206e616d6500000000000000006044820152606490fd5b60405162461bcd60e51b815260206004820152602660248201527f4576656e744d616e616765723a206e6f7420617574686f72697a6564206f726760448201526530b734bd32b960d11b6064820152608490fd5b505f546001600160a01b031633146104b6565b34610258575f366003190112610258576040517f00000000000000000000000000000000000000000000000000000000000000006001600160a01b03168152602090f35b3461025857602036600319011261025857610c05612fe1565b610c0d6135db565b6001600160a01b03908116908115610c5e575f54826bffffffffffffffffffffffff60a01b8216175f55167f8be0079c531659141344cd1fd0a4f28419497f9722a3daafe3b4186f6b6457e05f80a3005b604051631e4fbdf760e01b81525f6004820152602490fd5b34610258575f366003190112610258576020600854604051908152f35b3461025857606036600319011261025857610cac612fe1565b6001600160a01b03602435818116918282036102585760443593610cce6135db565b8315610d7057169081610d075750505f8080938193828215610cfe575bf115610cf357005b6040513d5f823e3d90fd5b506108fc610ceb565b60405163a9059cbb60e01b81526001600160a01b03919091166004820152602481019390935260209150829060449082905f905af18015610cf357610d4857005b6100189060203d602011610d69575b610d61818361302f565b8101906134b7565b503d610d57565b60405162461bcd60e51b815260206004820152602660248201527f4576656e744d616e616765723a20776974686472617720746f207a65726f206160448201526564647265737360d01b6064820152608490fd5b3461025857604036600319011261025857610ddd612fe1565b6001600160a01b03165f9081526005602052604090208054602435919082101561025857602091610e0d91613269565b90546040519160031b1c8152f35b34610258575f366003190112610258576040517f00000000000000000000000000000000000000000000000000000000000000006001600160a01b03168152602090f35b346102585760403660031901126102585760243560043580151580610f47575b610e8890613292565b805f526004602052610ea2600960405f20015483106132e9565b5f526004602052600e60405f2001905f52602052610f0860405f20600181015460ff600283015492600381015460048201546005830154600684015491600785015493610ef3600887015496613050565b986040519a8b9a610140808d528c0190613113565b9860208b015260408a01526060890152608088015260a087015260c086015260e0850152818116151561010085015260081c1615156101208301520390f35b506003548110610e7f565b346102585760208060031936011261025857610f6c6131b5565b610f74613606565b1561102357335f52600a815260405f2054908115610fdf57335f52600a81525f60408120555f808080853382f115610cf3576001906040519283528201527f0384ed6be291e4de8b2149c62ab16528186490835f74116fd1f626d5b6f786b160403392a25b60018055005b6064906040519062461bcd60e51b82526004820152601c60248201527f4576656e744d616e616765723a206e6f204554482062616c616e6365000000006044820152fd5b335f526009815260405f205490811561110457335f818152600983526040808220919091555163a9059cbb60e01b8152600481019190915260248101839052908082806044810103815f7f00000000000000000000000000000000000000000000000000000000000000006001600160a01b03165af1918215610cf3575f926110b39184916110e7575b506134cf565b6040519283528201527f0384ed6be291e4de8b2149c62ab16528186490835f74116fd1f626d5b6f786b160403392a2610fd9565b6110fe9150833d8511610d6957610d61818361302f565b856110ad565b6064906040519062461bcd60e51b82526004820152601e60248201527f4576656e744d616e616765723a206e6f20746f6b656e2062616c616e636500006044820152fd5b34610258576060366003190112610258576044356024356004356001600160401b03831161025857366023840112156102585782600401359161118a836131c4565b93611198604051958661302f565b83855260209360248587019160051b8301019136831161025857602401905b8282106112815750505081151580611276575b6111d390613292565b815f526004835260018060a01b039182600460405f200154163314801561126a575b6112019094939461333f565b805f526004835261121a600960405f20015483106132e9565b5f5260048252600e60405f2001905f52815260405f2090600a5f9201915b845181101561001857808461124f600193886135c7565b51165f5283835260405f208260ff1982541617905501611238565b505f54831633146111f5565b5060035482106111ca565b81356001600160a01b03811681036102585781529085019085016111b7565b34610258576020366003190112610258576001600160a01b036112c1612fe1565b165f52600a602052602060405f2054604051908152f35b34610258576040366003190112610258576112f16131b5565b602435906112fd6135db565b1561133c575f80808361131f8295600c5461131a81831115613570565b613563565b600c5581546001600160a01b0316828215610cfe57f115610cf357005b60208161135561139093600b5461131a81831115613570565b600b555f805460405163a9059cbb60e01b81526001600160a01b03918216600482015260248101939093529193849291839182906044820190565b03927f0000000000000000000000000000000000000000000000000000000000000000165af18015610cf357610018915f916113cc57506134cf565b6113e5915060203d602011610d6957610d61818361302f565b826110ad565b6113f4366131db565b83919315158061181a575b61140890613292565b611410613606565b611418613629565b611423841515613395565b815f5260206004815260405f2091600d8301549261144760ff600895861c166133e1565b611456600982015487106132e9565b855f52600e8101835260405f2060028101549081156117c5576005810154421015806117b8575b600682015442101590816117a9575b156116d5575060ff600784015416868110156116c15760020361167e57335f52600a8101855260ff60405f2054161561162a575b6114e88960048301936114e36114d783875461342c565b6003860154101561344d565b6134a4565b958634106115da578634116115ac575b90600b946115559261271061151b60018060a01b0360048901541692548b6134a4565b049061153361152a838c613563565b92600c5461342c565b600c555f52600a885261154b60405f2091825461342c565b90558a8a8a613647565b61156088825461342c565b90550161156e83825461342c565b9055604051948552840152600160408401527fb06dd6b6199160148cf7da2a02a2e2fd41e744bc68f868a21806ad1fcb336f6d60603394a460018055005b905f8080806115bb8b34613563565b8181156115d1575b3390f115610cf357906114f8565b506108fc6115c3565b60405162461bcd60e51b815260048101879052602260248201527f4576656e744d616e616765723a20696e73756666696369656e74207061796d656044820152611b9d60f21b6064820152608490fd5b60405162461bcd60e51b815260048101869052602660248201527f4576656e744d616e616765723a206e6f7420696e2070726573616c65207768696044820152651d195b1a5cdd60d21b6064820152608490fd5b6064856040519062461bcd60e51b825280600483015260248201527f4576656e744d616e616765723a2070726573616c65206e6f74206163746976656044820152fd5b634e487b7160e01b5f52602160045260245ffd5b156117595760ff600784015416868110156116c1576003811490811561179e575b50156117595760ff86820154871c16156114c05760405162461bcd60e51b815260048101869052602160248201527f4576656e744d616e616765723a2070726573616c65206f6e6c79207469636b656044820152601d60fa1b6064820152608490fd5b60405162461bcd60e51b815260206004820152601d60248201527f4576656e744d616e616765723a2073616c65206e6f74206163746976650000006044820152606490fd5b60029150148a6116f6565b6007830154421115915061148c565b506006810154421061147d565b60405162461bcd60e51b815260048101869052602760248201527f4576656e744d616e616765723a20455448207061796d656e74206e6f742073756044820152661c1c1bdc9d195960ca1b6064820152608490fd5b5060035482106113ff565b34610258576020366003190112610258576004356118416135db565b6103e8811161184f57600855005b60405162461bcd60e51b815260206004820152602360248201527f4576656e744d616e616765723a20706c6174666f726d2066656520746f6f20686044820152620d2ced60eb1b6064820152608490fd5b3461025857610140366003190112610258576001600160401b0360248035828111610258576118d3903690600401613160565b610104351515610104350361025857610124351515610124350361025857600435151580611cce575b61190590613292565b6004355f52600460205261193260018060a01b0380600460405f200154163314908115611cc1575061333f565b6004355f52600460205260405f209060ff6007830154166008811015611cae578015908115611ca3575b5015611c4057805115611bef5760843515611ba05760c43560e4351115611b5c57600e600983019283549361199085613533565b9055835f520160205260405f20928151948511611b4957506119b28354612ff7565b93601f8511611b04575b6020945084601f8211600114611a9c57839482611a4c936008935f91611a91575b508160011b915f199060031b1c19161781555b6044356001820155606435600282015560843560038201555f600482015560a435600582015560c435600682015560e435600782015501805461ff0061012435151560081b1661ffff1990911661010435151560ff1617179055565b7f766363e141a90ab2ab87c4d5ab572d5df3ac4b4e6cd8228f13b6a56b02d8c5c660405180611a8660043594608435906044359084613541565b0390a3604051908152f35b9050850151896119dd565b845f52855f20905f5b601f1984168110611aed5750946001836008938798611a4c96601f19811610611ad5575b5050811b0181556119f0565b8701515f1960f88460031b161c191690558980611ac9565b909187600181928588015181550193019101611aa5565b835f5260205f20601f820160051c81019560208310611b3f575b601f0160051c01945b858110611b3457506119bc565b5f8155600101611b27565b9095508590611b1e565b634e487b7160e01b5f9081526041600452fd5b60405162461bcd60e51b815260206004820152601f818501527f4576656e744d616e616765723a20696e76616c69642073616c652074696d65006044820152606490fd5b60405162461bcd60e51b8152602060048201526022818501527f4576656e744d616e616765723a20696e76616c696420746f74616c20737570706044820152616c7960f01b6064820152608490fd5b60405162461bcd60e51b8152602060048201528084018490527f4576656e744d616e616765723a20656d707479207469636b65742074797065206044820152636e616d6560e01b6064820152608490fd5b60405162461bcd60e51b8152602060048201526036818501527f4576656e744d616e616765723a2063616e6e6f7420616464207469636b6574206044820152757479706520696e2063757272656e742073746174757360501b6064820152608490fd5b60019150148561195c565b83634e487b7160e01b5f5260216004525ffd5b90505f5416331485610323565b50600354600435106118fc565b34610258575f366003190112610258575f546040516001600160a01b039091168152602090f35b34610258575f366003190112610258576020600c54604051908152f35b34610258575f36600319011261025857611d376135db565b611d3f613629565b600160ff1960025416176002557f62e78cea01bee320cd4e420270b5ea74000d11b0c9f74754ebdbfc544b05a2586020604051338152a1005b34610258576020366003190112610258576001600160a01b03611d99612fe1565b165f526006602052602060ff60405f2054166040519015158152f35b34610258575f36600319011261025857611dcd6135db565b5f80546001600160a01b0319811682556001600160a01b03167f8be0079c531659141344cd1fd0a4f28419497f9722a3daafe3b4186f6b6457e08280a3005b3461025857604036600319011261025857600435611e286131a6565b611e306135db565b81151580611f80575b611e4290613292565b815f52600460205260405f20600d81019060ff82541615611f2557815461ff00191683151560081b61ff00161790915582908280611f06575b917f9de0f0a5993b4aa68d5121a6c1cc0364406f54e3cee88b952cd7734e1563585a9391602093611eb4575b50506040519015158152a2005b600701805460ff198116600117909155604080517fda91aae36c3f7cc06460a580bf85526904742aecbaf1de25b794bfbe15aed16792611ef890829060ff16613138565b600186820152a28385611ea7565b50905060ff6007820154169160088310156116c1579183919015611e7b565b60405162461bcd60e51b815260206004820152602d60248201527f4576656e744d616e616765723a206576656e7420646f6573206e6f742072657160448201526c1d5a5c9948185c1c1c9bdd985b609a1b6064820152608490fd5b506003548210611e39565b34610258575f366003190112610258576020600754604051908152f35b34610258575f366003190112610258576020600b54604051908152f35b34610258575f36600319011261025857602060ff600254166040519015158152f35b3461025857611ff5366131db565b839193151580612493575b61200990613292565b612011613606565b612019613629565b612024841515613395565b8051848115918215612489575b50501561243957815f52600460205260405f209061205860ff600d84015460081c166133e1565b612067600983015485106132e9565b835f52600e820160205260405f209160058301544210158061242c575b6006840154421015908161241d575b1561238b575060ff60078201541660088110156116c15760020361234757335f52600a830160205260ff60405f205416156122f3575b6120e66120da87600486015461342c565b6003850154101561344d565b335f52600983016020526120fe8660018501546134a4565b9283156122ae576040516323b872dd60e01b8152336004820152306024820152604481018590526020816064815f7f00000000000000000000000000000000000000000000000000000000000000006001600160a01b03165af18015610cf357869461217584926121cc945f9161228f57506134cf565b60018060a01b036004860154166127106121916008548a6134a4565b04906121a96121a0838b613563565b92600b5461342c565b600b555f5260096020526121c260405f2091825461342c565b9055898987613647565b60046121db888284015461342c565b910155600a81016121ed84825461342c565b90556121f8816138a7565b61223c575b505060405193845260208401525f60408401527fb06dd6b6199160148cf7da2a02a2e2fd41e744bc68f868a21806ad1fcb336f6d60603394a460018055005b600701805460ff198116600417909155604080517fda91aae36c3f7cc06460a580bf85526904742aecbaf1de25b794bfbe15aed1679261228090829060ff16613138565b60046020820152a281856121fd565b6122a8915060203d602011610d6957610d61818361302f565b8c6110ad565b60405162461bcd60e51b815260206004820152601b60248201527f4576656e744d616e616765723a20696e76616c696420707269636500000000006044820152606490fd5b60405162461bcd60e51b815260206004820152602660248201527f4576656e744d616e616765723a206e6f7420696e2070726573616c65207768696044820152651d195b1a5cdd60d21b6064820152608490fd5b606460405162461bcd60e51b815260206004820152602060248201527f4576656e744d616e616765723a2070726573616c65206e6f74206163746976656044820152fd5b156117595760ff60078201541660088110156116c15760038114908115612412575b50156117595760ff600884015460081c16156120c95760405162461bcd60e51b815260206004820152602160248201527f4576656e744d616e616765723a2070726573616c65206f6e6c79207469636b656044820152601d60fa1b6064820152608490fd5b6002915014876123ad565b60078501544211159150612093565b5060068301544210612084565b60405162461bcd60e51b815260206004820152602260248201527f4576656e744d616e616765723a2073656174206e756d626572206d69736d61746044820152610c6d60f31b6064820152608490fd5b1490508486612031565b506003548210612000565b34610258576020366003190112610258576001600160a01b036124bf612fe1565b165f526009602052602060405f2054604051908152f35b34610258575f366003190112610258576124ee6135db565b60025460ff81161561252d5760ff19166002557f5db9ee0a495bf2e6ff9c91a7834c1ba4fdd244a5e8aa4e537bd38aeae4b073aa6020604051338152a1005b604051638dfc202b60e01b8152600490fd5b3461025857604036600319011261025857612558612fe1565b7f7b2e4f024d896b4d89e597bdd9d630a6bda678aaed6a151ee53538af7fe07adf60206125836131a6565b9261258c6135db565b6001600160a01b03165f8181526006835260409020805460ff191660ff86151516179055926040519015158152a2005b3461025857602036600319011261025857600435801515806126fa575b6125e290613292565b5f52600460205260405f20600160a01b600190036004820154166005820154906006830154600784015460ff1660088501546009860154600a87015491600b88015493600d890154956126348a613050565b9861264160018c01613050565b9a61264e60028201613050565b9060030161265b90613050565b906040519c8d9c8d6101c0908181520161267491613113565b8d810360208f015261268591613113565b8c810360408e015261269691613113565b8b810360608d01526126a791613113565b9860808b015260a08a015260c089015260e088016126c491613138565b61010087015261012086015261014085015261016084015260ff8116151561018084015260081c60ff1615156101a08301520390f35b5060035481106125d9565b346102585760e03660031901126102585760246001600160401b0360043582358281116102585761273a903690600401613160565b9160443581811161025857612753903690600401613160565b936064358281116102585761276c903690600401613160565b9260843583811161025857612785903690600401613160565b60a4359460c4359783151580612d37575b61279f90613292565b835f52602093600485526127cc60018060a01b0380600460405f200154163314908115612d2a575061333f565b5f526004845260405f209760ff60078a0154166008811015612d17578015908115612d0c575b5015612cac5780519081612b91575b5050805180612a7a575b505080518061295a575b505080519283612846575b505050505042811161283b575b821161283557005b60060155005b80600583015561282d565b60038701948411611b49575090829161285f8554612ff7565b601f811161290a575b5081601f84116001146128a657505f9261289b575b50508160011b915f199060031b1c19161790555b8380808080612820565b01519050868061287d565b5f8681528181209450601f198616915b8282106128f25750509084600195949392106128da575b505050811b019055612891565b01515f1960f88460031b161c191690558680806128cd565b806001869782949787015181550196019401906128b6565b90919250845f52825f20601f850160051c810191848610612950575b90601f86959493920160051c01905b8181106129425750612868565b5f8155859450600101612935565b9091508190612926565b6002880191868211612a675781906129728454612ff7565b601f8111612a19575b508590601f83116001146129b6575f926129ab575b50508160011b915f199060031b1c19161790555b8780612815565b015190508a80612990565b5f8581528781209350601f198516905b88828210612a035750509084600195949392106129eb575b505050811b0190556129a4565b01515f1960f88460031b161c191690558a80806129de565b60018596829396860151815501950193016129c6565b909150835f52855f20601f840160051c810191878510612a5d575b90601f859493920160051c01905b818110612a4f575061297b565b5f8155849350600101612a42565b9091508190612a34565b85634e487b7160e01b5f5260416004525ffd5b600190818a0192888211612b7e57612a928454612ff7565b601f8111612b38575b508690601f8311600114612ad9579282939183925f94612ace575b50501b915f199060031b1c19161790555b888061280b565b015192508d80612ab6565b90601f19831691855f5283895f20935f5b8b88838310612b215750505010612b09575b505050811b019055612ac7565b01515f1960f88460031b161c191690558b8080612afc565b868601518855909601959485019487935001612aea565b845f52875f20601f840160051c810191898510612b74575b601f0160051c019084905b828110612b69575050612a9b565b5f8155018490612b5b565b9091508190612b50565b87634e487b7160e01b5f5260416004525ffd5b878211612c99578190612ba48b54612ff7565b601f8111612c4b575b508690601f8311600114612be8575f92612bdd575b50508160011b915f199060031b1c19161788555b8980612801565b015190508b80612bc2565b5f8c81528881209350601f198516905b89828210612c35575050908460019594939210612c1d575b505050811b018855612bd6565b01515f1960f88460031b161c191690558b8080612c10565b6001859682939686015181550195019301612bf8565b9091508a5f52865f20601f840160051c810191888510612c8f575b90601f859493920160051c01905b818110612c815750612bad565b5f8155849350600101612c74565b9091508190612c66565b86634e487b7160e01b5f5260416004525ffd5b60405162461bcd60e51b8152600481018690526033818801527f4576656e744d616e616765723a2063616e6e6f7420757064617465206576656e6044820152727420696e2063757272656e742073746174757360681b6064820152608490fd5b60019150148b6127f2565b86634e487b7160e01b5f5260216004525ffd5b90505f541633148c610323565b506003548410612796565b3461025857608036600319011261025857602435600435612d61612fcb565b9181151580612df4575b612d7490613292565b815f52600460205260018060a01b039182600460405f2001541633148015612de8575b612da09061333f565b805f526004602052612dba600960405f20015483106132e9565b5f526004602052600e60405f2001905f52602052600960405f200191165f5260205260643560405f20555f80f35b505f5483163314612d97565b506003548210612d6b565b34610258576020366003190112610258576004355f52600460205260405f20612e2781613050565b612e3360018301613050565b91612e4060028201613050565b612e4c60038301613050565b91600160a01b600190036004820154169260058201546006830154600784015460ff16600885015490600986015492600a87015494600b88015496600c89015498600d0154996040519d8e809e6101e08083528201612eaa91613113565b908082039060200152612ebc91613113565b8d810360408f0152612ecd91613113565b8c810360608e0152612ede91613113565b9960808c015260a08b015260c08a015260e08901612efb91613138565b61010088015261012087015261014086015261016085015261018084015260ff811615156101a084015260081c60ff1615156101c08301520390f35b3461025857606036600319011261025857600435602435612f56612fcb565b9180151580612fc0575b612f6990613292565b805f526004602052612f83600960405f20015483106132e9565b5f526004602052600e60405f2001905f52602052600a60405f20019060018060a01b03165f52602052602060ff60405f2054166040519015158152f35b506003548110612f60565b604435906001600160a01b038216820361025857565b600435906001600160a01b038216820361025857565b90600182811c92168015613025575b602083101461301157565b634e487b7160e01b5f52602260045260245ffd5b91607f1691613006565b90601f801991011681019081106001600160401b0382111761075357604052565b9060405191825f825461306281612ff7565b908184526020946001916001811690815f146130d05750600114613092575b5050506130909250038361302f565b565b5f90815285812095935091905b8183106130b857505061309093508201015f8080613081565b8554888401850152948501948794509183019161309f565b9250505061309094925060ff191682840152151560051b8201015f8080613081565b5f5b8381106131035750505f910152565b81810151838201526020016130f4565b9060209161312c815180928185528580860191016130f2565b601f01601f1916010190565b9060088210156116c15752565b6001600160401b03811161075357601f01601f191660200190565b81601f820112156102585780359061317782613145565b92613185604051948561302f565b8284526020838301011161025857815f926020809301838601378301015290565b60243590811515820361025857565b60043590811515820361025857565b6001600160401b0381116107535760051b60200190565b906080600319830112610258576004359160243591604435916064356001600160401b03811161025857816023820112156102585780600401359161321f836131c4565b9261322d604051948561302f565b8084526020926024602086019260051b82010192831161025857602401905b82821061325a575050505090565b8135815290830190830161324c565b805482101561327e575f5260205f2001905f90565b634e487b7160e01b5f52603260045260245ffd5b1561329957565b60405162461bcd60e51b815260206004820152602260248201527f4576656e744d616e616765723a206576656e7420646f6573206e6f74206578696044820152611cdd60f21b6064820152608490fd5b156132f057565b60405162461bcd60e51b815260206004820152602160248201527f4576656e744d616e616765723a20696e76616c6964207469636b6574207479706044820152606560f81b6064820152608490fd5b1561334657565b60405162461bcd60e51b815260206004820152602160248201527f4576656e744d616e616765723a206e6f74206576656e74206f7267616e697a656044820152603960f91b6064820152608490fd5b1561339c57565b60405162461bcd60e51b815260206004820152601e60248201527f4576656e744d616e616765723a20696e76616c6964207175616e7469747900006044820152606490fd5b156133e857565b606460405162461bcd60e51b815260206004820152602060248201527f4576656e744d616e616765723a206576656e74206e6f7420617070726f7665646044820152fd5b9190820180921161343957565b634e487b7160e01b5f52601160045260245ffd5b1561345457565b60405162461bcd60e51b815260206004820152602260248201527f4576656e744d616e616765723a20696e73756666696369656e74207469636b65604482015261747360f01b6064820152608490fd5b8181029291811591840414171561343957565b90816020910312610258575180151581036102585790565b156134d657565b60405162461bcd60e51b815260206004820152601d60248201527f4576656e744d616e616765723a207472616e73666572206661696c65640000006044820152606490fd5b9060088110156116c15760ff80198354169116179055565b5f1981146134395760010190565b61355960409295949395606083526060830190613113565b9460208201520152565b9190820391821161343957565b1561357757565b60405162461bcd60e51b815260206004820152602260248201527f4576656e744d616e616765723a20696e73756666696369656e742062616c616e604482015261636560f01b6064820152608490fd5b805182101561327e5760209160051b010190565b5f546001600160a01b031633036135ee57565b60405163118cdaa760e01b8152336004820152602490fd5b600260015414613617576002600155565b604051633ee5aeb560e01b8152600490fd5b60ff6002541661363557565b60405163d93c066560e01b8152600490fd5b93909193805f526020936004855260409260405f205f9560018060a01b037f000000000000000000000000000000000000000000000000000000000000000016936006600584019301975b8a81106136a6575050505050505050505050565b8151156138a1576136b781836135c7565b515b8a888b8b896136c784613a08565b926137516136d48b613a08565b94845180967f68747470733a2f2f6170692e6f6e6c696e657469636b65742e636f6d2f6d65748a8301526561646174612f60d01b87830152602f60f81b6046936137278c825192839188880191016130f2565b830193840152604792613742825180938d87850191016130f2565b0103602781018752018561302f565b600182015460ff60088d549354940154169351978896634ed0007f60e11b885233600489015260248801526044870152606486015289608486015260a485015260c4840152151560e48301526101406101048301525f9089546137b381612ff7565b8061014486015261016491856001821691825f14613884575050600114613840575b50508282036003190161012484015282916137ef91613113565b03815f8b5af1801561383657908b9161380d575b5050600101613692565b813d831161382f575b613820818361302f565b8101031261025857895f613803565b503d613816565b89513d5f823e3d90fd5b5f8c8152868120939695945091925b818310613867575093949293508301019080836137d5565b6001919395929450805486868a0101520192018f9391869361384f565b60ff19168482015291151560051b820190920193508291506137d5565b5f6136b9565b5f5b60098201548110156138e057805f52600e820160205260405f2060036004820154910154116138da576001016138a9565b50505f90565b5050600190565b600882101590816116c15760088110156116c157828114613a015780156139f057600181146139cb5760028114613993576003811461395b576004811461393f576006146139355750505f90565b6116c15760071490565b506116c15760068114908115613953575090565b600591501490565b5090816116c15760048114918215613986575b821561397957505090565b9091506116c15760051490565b506006811491505f61396e565b5090816116c157600381149182156139be575b82156139b157505090565b9091506116c15760041490565b506005811491505f6139a6565b5090600281149182156139e357821561397957505090565b506003811491505f61396e565b505060018114908115613953575090565b5050505f90565b805f917a184f03e93ff9f4daa797ed6e38ed64bf6a1f01000000000000000080821015613b61575b506d04ee2d6d415b85acef810000000080831015613b52575b50662386f26fc1000080831015613b43575b506305f5e10080831015613b34575b5061271080831015613b25575b506064821015613b15575b600a80921015613b0b575b6001908160216001860195613aa187613145565b96613aaf604051988961302f565b808852613abe601f1991613145565b01366020890137860101905b613ad6575b5050505090565b5f19019083906f181899199a1a9b1b9c1cb0b131b232b360811b8282061a835304918215613b0657919082613aca565b613acf565b9160010191613a8d565b9190606460029104910191613a82565b6004919392049101915f613a77565b6008919392049101915f613a6a565b6010919392049101915f613a5b565b6020919392049101915f613a49565b60409350810491505f613a3056fea2646970667358221220f87a289178189b0af3a5234e80d3f1a32ae3ef37b794bdccc3864ee92ced527d64736f6c63430008170033","linkReferences":{}},"methodIdentifiers":{"addTicketType(uint256,string,uint256,uint256,uint256,uint256,uint256,uint256,bool,bool)":"9181346c","addToPresaleWhitelist(uint256,uint256,address[])":"b639e9d4","approveEvent(uint256,bool)":"6acaa93f","authorizeOrganizer(address,bool)":"1fd6896e","authorizedOrganizers(address)":"82a20d6d","createEvent(string,string,string,string,uint256,uint256,bool)":"fa5d7180","defaultOrganizerFeeRate()":"6307b898","emergencyWithdraw(address,address,uint256)":"e63ea408","events(uint256)":"0b791430","getEventInfo(uint256)":"1d645b12","getOrganizerEvents(address)":"ff9f5970","getTicketTypeInfo(uint256,uint256)":"ca8b01d4","isInPresaleWhitelist(uint256,uint256,address)":"087b8636","organizerBalance(address)":"55210b4d","organizerEthBalance(address)":"b6116af9","organizerEvents(address,uint256)":"e4aa47e3","owner()":"8da5cb5b","pause()":"8456cb59","paused()":"5c975abb","platformBalance()":"62a5dbbc","platformEthBalance()":"8d1ae301","platformFeeRate()":"eeca08f0","platformToken()":"d1b812cd","purchaseTickets(uint256,uint256,uint256,uint256[])":"5c56a3f5","purchaseTicketsWithEth(uint256,uint256,uint256,uint256[])":"965b4101","renounceOwnership()":"715018a6","setDefaultOrganizerFeeRate(uint256)":"fd4acb35","setPlatformFeeRate(uint256)":"927fef2e","setTicketTypePurchaseLimit(uint256,uint256,address,uint256)":"102589f3","ticketManager()":"f96b61cf","transferOwnership(address)":"f2fde38b","unpause()":"3f4ba83a","updateEvent(uint256,string,string,string,string,uint256,uint256)":"1c9ee3dd","updateEventStatus(uint256,uint8)":"fc733996","withdrawPlatformRevenue(bool,uint256)":"9a8d1615","withdrawRevenue(bool)":"b7db43c8"},"id":58}