{"abi":[{"type":"constructor","inputs":[{"name":"initialOwner","type":"address","internalType":"address"},{"name":"_ticketManager","type":"address","internalType":"address"},{"name":"_eventManager","type":"address","internalType":"address"},{"name":"_platformToken","type":"address","internalType":"address"}],"stateMutability":"nonpayable"},{"type":"receive","stateMutability":"payable"},{"type":"function","name":"auctionBids","inputs":[{"name":"","type":"uint256","internalType":"uint256"},{"name":"","type":"uint256","internalType":"uint256"}],"outputs":[{"name":"bidder","type":"address","internalType":"address"},{"name":"amount","type":"uint256","internalType":"uint256"},{"name":"timestamp","type":"uint256","internalType":"uint256"},{"name":"isEth","type":"bool","internalType":"bool"}],"stateMutability":"view"},{"type":"function","name":"auctionExtensionTime","inputs":[],"outputs":[{"name":"","type":"uint256","internalType":"uint256"}],"stateMutability":"view"},{"type":"function","name":"auctions","inputs":[{"name":"","type":"uint256","internalType":"uint256"}],"outputs":[{"name":"auctionId","type":"uint256","internalType":"uint256"},{"name":"tokenId","type":"uint256","internalType":"uint256"},{"name":"seller","type":"address","internalType":"address"},{"name":"startingPrice","type":"uint256","internalType":"uint256"},{"name":"ethStartingPrice","type":"uint256","internalType":"uint256"},{"name":"reservePrice","type":"uint256","internalType":"uint256"},{"name":"currentBid","type":"uint256","internalType":"uint256"},{"name":"currentBidder","type":"address","internalType":"address"},{"name":"startTime","type":"uint256","internalType":"uint256"},{"name":"endTime","type":"uint256","internalType":"uint256"},{"name":"status","type":"uint8","internalType":"enum Marketplace.AuctionStatus"},{"name":"acceptsEth","type":"bool","internalType":"bool"},{"name":"isEthBid","type":"bool","internalType":"bool"}],"stateMutability":"view"},{"type":"function","name":"buyTicket","inputs":[{"name":"listingId","type":"uint256","internalType":"uint256"}],"outputs":[],"stateMutability":"nonpayable"},{"type":"function","name":"buyTicketWithEth","inputs":[{"name":"listingId","type":"uint256","internalType":"uint256"}],"outputs":[],"stateMutability":"payable"},{"type":"function","name":"cancelListing","inputs":[{"name":"listingId","type":"uint256","internalType":"uint256"}],"outputs":[],"stateMutability":"nonpayable"},{"type":"function","name":"cleanupExpiredListings","inputs":[{"name":"listingIds","type":"uint256[]","internalType":"uint256[]"}],"outputs":[],"stateMutability":"nonpayable"},{"type":"function","name":"createAuction","inputs":[{"name":"tokenId","type":"uint256","internalType":"uint256"},{"name":"startingPrice","type":"uint256","internalType":"uint256"},{"name":"ethStartingPrice","type":"uint256","internalType":"uint256"},{"name":"reservePrice","type":"uint256","internalType":"uint256"},{"name":"duration","type":"uint256","internalType":"uint256"},{"name":"acceptsEth","type":"bool","internalType":"bool"}],"outputs":[{"name":"","type":"uint256","internalType":"uint256"}],"stateMutability":"nonpayable"},{"type":"function","name":"createListing","inputs":[{"name":"tokenId","type":"uint256","internalType":"uint256"},{"name":"price","type":"uint256","internalType":"uint256"},{"name":"ethPrice","type":"uint256","internalType":"uint256"},{"name":"duration","type":"uint256","internalType":"uint256"},{"name":"acceptsEth","type":"bool","internalType":"bool"}],"outputs":[{"name":"","type":"uint256","internalType":"uint256"}],"stateMutability":"nonpayable"},{"type":"function","name":"emergencyWithdraw","inputs":[{"name":"token","type":"address","internalType":"address"},{"name":"to","type":"address","internalType":"address"},{"name":"amount","type":"uint256","internalType":"uint256"}],"outputs":[],"stateMutability":"nonpayable"},{"type":"function","name":"eventManager","inputs":[],"outputs":[{"name":"","type":"address","internalType":"contract EventManager"}],"stateMutability":"view"},{"type":"function","name":"getActiveListings","inputs":[{"name":"offset","type":"uint256","internalType":"uint256"},{"name":"limit","type":"uint256","internalType":"uint256"}],"outputs":[{"name":"activeListings","type":"uint256[]","internalType":"uint256[]"}],"stateMutability":"view"},{"type":"function","name":"getListingInfo","inputs":[{"name":"listingId","type":"uint256","internalType":"uint256"}],"outputs":[{"name":"tokenId","type":"uint256","internalType":"uint256"},{"name":"seller","type":"address","internalType":"address"},{"name":"price","type":"uint256","internalType":"uint256"},{"name":"ethPrice","type":"uint256","internalType":"uint256"},{"name":"createdAt","type":"uint256","internalType":"uint256"},{"name":"expiresAt","type":"uint256","internalType":"uint256"},{"name":"status","type":"uint8","internalType":"enum Marketplace.ListingStatus"},{"name":"acceptsEth","type":"bool","internalType":"bool"}],"stateMutability":"view"},{"type":"function","name":"getUserListings","inputs":[{"name":"user","type":"address","internalType":"address"}],"outputs":[{"name":"","type":"uint256[]","internalType":"uint256[]"}],"stateMutability":"view"},{"type":"function","name":"listings","inputs":[{"name":"","type":"uint256","internalType":"uint256"}],"outputs":[{"name":"listingId","type":"uint256","internalType":"uint256"},{"name":"tokenId","type":"uint256","internalType":"uint256"},{"name":"seller","type":"address","internalType":"address"},{"name":"price","type":"uint256","internalType":"uint256"},{"name":"ethPrice","type":"uint256","internalType":"uint256"},{"name":"createdAt","type":"uint256","internalType":"uint256"},{"name":"expiresAt","type":"uint256","internalType":"uint256"},{"name":"status","type":"uint8","internalType":"enum Marketplace.ListingStatus"},{"name":"acceptsEth","type":"bool","internalType":"bool"}],"stateMutability":"view"},{"type":"function","name":"maxAuctionDuration","inputs":[],"outputs":[{"name":"","type":"uint256","internalType":"uint256"}],"stateMutability":"view"},{"type":"function","name":"maxListingDuration","inputs":[],"outputs":[{"name":"","type":"uint256","internalType":"uint256"}],"stateMutability":"view"},{"type":"function","name":"minAuctionDuration","inputs":[],"outputs":[{"name":"","type":"uint256","internalType":"uint256"}],"stateMutability":"view"},{"type":"function","name":"minListingDuration","inputs":[],"outputs":[{"name":"","type":"uint256","internalType":"uint256"}],"stateMutability":"view"},{"type":"function","name":"onERC721Received","inputs":[{"name":"","type":"address","internalType":"address"},{"name":"","type":"address","internalType":"address"},{"name":"","type":"uint256","internalType":"uint256"},{"name":"","type":"bytes","internalType":"bytes"}],"outputs":[{"name":"","type":"bytes4","internalType":"bytes4"}],"stateMutability":"pure"},{"type":"function","name":"owner","inputs":[],"outputs":[{"name":"","type":"address","internalType":"address"}],"stateMutability":"view"},{"type":"function","name":"pause","inputs":[],"outputs":[],"stateMutability":"nonpayable"},{"type":"function","name":"paused","inputs":[],"outputs":[{"name":"","type":"bool","internalType":"bool"}],"stateMutability":"view"},{"type":"function","name":"platformFeeRate","inputs":[],"outputs":[{"name":"","type":"uint256","internalType":"uint256"}],"stateMutability":"view"},{"type":"function","name":"platformToken","inputs":[],"outputs":[{"name":"","type":"address","internalType":"contract IERC20"}],"stateMutability":"view"},{"type":"function","name":"renounceOwnership","inputs":[],"outputs":[],"stateMutability":"nonpayable"},{"type":"function","name":"setAuctionDurationLimits","inputs":[{"name":"minDuration","type":"uint256","internalType":"uint256"},{"name":"maxDuration","type":"uint256","internalType":"uint256"},{"name":"extensionTime","type":"uint256","internalType":"uint256"}],"outputs":[],"stateMutability":"nonpayable"},{"type":"function","name":"setListingDurationLimits","inputs":[{"name":"minDuration","type":"uint256","internalType":"uint256"},{"name":"maxDuration","type":"uint256","internalType":"uint256"}],"outputs":[],"stateMutability":"nonpayable"},{"type":"function","name":"setPlatformFeeRate","inputs":[{"name":"feeRate","type":"uint256","internalType":"uint256"}],"outputs":[],"stateMutability":"nonpayable"},{"type":"function","name":"ticketManager","inputs":[],"outputs":[{"name":"","type":"address","internalType":"contract TicketManager"}],"stateMutability":"view"},{"type":"function","name":"tokenToAuction","inputs":[{"name":"","type":"uint256","internalType":"uint256"}],"outputs":[{"name":"","type":"uint256","internalType":"uint256"}],"stateMutability":"view"},{"type":"function","name":"tokenToListing","inputs":[{"name":"","type":"uint256","internalType":"uint256"}],"outputs":[{"name":"","type":"uint256","internalType":"uint256"}],"stateMutability":"view"},{"type":"function","name":"totalEthPlatformFees","inputs":[],"outputs":[{"name":"","type":"uint256","internalType":"uint256"}],"stateMutability":"view"},{"type":"function","name":"totalPlatformFees","inputs":[],"outputs":[{"name":"","type":"uint256","internalType":"uint256"}],"stateMutability":"view"},{"type":"function","name":"transferOwnership","inputs":[{"name":"newOwner","type":"address","internalType":"address"}],"outputs":[],"stateMutability":"nonpayable"},{"type":"function","name":"unpause","inputs":[],"outputs":[],"stateMutability":"nonpayable"},{"type":"function","name":"updateListing","inputs":[{"name":"listingId","type":"uint256","internalType":"uint256"},{"name":"newPrice","type":"uint256","internalType":"uint256"},{"name":"newEthPrice","type":"uint256","internalType":"uint256"},{"name":"newDuration","type":"uint256","internalType":"uint256"}],"outputs":[],"stateMutability":"nonpayable"},{"type":"function","name":"userAuctions","inputs":[{"name":"","type":"address","internalType":"address"},{"name":"","type":"uint256","internalType":"uint256"}],"outputs":[{"name":"","type":"uint256","internalType":"uint256"}],"stateMutability":"view"},{"type":"function","name":"userBidBalance","inputs":[{"name":"","type":"address","internalType":"address"}],"outputs":[{"name":"","type":"uint256","internalType":"uint256"}],"stateMutability":"view"},{"type":"function","name":"userEthBidBalance","inputs":[{"name":"","type":"address","internalType":"address"}],"outputs":[{"name":"","type":"uint256","internalType":"uint256"}],"stateMutability":"view"},{"type":"function","name":"userListings","inputs":[{"name":"","type":"address","internalType":"address"},{"name":"","type":"uint256","internalType":"uint256"}],"outputs":[{"name":"","type":"uint256","internalType":"uint256"}],"stateMutability":"view"},{"type":"function","name":"withdrawPlatformFees","inputs":[{"name":"isEth","type":"bool","internalType":"bool"},{"name":"amount","type":"uint256","internalType":"uint256"}],"outputs":[],"stateMutability":"nonpayable"},{"type":"event","name":"AuctionCancelled","inputs":[{"name":"auctionId","type":"uint256","indexed":true,"internalType":"uint256"}],"anonymous":false},{"type":"event","name":"AuctionCreated","inputs":[{"name":"auctionId","type":"uint256","indexed":true,"internalType":"uint256"},{"name":"tokenId","type":"uint256","indexed":true,"internalType":"uint256"},{"name":"seller","type":"address","indexed":true,"internalType":"address"},{"name":"startingPrice","type":"uint256","indexed":false,"internalType":"uint256"},{"name":"ethStartingPrice","type":"uint256","indexed":false,"internalType":"uint256"},{"name":"reservePrice","type":"uint256","indexed":false,"internalType":"uint256"},{"name":"endTime","type":"uint256","indexed":false,"internalType":"uint256"}],"anonymous":false},{"type":"event","name":"AuctionEnded","inputs":[{"name":"auctionId","type":"uint256","indexed":true,"internalType":"uint256"},{"name":"tokenId","type":"uint256","indexed":true,"internalType":"uint256"},{"name":"winner","type":"address","indexed":true,"internalType":"address"},{"name":"winningBid","type":"uint256","indexed":false,"internalType":"uint256"},{"name":"isEthBid","type":"bool","indexed":false,"internalType":"bool"}],"anonymous":false},{"type":"event","name":"BidBalanceDeposited","inputs":[{"name":"user","type":"address","indexed":true,"internalType":"address"},{"name":"amount","type":"uint256","indexed":false,"internalType":"uint256"},{"name":"isEth","type":"bool","indexed":false,"internalType":"bool"}],"anonymous":false},{"type":"event","name":"BidBalanceWithdrawn","inputs":[{"name":"user","type":"address","indexed":true,"internalType":"address"},{"name":"amount","type":"uint256","indexed":false,"internalType":"uint256"},{"name":"isEth","type":"bool","indexed":false,"internalType":"bool"}],"anonymous":false},{"type":"event","name":"BidPlaced","inputs":[{"name":"auctionId","type":"uint256","indexed":true,"internalType":"uint256"},{"name":"bidder","type":"address","indexed":true,"internalType":"address"},{"name":"amount","type":"uint256","indexed":false,"internalType":"uint256"},{"name":"isEth","type":"bool","indexed":false,"internalType":"bool"}],"anonymous":false},{"type":"event","name":"ListingCancelled","inputs":[{"name":"listingId","type":"uint256","indexed":true,"internalType":"uint256"}],"anonymous":false},{"type":"event","name":"ListingCreated","inputs":[{"name":"listingId","type":"uint256","indexed":true,"internalType":"uint256"},{"name":"tokenId","type":"uint256","indexed":true,"internalType":"uint256"},{"name":"seller","type":"address","indexed":true,"internalType":"address"},{"name":"price","type":"uint256","indexed":false,"internalType":"uint256"},{"name":"ethPrice","type":"uint256","indexed":false,"internalType":"uint256"},{"name":"expiresAt","type":"uint256","indexed":false,"internalType":"uint256"}],"anonymous":false},{"type":"event","name":"ListingUpdated","inputs":[{"name":"listingId","type":"uint256","indexed":true,"internalType":"uint256"},{"name":"newPrice","type":"uint256","indexed":false,"internalType":"uint256"},{"name":"newEthPrice","type":"uint256","indexed":false,"internalType":"uint256"},{"name":"newExpiresAt","type":"uint256","indexed":false,"internalType":"uint256"}],"anonymous":false},{"type":"event","name":"OwnershipTransferred","inputs":[{"name":"previousOwner","type":"address","indexed":true,"internalType":"address"},{"name":"newOwner","type":"address","indexed":true,"internalType":"address"}],"anonymous":false},{"type":"event","name":"Paused","inputs":[{"name":"account","type":"address","indexed":false,"internalType":"address"}],"anonymous":false},{"type":"event","name":"TicketSold","inputs":[{"name":"listingId","type":"uint256","indexed":true,"internalType":"uint256"},{"name":"tokenId","type":"uint256","indexed":true,"internalType":"uint256"},{"name":"buyer","type":"address","indexed":true,"internalType":"address"},{"name":"seller","type":"address","indexed":false,"internalType":"address"},{"name":"price","type":"uint256","indexed":false,"internalType":"uint256"},{"name":"paidWithEth","type":"bool","indexed":false,"internalType":"bool"}],"anonymous":false},{"type":"event","name":"Unpaused","inputs":[{"name":"account","type":"address","indexed":false,"internalType":"address"}],"anonymous":false},{"type":"error","name":"EnforcedPause","inputs":[]},{"type":"error","name":"ExpectedPause","inputs":[]},{"type":"error","name":"OwnableInvalidOwner","inputs":[{"name":"owner","type":"address","internalType":"address"}]},{"type":"error","name":"OwnableUnauthorizedAccount","inputs":[{"name":"account","type":"address","internalType":"address"}]},{"type":"error","name":"ReentrancyGuardReentrantCall","inputs":[]}],"bytecode":{"object":"0x60e0346200029657601f620030b538819003918201601f191683019291906001600160401b038411838510176200029a57816080928492604096875283398101031262000296576200005181620002ae565b906200006060208201620002ae565b916200007c606062000074868501620002ae565b9301620002ae565b6001600160a01b039182169390929084156200027f575f80546001600160a01b031981168717825587519685939290918416907f8be0079c531659141344cd1fd0a4f28419497f9722a3daafe3b4186f6b6457e09080a36001805560fa600e55610e1080600f5562278d0060105560115562093a80601255610258601355169384156200023157508116918215620001e25716918215620001925760805260a05260c0526001600355600160045551612df19081620002c482396080518181816105270152818161086901528181610d710152818161188301528181611b9401528181611f14015281816127720152612c23015260a05181611058015260c051818181610cbe015281816115db01526116fd0152f35b835162461bcd60e51b815260206004820152602360248201527f4d61726b6574706c6163653a20696e76616c696420706c6174666f726d20746f60448201526235b2b760e91b6064820152608490fd5b845162461bcd60e51b815260206004820152602260248201527f4d61726b6574706c6163653a20696e76616c6964206576656e74206d616e616760448201526132b960f11b6064820152608490fd5b62461bcd60e51b815260206004820152602360248201527f4d61726b6574706c6163653a20696e76616c6964207469636b6574206d616e6160448201526233b2b960e91b6064820152608490fd5b8551631e4fbdf760e01b81525f6004820152602490fd5b5f80fd5b634e487b7160e01b5f52604160045260245ffd5b51906001600160a01b0382168203620002965756fe6080604052600436101561001a575b3615610018575f80fd5b005b5f3560e01c8063150b7a02146102b95780631712ab19146102b457806328ea0a34146102af5780632b0e0472146102aa578063305a67a8146102a55780633f4ba83a146102a057806348c9581e1461029b5780635413487614610296578063571a26a0146102915780635c975abb1461028c5780635f93de491461028757806367dd74ca14610282578063715018a61461027d57806375acd5f9146102785780638456cb591461027357806386cfa7d31461026e5780638da5cb5b146102695780638fd611be14610264578063927fef2e1461025f578063957d90d41461025a578063b4fbe80a14610255578063b6ef573e14610250578063b85fb0ae1461024b578063b86b3f6514610246578063b931413514610241578063bb19dd081461023c578063c128b23114610237578063c4f0a18014610232578063d02ea1c01461022d578063d1b812cd14610228578063d3631fa514610223578063d7e9f1de1461021e578063dd8f9e3b14610219578063de74e57b14610214578063def050c51461020f578063e63ea4081461020a578063e909015414610205578063ea7eaec614610200578063eb18a9d8146101fb578063eeca08f0146101f6578063f2fde38b146101f15763f96b61cf0361000e57611eff565b611e71565b611e54565b611dce565b611da4565b611b4d565b611a89565b611a6c565b611a00565b611756565b611627565b61160a565b6115c6565b61153e565b611457565b611344565b6112df565b611259565b6111cd565b611192565b611160565b611113565b6110f6565b611087565b611043565b61101c565b610fc1565b610f4e565b610f31565b610eda565b610bb6565b610b3d565b610b07565b610a7e565b6109bd565b6109a0565b610937565b6107bd565b6104dd565b610498565b610345565b6102d3565b6001600160a01b038116036102cf57565b5f80fd5b346102cf5760803660031901126102cf576102ef6004356102be565b6102fa6024356102be565b60643567ffffffffffffffff8082116102cf57366023830112156102cf5781600401359081116102cf57369101602401116102cf57604051630a85bd0160e11b8152602090f35b0390f35b346102cf5760803660031901126102cf576004357f249b4fd7f31ce1b27cdf920c73f8526880c641036b50f96dc78f49d5166f585360443560243561044360066064358615158061048d575b61039a90611f43565b865f5260056020526103bf60ff600760405f200154166103b981611205565b15611f9b565b6103c7612a4d565b6103d9875f52600560205260405f2090565b60028101549091906103fe906001600160a01b03166001600160a01b03163314611fe7565b8415801590610484575b61041190612033565b8460038301558560048301558061044f575b500154604051938493846040919493926060820195825260208201520152565b0390a261001860018055565b61046e90600f5481101580610478575b6104689061207f565b426120df565b828201555f610423565b5060105481111561045f565b50851515610408565b506003548710610391565b346102cf5760203660031901126102cf576004356104b5816102be565b60018060a01b03165f52600c602052602060405f2054604051908152f35b801515036102cf57565b346102cf5760c03660031901126102cf5760443560a435602435600435608435606435610509856104d3565b6040516331a9108f60e11b8152600481018490526001600160a01b037f00000000000000000000000000000000000000000000000000000000000000008116929190602082602481875afa9081156107725761056f925f9261078c575b5016331461211f565b610577612a4d565b61057f612a70565b8415801590610783575b6105929061216b565b60115483101580610777575b6105a79061207f565b6105c36105bc855f52600660205260405f2090565b54156121c3565b6105df6105d8855f52600860205260405f2090565b541561221a565b6105e884612c04565b813b156102cf57604051632142170760e11b815233600482015230602482015260448101859052915f908390606490829084905af19687156107725761073d610671977f144ef2fd3204f1b63e5da3127c66329b5641765788e2a809b0a43317a02ee25d946103419a610759575b506106eb600454998a9761046861066c8a612275565b600455565b916106cd61067d6114c3565b898152602081018b9052336040820152918b60608401528660808401528760a08401525f60c08401525f60e084015242610100840152846101208401525f61014084015261016083019015159052565b5f6101808201526106e6885f52600760205260405f2090565b61229b565b856106fe885f52600860205260405f2090565b55335f908152600b602052604090206107189087906123b3565b6040519384933399859094939260609260808301968352602083015260408201520152565b0390a461074960018055565b6040519081529081906020820190565b8061076661076c92611488565b8061092d565b5f610656565b612114565b5060125483111561059e565b50861515610589565b6107af91925060203d6020116107b6575b6107a781836114a1565b8101906120fc565b905f610566565b503d61079d565b346102cf5760203660031901126102cf5760043580151580610922575b6107e390611f43565b805f52600560205261080260ff600760405f200154166103b981611205565b61080a612a4d565b61081c815f52600560205260405f2090565b60028101805490916001600160a01b0391610896916001916108419085163314611fe7565b60078101805460ff1916600217905501915f61086684545f52600660205260405f2090565b557f000000000000000000000000000000000000000000000000000000000000000016925460018060a01b031690565b9054823b156102cf57604051632142170760e11b81523060048201526001600160a01b039290921660248301526044820152905f908290606490829084905af180156107725761090f575b507f411aee90354c51b1b04cd563fcab2617142a9d50da19232d888547c8a1b7fd8a5f80a261001860018055565b8061076661091c92611488565b5f6108e1565b5060035481106107da565b5f9103126102cf57565b346102cf575f3660031901126102cf5761094f612d90565b60025460ff81161561098e5760ff19166002557f5db9ee0a495bf2e6ff9c91a7834c1ba4fdd244a5e8aa4e537bd38aeae4b073aa6020604051338152a1005b604051638dfc202b60e01b8152600490fd5b346102cf575f3660031901126102cf576020601254604051908152f35b346102cf575f3660031901126102cf576020601154604051908152f35b634e487b7160e01b5f52602160045260245ffd5b600311156109f857565b6109da565b989693909d9c9a9b999794919592956101a08a019e8a5260208a015260018060a01b0380961660408a01526060890152608088015260a087015260c08601521660e084015261010083015261012082015260038410156109f857610a7461018092610a7c9561014084015261016083019015159052565b019015159052565b565b346102cf5760203660031901126102cf576004355f52600760205260405f20805461034160018301549160018060a01b03806002860154169360038601549560048101549260058201549060068301549060078401541690600884015492600a6009860154950154966040519b8c9b8c9860ff8b60101c169b60ff808d60081c169c169a6109fd565b346102cf575f3660031901126102cf57602060ff600254166040519015158152f35b634e487b7160e01b5f52603260045260245ffd5b346102cf5760403660031901126102cf576024356004355f52600960205260405f2080548210156102cf575f908152602090819020600292831b018054600182015493820154600390920154604080516001600160a01b039093168352938201949094529182015260ff90911615156060820152608090f35b346102cf576020806003193601126102cf576004359081151580610ecf575b610bde90611f43565b815f5260058152610bfc60ff600760405f200154166103b981611205565b610c04612a4d565b610c0c612a70565b610c1e825f52600560205260405f2090565b91600383015492610c30841515612404565b610c406006820154421115612461565b600281018054909390610c6f90610c67906001600160a01b03165b6001600160a01b031690565b3314156124ad565b610c86610c7e600e5487612504565b612710900490565b90610c918287612517565b6040516323b872dd60e01b8152336004820152306024820152604481018890526001600160a01b039390917f0000000000000000000000000000000000000000000000000000000000000000851684846064815f855af193841561077257610d148694610d0c610d5297610d19945f91610eb2575b50612544565b6014546120df565b601455565b885460405163a9059cbb60e01b81526001600160a01b0390911660048201526024810192909252909283919082905f9082906044820190565b03925af190811561077257610d6f925f92610e85575b5050612590565b7f000000000000000000000000000000000000000000000000000000000000000016906001810190815492803b156102cf57604051632142170760e11b815230600482015233602482015260448101949094525f908490606490829084905af191821561077257610e196007610e3d937fa410290ff7e294ca8420d7bdd774b13d828fe479e7cab826450d774e0fb0658096610e6696610e72575b5001805460ff19166001179055565b5f610e2d82545f52600660205260405f2090565b555494546001600160a01b031690565b946040519182913397836040905f929493606082019560018060a01b0316825260208201520152565b0390a461001860018055565b80610766610e7f92611488565b5f610e0a565b610ea49250803d10610eab575b610e9c81836114a1565b81019061252f565b5f80610d68565b503d610e92565b610ec99150883d8a11610eab57610e9c81836114a1565b5f610d06565b506003548210610bd5565b346102cf575f3660031901126102cf57610ef2612d90565b5f80546001600160a01b0319811682556001600160a01b03167f8be0079c531659141344cd1fd0a4f28419497f9722a3daafe3b4186f6b6457e08280a3005b346102cf575f3660031901126102cf576020601354604051908152f35b346102cf575f3660031901126102cf57610f66612d90565b610f6e612a70565b600160ff1960025416176002557f62e78cea01bee320cd4e420270b5ea74000d11b0c9f74754ebdbfc544b05a2586020604051338152a1005b8054821015610fbc575f5260205f2001905f90565b610b29565b346102cf5760403660031901126102cf57600435610fde816102be565b6001600160a01b03165f908152600a60205260409020805460243591908210156102cf5760209161100e91610fa7565b90546040519160031b1c8152f35b346102cf575f3660031901126102cf575f546040516001600160a01b039091168152602090f35b346102cf575f3660031901126102cf576040517f00000000000000000000000000000000000000000000000000000000000000006001600160a01b03168152602090f35b346102cf5760203660031901126102cf576004356110a3612d90565b6103e881116110b157600e55005b60405162461bcd60e51b815260206004820152601e60248201527f4d61726b6574706c6163653a20666565207261746520746f6f206869676800006044820152606490fd5b346102cf575f3660031901126102cf576020600f54604051908152f35b346102cf5760403660031901126102cf57600435611130816102be565b6001600160a01b03165f908152600b60205260409020805460243591908210156102cf5760209161100e91610fa7565b346102cf5760403660031901126102cf5760243560043561117f612d90565b61118a8282106125e8565b600f55601055005b346102cf5760203660031901126102cf576004356111af816102be565b60018060a01b03165f52600d602052602060405f2054604051908152f35b346102cf5760603660031901126102cf576024356004356111ec612d90565b6111f78282106125e8565b601155601255604435601355005b600411156109f857565b969390989794919260e0969361010089019a895260018060a01b0316602089015260408801526060870152608086015260a085015261124d81611205565b60c08401521515910152565b346102cf5760203660031901126102cf57600435801515806112d4575b61127f90611f43565b5f52600560205260405f2060018101549061034160018060a01b03600283015416916003810154936004820154916005810154600760068301549201549360405197889760ff808860081c169716958961120f565b506003548110611276565b346102cf5760203660031901126102cf576004355f526008602052602060405f2054604051908152f35b60209060206040818301928281528551809452019301915f5b828110611330575050505090565b835185529381019392810192600101611322565b346102cf5760403660031901126102cf576004356024356113686064821115612640565b6113718161268c565b905f925f600192836001600354915b611396575b878752604051806103418982611309565b8181108061144e575b15611449576113c360076113bb835f52600560205260405f2090565b015460ff1690565b6113cc81611205565b158061142a575b6113e7575b6113e190612275565b85611380565b9284811015611405575b6113fd6113e191612275565b9390506113d8565b966113fd611421828661141b6113e1958c6126be565b52612275565b989150506113f1565b50600661143f825f52600560205260405f2090565b01544211156113d3565b611385565b5082881061139f565b346102cf575f3660031901126102cf576020601554604051908152f35b634e487b7160e01b5f52604160045260245ffd5b67ffffffffffffffff811161149c57604052565b611474565b90601f8019910116810190811067ffffffffffffffff82111761149c57604052565b604051906101a0820182811067ffffffffffffffff82111761149c57604052565b60405190610120820182811067ffffffffffffffff82111761149c57604052565b60405190610180820182811067ffffffffffffffff82111761149c57604052565b67ffffffffffffffff811161149c5760051b60200190565b346102cf576020806003193601126102cf5760043567ffffffffffffffff81116102cf57366023820112156102cf5780600401359061157c82611526565b9161158a60405193846114a1565b8083526024602084019160051b830101913683116102cf57602401905b8282106115b757610018846126d2565b813581529084019084016115a7565b346102cf575f3660031901126102cf576040517f00000000000000000000000000000000000000000000000000000000000000006001600160a01b03168152602090f35b346102cf575f3660031901126102cf576020601454604051908152f35b346102cf5760403660031901126102cf57600435611644816104d3565b60243590611650612d90565b156116a9575f80808361167a611675839660155461167081831115612814565b612517565b601555565b815461169090610c5b906001600160a01b031681565b8282156116a0575bf11561077257005b506108fc611698565b6020816116c5610d146116f89460145461167081831115612814565b5f5460405163a9059cbb60e01b81526001600160a01b039091166004820152602481019190915291829081906044820190565b03815f7f00000000000000000000000000000000000000000000000000000000000000006001600160a01b03165af1801561077257610018915f9161173d5750612544565b610ec9915060203d602011610eab57610e9c81836114a1565b60203660031901126102cf57600435801515806119a4575b61177790611f43565b805f52600560205261179660ff600760405f200154166103b981611205565b61179e612a4d565b6117a6612a70565b6117b8815f52600560205260405f2090565b60078101916117cc835460ff9060081c1690565b80611997575b6117db9061286a565b6117eb6006830154421115612461565b60028201805490929061180a90610c67906001600160a01b0316610c5b565b60048101549361181c853410156128c5565b61182b610c7e600e5487612504565b6118358187612517565b9086341161196c575b5f80809361185261167583956015546120df565b885461186890610c5b906001600160a01b031681565b828215611963575bf1156107725760019190910180549091907f00000000000000000000000000000000000000000000000000000000000000006001600160a01b0316803b156102cf57604051632142170760e11b815230600482015233602482015260448101929092525f908290606490829084905af192831561077257610e19610e6693611927937fa410290ff7e294ca8420d7bdd774b13d828fe479e7cab826450d774e0fb0658096611950575b50805460ff19166001179055565b9460405191829133978360409060019294936060820195848060a01b0316825260208201520152565b8061076661195d92611488565b5f611919565b506108fc611870565b5f80808061197a8b34612517565b81811561198e575b3390f161183e57612114565b506108fc611982565b50600482015415156117d2565b50600354811061176e565b979491926101009794919a9996936101208a019b8a5260208a015260018060a01b031660408901526060880152608087015260a086015260c08501526119f481611205565b60e08401521515910152565b346102cf5760203660031901126102cf576004355f52600560205260405f2080549061034160018201549160018060a01b03600282015416936003820154916004810154600582015490600760068401549301549460405198899860ff808960081c169816968a6119af565b346102cf575f3660031901126102cf576020601054604051908152f35b346102cf5760603660031901126102cf57600435611aa6816102be565b60243590611ab3826102be565b60443591611abf612d90565b6001600160a01b0381811692611ad684151561291b565b169081611af45750505f80809381938282156116a057f11561077257005b60405163a9059cbb60e01b81526001600160a01b03919091166004820152602481019390935260209150829060449082905f905af1801561077257611b3557005b6100189060203d602011610eab57610e9c81836114a1565b346102cf5760a03660031901126102cf57604435608435602435600435606435611b76846104d3565b6040516331a9108f60e11b8152600481018390526001600160a01b037f000000000000000000000000000000000000000000000000000000000000000081169591906020826024818a5afa90811561077257611bdb925f9261078c575016331461211f565b611be3612a4d565b611beb612a70565b8315801590611d9b575b611bfe90612033565b600f5482101580611d8f575b611c139061207f565b611c286105bc845f52600660205260405f2090565b611c44611c3d845f52600860205260405f2090565b5415612975565b611c4d83612c04565b843b156102cf57604051632142170760e11b815233600482015230602482015260448101849052945f908690606490829084905af19081156107725761034196611cd3967fd968a91d52e5a29d0c78a691dd966f3c5b5a67f602f9daa9d7a3bea03fb905cd93611d7c575b50611d31600354978895610468611cce88612275565b600355565b92611d1a611cdf6114e4565b87815260208101899052336040820152918960608401528460808401524260a08401528560c08401525f60e084015261010083019015159052565b611d2c865f52600560205260405f2090565b6129c1565b83611d44865f52600660205260405f2090565b55335f908152600a60205260409020611d5e9085906123b3565b6040805196875260208701919091528501523393806060810161073d565b80610766611d8992611488565b5f611cb8565b50601054821115611c0a565b50851515611bf5565b346102cf5760203660031901126102cf576004355f526006602052602060405f2054604051908152f35b346102cf576020806003193601126102cf57600435611dec816102be565b6001600160a01b03165f908152600a6020908152604080832090518154808252918452828420928101949093905b828210611e3d5761034185611e31818903826114a1565b60405191829182611309565b835486529485019460019384019390910190611e1a565b346102cf575f3660031901126102cf576020600e54604051908152f35b346102cf5760203660031901126102cf57600435611e8e816102be565b611e96612d90565b6001600160a01b03908116908115611ee7575f54826bffffffffffffffffffffffff60a01b8216175f55167f8be0079c531659141344cd1fd0a4f28419497f9722a3daafe3b4186f6b6457e05f80a3005b604051631e4fbdf760e01b81525f6004820152602490fd5b346102cf575f3660031901126102cf576040517f00000000000000000000000000000000000000000000000000000000000000006001600160a01b03168152602090f35b15611f4a57565b60405162461bcd60e51b815260206004820152602360248201527f4d61726b6574706c6163653a206c697374696e6720646f6573206e6f742065786044820152621a5cdd60ea1b6064820152608490fd5b15611fa257565b60405162461bcd60e51b815260206004820152601f60248201527f4d61726b6574706c6163653a206c697374696e67206e6f7420616374697665006044820152606490fd5b15611fee57565b60405162461bcd60e51b815260206004820152601760248201527f4d61726b6574706c6163653a206e6f742073656c6c65720000000000000000006044820152606490fd5b1561203a57565b60405162461bcd60e51b815260206004820152601a60248201527f4d61726b6574706c6163653a20696e76616c69642070726963650000000000006044820152606490fd5b1561208657565b60405162461bcd60e51b815260206004820152601d60248201527f4d61726b6574706c6163653a20696e76616c6964206475726174696f6e0000006044820152606490fd5b634e487b7160e01b5f52601160045260245ffd5b919082018092116120ec57565b6120cb565b5190610a7c826102be565b908160209103126102cf5751612111816102be565b90565b6040513d5f823e3d90fd5b1561212657565b60405162461bcd60e51b815260206004820152601d60248201527f4d61726b6574706c6163653a206e6f74207469636b6574206f776e65720000006044820152606490fd5b1561217257565b60405162461bcd60e51b815260206004820152602360248201527f4d61726b6574706c6163653a20696e76616c6964207374617274696e6720707260448201526269636560e81b6064820152608490fd5b156121ca57565b60405162461bcd60e51b815260206004820152602260248201527f4d61726b6574706c6163653a207469636b657420616c7265616479206c697374604482015261195960f21b6064820152608490fd5b1561222157565b60405162461bcd60e51b815260206004820152602660248201527f4d61726b6574706c6163653a207469636b657420616c726561647920696e20616044820152653ab1ba34b7b760d11b6064820152608490fd5b5f1981146120ec5760010190565b9060038110156109f85760ff80198354169116179055565b81518155602082015160018201556040820151610a7c929161239b9161018091600a916122ef906001600160a01b03165b6002830180546001600160a01b0319166001600160a01b03909216919091179055565b606085015160038201556080850151600482015560a0850151600582015560c0850151600682015560e08501516007820180546001600160a01b0319166001600160a01b0390921691909117905561010085015160088201556101208501516009820155019261236d610140820151612367816109ee565b85612283565b61239461237e610160830151151590565b855461ff00191690151560081b61ff0016178555565b0151151590565b815462ff0000191690151560101b62ff000016179055565b80546801000000000000000081101561149c576123d591600182018155610fa7565b819291549060031b91821b915f19901b1916179055565b906123f681611205565b60ff80198354169116179055565b1561240b57565b60405162461bcd60e51b815260206004820152602860248201527f4d61726b6574706c6163653a20746f6b656e207061796d656e74206e6f7420736044820152671d5c1c1bdc9d195960c21b6064820152608490fd5b1561246857565b60405162461bcd60e51b815260206004820152601c60248201527f4d61726b6574706c6163653a206c697374696e672065787069726564000000006044820152606490fd5b156124b457565b60405162461bcd60e51b815260206004820152602260248201527f4d61726b6574706c6163653a2063616e6e6f7420627579206f776e207469636b604482015261195d60f21b6064820152608490fd5b818102929181159184041417156120ec57565b919082039182116120ec57565b5190610a7c826104d3565b908160209103126102cf5751612111816104d3565b1561254b57565b60405162461bcd60e51b815260206004820152601c60248201527f4d61726b6574706c6163653a207472616e73666572206661696c6564000000006044820152606490fd5b1561259757565b60405162461bcd60e51b815260206004820152602360248201527f4d61726b6574706c6163653a2073656c6c6572207472616e73666572206661696044820152621b195960ea1b6064820152608490fd5b156125ef57565b60405162461bcd60e51b8152602060048201526024808201527f4d61726b6574706c6163653a20696e76616c6964206475726174696f6e206c696044820152636d69747360e01b6064820152608490fd5b1561264757565b60405162461bcd60e51b815260206004820152601b60248201527f4d61726b6574706c6163653a206c696d697420746f6f206869676800000000006044820152606490fd5b9061269682611526565b6126a360405191826114a1565b82815280926126b4601f1991611526565b0190602036910137565b8051821015610fbc5760209160051b010190565b5f5b8151811015612810576126e781836126be565b5180151580612805575b6126ff575b506001016126d4565b612711905f52600560205260405f2090565b9060078201612721815460ff1690565b61272a81611205565b15806127f8575b61273d575b50906126f6565b805460ff19166003179055600182015f61276082545f52600660205260405f2090565b55600292909201546001600160a01b037f000000000000000000000000000000000000000000000000000000000000000081169391169054833b156102cf57604051632142170760e11b81523060048201526001600160a01b039290921660248301526044820152915f908390606490829084905af1918215610772576001921561273657806107666127f292611488565b5f612736565b5060068301544211612731565b5060035481106126f1565b5050565b1561281b57565b60405162461bcd60e51b815260206004820152602160248201527f4d61726b6574706c6163653a20696e73756666696369656e742062616c616e636044820152606560f81b6064820152608490fd5b1561287157565b60405162461bcd60e51b815260206004820152602660248201527f4d61726b6574706c6163653a20455448207061796d656e74206e6f74207375706044820152651c1bdc9d195960d21b6064820152608490fd5b156128cc57565b60405162461bcd60e51b815260206004820152602160248201527f4d61726b6574706c6163653a20696e73756666696369656e74207061796d656e6044820152601d60fa1b6064820152608490fd5b1561292257565b60405162461bcd60e51b815260206004820152602560248201527f4d61726b6574706c6163653a20776974686472617720746f207a65726f206164604482015264647265737360d81b6064820152608490fd5b1561297c57565b60405162461bcd60e51b815260206004820152601e60248201527f4d61726b6574706c6163653a207469636b657420696e2061756374696f6e00006044820152606490fd5b81518155602082015160018201556040820151610a7c9291612a3791610100916007916129f6906001600160a01b03166122cc565b606085015160038201556080850151600482015560a0850151600582015560c08501516006820155019261239460e0820151612a3181611205565b856123ec565b815461ff00191690151560081b61ff0016179055565b600260015414612a5e576002600155565b604051633ee5aeb560e01b8152600490fd5b60ff60025416612a7c57565b60405163d93c066560e01b8152600490fd5b519060048210156102cf57565b919080601f840112156102cf57825167ffffffffffffffff811161149c5760209060405192612ad383601f19601f85011601856114a1565b8184528282870101116102cf575f5b818110612af65750825f9394955001015290565b8581018301518482018401528201612ae2565b15612b1057565b60405162461bcd60e51b8152602060048201526024808201527f4d61726b6574706c6163653a207469636b6574206e6f74207472616e7366657260448201526361626c6560e01b6064820152608490fd5b15612b6857565b60405162461bcd60e51b815260206004820152602260248201527f4d61726b6574706c6163653a20696e76616c6964207469636b65742073746174604482015261757360f01b6064820152608490fd5b15612bbf57565b60405162461bcd60e51b815260206004820152601b60248201527f4d61726b6574706c6163653a207469636b6574206578706972656400000000006044820152606490fd5b604051600162665f9d60e01b0319815260048101919091525f816024817f00000000000000000000000000000000000000000000000000000000000000006001600160a01b03165afa908115610772575f91612ca1575b5060a081612c78612c73610120610a7c950151151590565b612b09565b612c9860c0820151612c8981611205565b612c9281611205565b15612b61565b01514210612bb8565b90503d805f833e612cb281836114a1565b81016020828203126102cf57815167ffffffffffffffff928382116102cf5701610180818303126102cf57612ce5611505565b90805182526020810151602083015260408101516040830152606081015160608301526080810151608083015260a081015160a0830152612d2860c08201612a8e565b60c0830152612d3960e082016120f1565b60e08301526101008082015190830152610120612d57818301612524565b90830152610140808201519485116102cf57612d7a60a094610a7c968401612a9b565b9083015261016080910151908201529150612c5b565b5f546001600160a01b03163303612da357565b60405163118cdaa760e01b8152336004820152602490fdfea26469706673582212200d9403c406a93b9792566e35fbf395d50055776193b81a271972af56bca5ad5864736f6c63430008170033","linkReferences":{}},"methodIdentifiers":{"auctionBids(uint256,uint256)":"5f93de49","auctionExtensionTime()":"75acd5f9","auctions(uint256)":"571a26a0","buyTicket(uint256)":"67dd74ca","buyTicketWithEth(uint256)":"dd8f9e3b","cancelListing(uint256)":"305a67a8","cleanupExpiredListings(uint256[])":"d02ea1c0","createAuction(uint256,uint256,uint256,uint256,uint256,bool)":"2b0e0472","createListing(uint256,uint256,uint256,uint256,bool)":"e9090154","emergencyWithdraw(address,address,uint256)":"e63ea408","eventManager()":"8fd611be","getActiveListings(uint256,uint256)":"c128b231","getListingInfo(uint256)":"b9314135","getUserListings(address)":"eb18a9d8","listings(uint256)":"de74e57b","maxAuctionDuration()":"48c9581e","maxListingDuration()":"def050c5","minAuctionDuration()":"54134876","minListingDuration()":"957d90d4","onERC721Received(address,address,uint256,bytes)":"150b7a02","owner()":"8da5cb5b","pause()":"8456cb59","paused()":"5c975abb","platformFeeRate()":"eeca08f0","platformToken()":"d1b812cd","renounceOwnership()":"715018a6","setAuctionDurationLimits(uint256,uint256,uint256)":"b86b3f65","setListingDurationLimits(uint256,uint256)":"b6ef573e","setPlatformFeeRate(uint256)":"927fef2e","ticketManager()":"f96b61cf","tokenToAuction(uint256)":"bb19dd08","tokenToListing(uint256)":"ea7eaec6","totalEthPlatformFees()":"c4f0a180","totalPlatformFees()":"d3631fa5","transferOwnership(address)":"f2fde38b","unpause()":"3f4ba83a","updateListing(uint256,uint256,uint256,uint256)":"1712ab19","userAuctions(address,uint256)":"b4fbe80a","userBidBalance(address)":"28ea0a34","userEthBidBalance(address)":"b85fb0ae","userListings(address,uint256)":"86cfa7d3","withdrawPlatformFees(bool,uint256)":"d7e9f1de"},"id":59}