{"abi":[{"type":"constructor","inputs":[{"name":"initialOwner","type":"address","internalType":"address"}],"stateMutability":"nonpayable"},{"type":"function","name":"DOMAIN_SEPARATOR","inputs":[],"outputs":[{"name":"","type":"bytes32","internalType":"bytes32"}],"stateMutability":"view"},{"type":"function","name":"MAX_SUPPLY","inputs":[],"outputs":[{"name":"","type":"uint256","internalType":"uint256"}],"stateMutability":"view"},{"type":"function","name":"allowance","inputs":[{"name":"owner","type":"address","internalType":"address"},{"name":"spender","type":"address","internalType":"address"}],"outputs":[{"name":"","type":"uint256","internalType":"uint256"}],"stateMutability":"view"},{"type":"function","name":"approve","inputs":[{"name":"spender","type":"address","internalType":"address"},{"name":"value","type":"uint256","internalType":"uint256"}],"outputs":[{"name":"","type":"bool","internalType":"bool"}],"stateMutability":"nonpayable"},{"type":"function","name":"balanceOf","inputs":[{"name":"account","type":"address","internalType":"address"}],"outputs":[{"name":"","type":"uint256","internalType":"uint256"}],"stateMutability":"view"},{"type":"function","name":"batchMint","inputs":[{"name":"recipients","type":"address[]","internalType":"address[]"},{"name":"amounts","type":"uint256[]","internalType":"uint256[]"}],"outputs":[],"stateMutability":"nonpayable"},{"type":"function","name":"burn","inputs":[{"name":"amount","type":"uint256","internalType":"uint256"}],"outputs":[],"stateMutability":"nonpayable"},{"type":"function","name":"burnFrom","inputs":[{"name":"from","type":"address","internalType":"address"},{"name":"amount","type":"uint256","internalType":"uint256"}],"outputs":[],"stateMutability":"nonpayable"},{"type":"function","name":"decimals","inputs":[],"outputs":[{"name":"","type":"uint8","internalType":"uint8"}],"stateMutability":"view"},{"type":"function","name":"eip712Domain","inputs":[],"outputs":[{"name":"fields","type":"bytes1","internalType":"bytes1"},{"name":"name","type":"string","internalType":"string"},{"name":"version","type":"string","internalType":"string"},{"name":"chainId","type":"uint256","internalType":"uint256"},{"name":"verifyingContract","type":"address","internalType":"address"},{"name":"salt","type":"bytes32","internalType":"bytes32"},{"name":"extensions","type":"uint256[]","internalType":"uint256[]"}],"stateMutability":"view"},{"type":"function","name":"emergencyWithdraw","inputs":[{"name":"token","type":"address","internalType":"address"},{"name":"to","type":"address","internalType":"address"},{"name":"amount","type":"uint256","internalType":"uint256"}],"outputs":[],"stateMutability":"nonpayable"},{"type":"function","name":"mint","inputs":[{"name":"to","type":"address","internalType":"address"},{"name":"amount","type":"uint256","internalType":"uint256"}],"outputs":[],"stateMutability":"nonpayable"},{"type":"function","name":"name","inputs":[],"outputs":[{"name":"","type":"string","internalType":"string"}],"stateMutability":"view"},{"type":"function","name":"nonces","inputs":[{"name":"owner","type":"address","internalType":"address"}],"outputs":[{"name":"","type":"uint256","internalType":"uint256"}],"stateMutability":"view"},{"type":"function","name":"owner","inputs":[],"outputs":[{"name":"","type":"address","internalType":"address"}],"stateMutability":"view"},{"type":"function","name":"pause","inputs":[],"outputs":[],"stateMutability":"nonpayable"},{"type":"function","name":"paused","inputs":[],"outputs":[{"name":"","type":"bool","internalType":"bool"}],"stateMutability":"view"},{"type":"function","name":"permit","inputs":[{"name":"owner","type":"address","internalType":"address"},{"name":"spender","type":"address","internalType":"address"},{"name":"value","type":"uint256","internalType":"uint256"},{"name":"deadline","type":"uint256","internalType":"uint256"},{"name":"v","type":"uint8","internalType":"uint8"},{"name":"r","type":"bytes32","internalType":"bytes32"},{"name":"s","type":"bytes32","internalType":"bytes32"}],"outputs":[],"stateMutability":"nonpayable"},{"type":"function","name":"remainMintableSupply","inputs":[],"outputs":[{"name":"","type":"uint256","internalType":"uint256"}],"stateMutability":"view"},{"type":"function","name":"renounceOwnership","inputs":[],"outputs":[],"stateMutability":"nonpayable"},{"type":"function","name":"symbol","inputs":[],"outputs":[{"name":"","type":"string","internalType":"string"}],"stateMutability":"view"},{"type":"function","name":"totalSupply","inputs":[],"outputs":[{"name":"","type":"uint256","internalType":"uint256"}],"stateMutability":"view"},{"type":"function","name":"transfer","inputs":[{"name":"to","type":"address","internalType":"address"},{"name":"value","type":"uint256","internalType":"uint256"}],"outputs":[{"name":"","type":"bool","internalType":"bool"}],"stateMutability":"nonpayable"},{"type":"function","name":"transferFrom","inputs":[{"name":"from","type":"address","internalType":"address"},{"name":"to","type":"address","internalType":"address"},{"name":"value","type":"uint256","internalType":"uint256"}],"outputs":[{"name":"","type":"bool","internalType":"bool"}],"stateMutability":"nonpayable"},{"type":"function","name":"transferOwnership","inputs":[{"name":"newOwner","type":"address","internalType":"address"}],"outputs":[],"stateMutability":"nonpayable"},{"type":"function","name":"unpause","inputs":[],"outputs":[],"stateMutability":"nonpayable"},{"type":"event","name":"Approval","inputs":[{"name":"owner","type":"address","indexed":true,"internalType":"address"},{"name":"spender","type":"address","indexed":true,"internalType":"address"},{"name":"value","type":"uint256","indexed":false,"internalType":"uint256"}],"anonymous":false},{"type":"event","name":"EIP712DomainChanged","inputs":[],"anonymous":false},{"type":"event","name":"EmergencyWithdraw","inputs":[{"name":"token","type":"address","indexed":true,"internalType":"address"},{"name":"to","type":"address","indexed":true,"internalType":"address"},{"name":"amount","type":"uint256","indexed":false,"internalType":"uint256"}],"anonymous":false},{"type":"event","name":"OwnershipTransferred","inputs":[{"name":"previousOwner","type":"address","indexed":true,"internalType":"address"},{"name":"newOwner","type":"address","indexed":true,"internalType":"address"}],"anonymous":false},{"type":"event","name":"Paused","inputs":[{"name":"account","type":"address","indexed":false,"internalType":"address"}],"anonymous":false},{"type":"event","name":"TokensBurned","inputs":[{"name":"from","type":"address","indexed":true,"internalType":"address"},{"name":"amount","type":"uint256","indexed":false,"internalType":"uint256"}],"anonymous":false},{"type":"event","name":"TokensMinted","inputs":[{"name":"to","type":"address","indexed":true,"internalType":"address"},{"name":"amount","type":"uint256","indexed":false,"internalType":"uint256"}],"anonymous":false},{"type":"event","name":"Transfer","inputs":[{"name":"from","type":"address","indexed":true,"internalType":"address"},{"name":"to","type":"address","indexed":true,"internalType":"address"},{"name":"value","type":"uint256","indexed":false,"internalType":"uint256"}],"anonymous":false},{"type":"event","name":"Unpaused","inputs":[{"name":"account","type":"address","indexed":false,"internalType":"address"}],"anonymous":false},{"type":"error","name":"ECDSAInvalidSignature","inputs":[]},{"type":"error","name":"ECDSAInvalidSignatureLength","inputs":[{"name":"length","type":"uint256","internalType":"uint256"}]},{"type":"error","name":"ECDSAInvalidSignatureS","inputs":[{"name":"s","type":"bytes32","internalType":"bytes32"}]},{"type":"error","name":"ERC20InsufficientAllowance","inputs":[{"name":"spender","type":"address","internalType":"address"},{"name":"allowance","type":"uint256","internalType":"uint256"},{"name":"needed","type":"uint256","internalType":"uint256"}]},{"type":"error","name":"ERC20InsufficientBalance","inputs":[{"name":"sender","type":"address","internalType":"address"},{"name":"balance","type":"uint256","internalType":"uint256"},{"name":"needed","type":"uint256","internalType":"uint256"}]},{"type":"error","name":"ERC20InvalidApprover","inputs":[{"name":"approver","type":"address","internalType":"address"}]},{"type":"error","name":"ERC20InvalidReceiver","inputs":[{"name":"receiver","type":"address","internalType":"address"}]},{"type":"error","name":"ERC20InvalidSender","inputs":[{"name":"sender","type":"address","internalType":"address"}]},{"type":"error","name":"ERC20InvalidSpender","inputs":[{"name":"spender","type":"address","internalType":"address"}]},{"type":"error","name":"ERC2612ExpiredSignature","inputs":[{"name":"deadline","type":"uint256","internalType":"uint256"}]},{"type":"error","name":"ERC2612InvalidSigner","inputs":[{"name":"signer","type":"address","internalType":"address"},{"name":"owner","type":"address","internalType":"address"}]},{"type":"error","name":"EnforcedPause","inputs":[]},{"type":"error","name":"ExpectedPause","inputs":[]},{"type":"error","name":"InvalidAccountNonce","inputs":[{"name":"account","type":"address","internalType":"address"},{"name":"currentNonce","type":"uint256","internalType":"uint256"}]},{"type":"error","name":"InvalidShortString","inputs":[]},{"type":"error","name":"OwnableInvalidOwner","inputs":[{"name":"owner","type":"address","internalType":"address"}]},{"type":"error","name":"OwnableUnauthorizedAccount","inputs":[{"name":"account","type":"address","internalType":"address"}]},{"type":"error","name":"ReentrancyGuardReentrantCall","inputs":[]},{"type":"error","name":"StringTooLong","inputs":[{"name":"str","type":"string","internalType":"string"}]}],"bytecode":{"object":"0x6101603462000584576001600160401b0390601f1990601f90620023d33881900383810185168301929190868411838510176200048e57808392604095865283396020928391810103126200058457516001600160a01b039485821692918390036200058457835194620000738662000588565b60128652828601967127b73634b732aa34b1b5b2ba102a37b5b2b760711b98898952865199620000a38b62000588565b60128b52858b0152865199620000b98b62000588565b60039a8b81526213d51560ea1b8782015288519b8c95620000da8762000588565b886001978881520193603160f81b85528051908682116200048e578354908982811c9216801562000579575b8c83101462000565578b82858594116200050f575b50508b90848311600114620004ae575f92620004a2575b50505f1982851b1c191690881b1782555b8251928584116200048e5760049889548981811c9116801562000483575b8c8210146200047057908b828588979695941162000414575b50508b928511600114620003b057505f93620003a4575b505082871b925f19911b1c19161785555b620001ad89620005a4565b996101209a8b52620001bf8c6200075c565b996101409a8b525190209a8b60e0525190206101009a818c524660a052885191878301917f8b73c3c69bb8fe3d512ecc4cf759cc79239f7b179b0ffacaa9a75d522b39400f83528a84015260608301524660808301523060a083015260a0825260c0820192828410908411176200039157828952815190206080523060c05286156200037b575050600880546001600160a01b0319811687179091558591167f8be0079c531659141344cd1fd0a4f28419497f9722a3daafe3b4186f6b6457e05f80a360095560ff600a54166200036d576002546a52b7d2dcc80cd2e4000000918282018092116200035a5750907f3f2c9d57c068687834f0de942a9babb9e5acab57d516d3480a3c16ee165a42739291600255835f525f8252845f20818154019055835f7fddf252ad1be2c89b69c2b068fc378daa952ba7f163c4a11628f55a4df523b3ef848851858152a38451908152a25191611ac993846200090a8539608051846114f0015260a051846115bc015260c051846114ba015260e0518461153f01525183611565015251826108330152518161085d0152f35b601190634e487b7160e01b5f525260245ffd5b835163d93c066560e01b8152fd5b631e4fbdf760e01b82525f60c490910152602490fd5b604186634e487b7160e01b5f525260245ffd5b015191505f8062000191565b89959392919316928a5f528b5f20935f5b8d828210620003fd5750508511620003e3575b50505050811b018555620001a2565b01519060f8845f19921b161c191690555f808080620003d4565b8385015187558c98909601959384019301620003c1565b909192939495508b5f5284825f209181890160051c830193891062000466575b918c91899897969594930160051c01915b8281106200045757508d91506200017a565b5f81558897508c910162000445565b9250819262000434565b60228b634e487b7160e01b5f525260245ffd5b90607f169062000161565b634e487b7160e01b5f52604160045260245ffd5b015190505f8062000132565b908c918c8c9516875f52835f20935f905b828210620004f75750508411620004df575b505050811b01825562000143565b01515f1983871b60f8161c191690555f8080620004d1565b8385015186558e979095019493840193018f620004bf565b90919250855f5284825f209181860160051c83019386106200055b575b918c91869594930160051c01915b8281106200054c57508d91506200011b565b5f81558594508c91016200053a565b925081926200052c565b634e487b7160e01b5f52602260045260245ffd5b91607f169162000106565b5f80fd5b604081019081106001600160401b038211176200048e57604052565b8051602091908281101562000640575090601f825111620005e15780825192015190808310620005d357501790565b825f19910360031b1b161790565b90604051809263305a27a960e01b82528060048301528251908160248401525f935b82851062000626575050604492505f838284010152601f80199101168101030190fd5b848101820151868601604401529381019385935062000603565b6001600160401b0381116200048e576005928354926001938481811c9116801562000751575b838210146200056557601f81116200071d575b5081601f8411600114620006b757509282939183925f94620006ab575b50501b915f199060031b1c191617905560ff90565b015192505f8062000696565b919083601f198116875f52845f20945f905b88838310620007025750505010620006e9575b505050811b01905560ff90565b01515f1960f88460031b161c191690555f8080620006dc565b858701518855909601959485019487935090810190620006c9565b855f5284601f845f209201871c820191601f8601881c015b8281106200074557505062000679565b5f815501859062000735565b90607f169062000666565b805160209081811015620007e85750601f825111620007895780825192015190808310620005d357501790565b90604051809263305a27a960e01b82528060048301528251908160248401525f935b828510620007ce575050604492505f838284010152601f80199101168101030190fd5b8481018201518686016044015293810193859350620007ab565b906001600160401b0382116200048e57600654926001938481811c91168015620008fe575b838210146200056557601f8111620008c7575b5081601f84116001146200085f57509282939183925f9462000853575b50501b915f199060031b1c19161760065560ff90565b015192505f806200083d565b919083601f19811660065f52845f20945f905b88838310620008ac575050501062000893575b505050811b0160065560ff90565b01515f1960f88460031b161c191690555f808062000885565b85870151885590960195948501948793509081019062000872565b60065f5284601f845f20920160051c820191601f860160051c015b828110620008f257505062000820565b5f8155018590620008e2565b90607f16906200080d56fe608060409080825260049081361015610016575f80fd5b5f3560e01c90816306fdde0314610f7857508063095ea7b314610f4f57806318160ddd14610f3157806323b872dd14610f0b578063313ce56714610ef057806332cb6b0c14610eca5780633644e51514610ea75780633f4ba83a14610e3f57806340c10f1914610db957806342966c6814610d645780635c975abb14610d415780636857310714610b2957806370a0823114610af3578063715018a614610a9857806379cc6790146109ca5780637ecebe00146109935780638456cb591461093a57806384b0196e1461081d57806389549c57146107d35780638da5cb5b146107ab57806395d89b41146106c0578063a9059cbb14610690578063d505accf14610530578063dd62ed3e146104e7578063e63ea408146101cf5763f2fde38b1461013e575f80fd5b346101cb5760203660031901126101cb57610157611085565b906101606115e2565b6001600160a01b039182169283156101b5575050600854826bffffffffffffffffffffffff60a01b821617600855167f8be0079c531659141344cd1fd0a4f28419497f9722a3daafe3b4186f6b6457e05f80a3005b905f6024925191631e4fbdf760e01b8352820152fd5b5f80fd5b50346101cb576101de366110b1565b9092916101e96115e2565b6001600160a01b039081169330851461049857169384156104465783156103f8578484146103a35780516370a0823160e01b81523084820152602093908481602481895afa90811561031b579084915f91610372575b501061032557815163a9059cbb60e01b8152868282015283602482015284816044815f8a5af190811561031b575f916102e5575b50156102a45750519081527ff24ef89f38eadc1bde50701ad6e4d6d11a2dc24f7cf834a486991f38833285049190a3005b83606492519162461bcd60e51b8352820152601e60248201527f506c6174666f726d546f6b656e3a207472616e73666572206661696c656400006044820152fd5b90508481813d8311610314575b6102fc818361117f565b810103126101cb575180151581036101cb575f610273565b503d6102f2565b83513d5f823e3d90fd5b83608492519162461bcd60e51b8352820152602360248201527f506c6174666f726d546f6b656e3a20696e73756666696369656e742062616c616044820152626e636560e81b6064820152fd5b809250868092503d831161039c575b61038b818361117f565b810103126101cb578390515f61023f565b503d610381565b5162461bcd60e51b8152602081840152602a60248201527f506c6174666f726d546f6b656e3a2063616e6e6f742073656e6420746f6b656e604482015269103a379034ba39b2b63360b11b6064820152608490fd5b5162461bcd60e51b81526020818401526024808201527f506c6174666f726d546f6b656e3a20696e76616c696420746f6b656e206164646044820152637265737360e01b6064820152608490fd5b5162461bcd60e51b8152602081840152602760248201527f506c6174666f726d546f6b656e3a20776974686472617720746f207a65726f206044820152666164647265737360c81b6064820152608490fd5b855162461bcd60e51b8152602081860152602360248201527f506c6174666f726d546f6b656e3a2063616e6e6f74207769746864726177207360448201526232b63360e91b6064820152608490fd5b82346101cb57806003193601126101cb57602090610503611085565b61050b61109b565b9060018060a01b038091165f5260018452825f2091165f528252805f20549051908152f35b50346101cb5760e03660031901126101cb5761054a611085565b61055261109b565b906044359260643560843560ff811681036101cb578142116106795760018060a01b039081851692835f526007602052885f209081549160018301905589519060208201927f6e71edae12b1b97f4d1f60370fef10105fa2faae0126114a169c64845d6126c98452868c840152858a1660608401528a608084015260a083015260c082015260c0815260e0810181811067ffffffffffffffff821117610666578a525190206106369161062d916106076114b7565b908b519161190160f01b83526002830152602282015260c43591604260a4359220611983565b90929192611a10565b1681810361064b5761064986868661171a565b005b86516325c0072360e11b815292830152602482015260449150fd5b604187634e487b7160e01b5f525260245ffd5b865163313c898160e11b8152808401839052602490fd5b82346101cb57806003193601126101cb576020906106b96106af611085565b60243590336113d5565b5160018152f35b50346101cb575f3660031901126101cb57815191825f83546106e181611117565b90818452602095600191876001821691825f14610784575050600114610728575b505050610724929161071591038561117f565b51928284938452830190611047565b0390f35b5f90815286935091907f8a35acfbc15ff81a39ae7d344fd709f28e8600b4aa8c65c6b64bfe7fe36bd19b5b82841061076c5750505082010181610715610724610702565b8054848a018601528895508794909301928101610753565b60ff19168782015293151560051b8601909301935084925061071591506107249050610702565b82346101cb575f3660031901126101cb5760085490516001600160a01b039091168152602090f35b5090346101cb575f3660031901126101cb57600254906b033b2e3c9fd0803ce800000091820391821161080a576020925051908152f35b601183634e487b7160e01b5f525260245ffd5b50346101cb575f3660031901126101cb576108577f00000000000000000000000000000000000000000000000000000000000000006117c5565b916108817f00000000000000000000000000000000000000000000000000000000000000006118c6565b815191602091602084019484861067ffffffffffffffff87111761092757506108dc82602092876108cf99989795525f85528151988998600f60f81b8a5260e0868b015260e08a0190611047565b9188830390890152611047565b914660608701523060808701525f60a087015285830360c087015251918281520192915f5b82811061091057505050500390f35b835185528695509381019392810192600101610901565b604190634e487b7160e01b5f525260245ffd5b82346101cb575f3660031901126101cb5760207f62e78cea01bee320cd4e420270b5ea74000d11b0c9f74754ebdbfc544b05a258916109776115e2565b61097f6117a7565b600160ff19600a541617600a5551338152a1005b82346101cb5760203660031901126101cb576020906001600160a01b036109b8611085565b165f5260078252805f20549051908152f35b5090346101cb57806003193601126101cb576109e4611085565b90602435916109f4831515611270565b6001600160a01b038116938415610a47575091602091610a40827ffd38818f5291bf0bb3a2a48aadc06ba8757865d1dabd804585338aab3009dcb695610a3b823383611308565b611673565b51908152a2005b608490602084519162461bcd60e51b8352820152602560248201527f506c6174666f726d546f6b656e3a206275726e2066726f6d207a65726f206164604482015264647265737360d81b6064820152fd5b346101cb575f3660031901126101cb57610ab06115e2565b600880546001600160a01b031981169091555f906001600160a01b03167f8be0079c531659141344cd1fd0a4f28419497f9722a3daafe3b4186f6b6457e08280a3005b82346101cb5760203660031901126101cb576020906001600160a01b03610b18611085565b165f525f8252805f20549051908152f35b5090346101cb57806003193601126101cb5767ffffffffffffffff9082358281116101cb57610b5b90369085016110e6565b90926024359081116101cb57610b7490369086016110e6565b919094610b7f6115e2565b600260095414610d33576002600955828203610ce45760c88211610c9657505f805b838110610c7657506b033b2e3c9fd0803ce8000000610bc5610bcc926002546111f9565b111561121a565b5f5b818110610bdc576001600955005b6001906001600160a01b03610c0681610bfe610bf985888c6112d0565b6112f4565b1615156111a1565b610c29610c17610bf984878b6112d0565b610c2284888c6112d0565b359061160e565b7f3f2c9d57c068687834f0de942a9babb9e5acab57d516d3480a3c16ee165a42736020610c5a610bf985888c6112d0565b92610c6685898d6112d0565b359389519485521692a201610bce565b90610c8f600191610c8884878b6112d0565b35906111f9565b9101610ba1565b608490602085519162461bcd60e51b8352820152602260248201527f506c6174666f726d546f6b656e3a20746f6f206d616e7920726563697069656e604482015261747360f01b6064820152fd5b608490602085519162461bcd60e51b83528201526024808201527f506c6174666f726d546f6b656e3a206172726179206c656e677468206d69736d6044820152630c2e8c6d60e31b6064820152fd5b8351633ee5aeb560e01b8152fd5b82346101cb575f3660031901126101cb5760209060ff600a541690519015158152f35b50346101cb5760203660031901126101cb573590610d83821515611270565b610d8d8233611673565b519081527ffd38818f5291bf0bb3a2a48aadc06ba8757865d1dabd804585338aab3009dcb660203392a2005b82346101cb57806003193601126101cb577f3f2c9d57c068687834f0de942a9babb9e5acab57d516d3480a3c16ee165a42736020610df5611085565b9260243590610e026115e2565b6001600160a01b03851694610a40908390610e1e8815156111a1565b610e3a6b033b2e3c9fd0803ce8000000610bc5846002546111f9565b61160e565b5090346101cb575f3660031901126101cb57610e596115e2565b600a549160ff831615610e99577f5db9ee0a495bf2e6ff9c91a7834c1ba4fdd244a5e8aa4e537bd38aeae4b073aa6020838560ff1916600a5551338152a1005b9051638dfc202b60e01b8152fd5b82346101cb575f3660031901126101cb57602090610ec36114b7565b9051908152f35b82346101cb575f3660031901126101cb57602090516b033b2e3c9fd0803ce80000008152f35b82346101cb575f3660031901126101cb576020905160128152f35b82346101cb576020906106b9610f20366110b1565b91610f2c833383611308565b6113d5565b82346101cb575f3660031901126101cb576020906002549051908152f35b82346101cb57806003193601126101cb576020906106b9610f6e611085565b602435903361171a565b83346101cb575f3660031901126101cb5760035490825f610f9884611117565b808352602094600190866001821691825f14611025575050600114610fca575b5050610724929161071591038561117f565b9085925060035f527fc2575a0e9e593c00f959f8c92f12db2869c3395a3b0502d05e2516446f71f85b915f925b82841061100d5750505082010181610715610fb8565b8054848a018601528895508794909301928101610ff7565b60ff19168682015292151560051b850190920192508391506107159050610fb8565b91908251928382525f5b848110611071575050825f602080949584010152601f8019910116010190565b602081830181015184830182015201611051565b600435906001600160a01b03821682036101cb57565b602435906001600160a01b03821682036101cb57565b60609060031901126101cb576001600160a01b039060043582811681036101cb579160243590811681036101cb579060443590565b9181601f840112156101cb5782359167ffffffffffffffff83116101cb576020808501948460051b0101116101cb57565b90600182811c92168015611145575b602083101461113157565b634e487b7160e01b5f52602260045260245ffd5b91607f1691611126565b6040810190811067ffffffffffffffff82111761116b57604052565b634e487b7160e01b5f52604160045260245ffd5b90601f8019910116810190811067ffffffffffffffff82111761116b57604052565b156111a857565b60405162461bcd60e51b815260206004820152602360248201527f506c6174666f726d546f6b656e3a206d696e7420746f207a65726f206164647260448201526265737360e81b6064820152608490fd5b9190820180921161120657565b634e487b7160e01b5f52601160045260245ffd5b1561122157565b60405162461bcd60e51b815260206004820152602160248201527f506c6174666f726d546f6b656e3a2065786365656473206d617820737570706c6044820152607960f81b6064820152608490fd5b1561127757565b60405162461bcd60e51b815260206004820152602b60248201527f506c6174666f726d546f6b656e3a206275726e20616d6f756e74206d7573742060448201526a626520706f73697469766560a81b6064820152608490fd5b91908110156112e05760051b0190565b634e487b7160e01b5f52603260045260245ffd5b356001600160a01b03811681036101cb5790565b919060018060a01b0380931692835f526001602052604093845f2091831691825f52602052845f2054925f198410611343575b505050505050565b8484106113a55750801561138e578115611377575f526001602052835f20905f5260205203905f20555f808080808061133b565b8451634a1406b160e11b81525f6004820152602490fd5b845163e602df0560e01b81525f6004820152602490fd5b8551637dc7a0d960e11b81526001600160a01b039190911660048201526024810184905260448101859052606490fd5b916001600160a01b0380841692831561149f5716928315611487576113f86117a7565b825f525f60205260405f2054908282106114555750817fddf252ad1be2c89b69c2b068fc378daa952ba7f163c4a11628f55a4df523b3ef92602092855f525f84520360405f2055845f5260405f20818154019055604051908152a3565b60405163391434e360e21b81526001600160a01b03919091166004820152602481019190915260448101829052606490fd5b60405163ec442f0560e01b81525f6004820152602490fd5b604051634b637e8f60e11b81525f6004820152602490fd5b307f00000000000000000000000000000000000000000000000000000000000000006001600160a01b031614806115b9575b15611512577f000000000000000000000000000000000000000000000000000000000000000090565b60405160208101907f8b73c3c69bb8fe3d512ecc4cf759cc79239f7b179b0ffacaa9a75d522b39400f82527f000000000000000000000000000000000000000000000000000000000000000060408201527f000000000000000000000000000000000000000000000000000000000000000060608201524660808201523060a082015260a0815260c0810181811067ffffffffffffffff82111761116b5760405251902090565b507f000000000000000000000000000000000000000000000000000000000000000046146114e9565b6008546001600160a01b031633036115f657565b60405163118cdaa760e01b8152336004820152602490fd5b6001600160a01b0316908115611487577fddf252ad1be2c89b69c2b068fc378daa952ba7f163c4a11628f55a4df523b3ef60205f9261164b6117a7565b611657816002546111f9565b60025584845283825260408420818154019055604051908152a3565b91906001600160a01b03831690811561149f5761168e6117a7565b815f525f60205260405f2054938185106116e857506020817fddf252ad1be2c89b69c2b068fc378daa952ba7f163c4a11628f55a4df523b3ef925f95968587528684520360408620558060025403600255604051908152a3565b60405163391434e360e21b81526001600160a01b03919091166004820152602481018590526044810191909152606490fd5b6001600160a01b0390811691821561178f57169182156117775760207f8c5be1e5ebec7d5bd14f71427d1e84f3dd0314c0f7b2291e5b200ac8c7c3b92591835f526001825260405f20855f5282528060405f2055604051908152a3565b604051634a1406b160e11b81525f6004820152602490fd5b60405163e602df0560e01b81525f6004820152602490fd5b60ff600a54166117b357565b60405163d93c066560e01b8152600490fd5b60ff81146118035760ff811690601f82116117f157604051916117e78361114f565b8252602082015290565b604051632cd44ac360e21b8152600490fd5b50604051600554815f61181583611117565b808352926020906001908181169081156118a25750600114611843575b50506118409250038261117f565b90565b91509260055f527f036b6384b5eca791c62761152d0c79bb0604c104a5fb6f4eb0703f3154bb3db0935f925b82841061188a57506118409450505081016020015f80611832565b8554878501830152948501948694509281019261186f565b9150506020925061184094915060ff191682840152151560051b8201015f80611832565b60ff81146118e85760ff811690601f82116117f157604051916117e78361114f565b50604051600654815f6118fa83611117565b808352926020906001908181169081156118a257506001146119245750506118409250038261117f565b91509260065f527ff652222313e28459528d920b65115c16c04f3efc82aaedc97be59f3f377c0d3f935f925b82841061196b57506118409450505081016020015f80611832565b85548785018301529485019486945092810192611950565b91907f7fffffffffffffffffffffffffffffff5d576e7357a4501ddfe92f46681b20a08411611a05579160209360809260ff5f9560405194855216868401526040830152606082015282805260015afa156119fa575f516001600160a01b038116156119f057905f905f90565b505f906001905f90565b6040513d5f823e3d90fd5b5050505f9160039190565b6004811015611a7f5780611a22575050565b60018103611a3c5760405163f645eedf60e01b8152600490fd5b60028103611a5d5760405163fce698f760e01b815260048101839052602490fd5b600314611a675750565b602490604051906335e2f38360e21b82526004820152fd5b634e487b7160e01b5f52602160045260245ffdfea264697066735822122097b46950b15653029817dd9cd47e84a908d363b7bab90a50b229b38155227b2a64736f6c63430008170033","linkReferences":{}},"methodIdentifiers":{"DOMAIN_SEPARATOR()":"3644e515","MAX_SUPPLY()":"32cb6b0c","allowance(address,address)":"dd62ed3e","approve(address,uint256)":"095ea7b3","balanceOf(address)":"70a08231","batchMint(address[],uint256[])":"68573107","burn(uint256)":"42966c68","burnFrom(address,uint256)":"79cc6790","decimals()":"313ce567","eip712Domain()":"84b0196e","emergencyWithdraw(address,address,uint256)":"e63ea408","mint(address,uint256)":"40c10f19","name()":"06fdde03","nonces(address)":"7ecebe00","owner()":"8da5cb5b","pause()":"8456cb59","paused()":"5c975abb","permit(address,address,uint256,uint256,uint8,bytes32,bytes32)":"d505accf","remainMintableSupply()":"89549c57","renounceOwnership()":"715018a6","symbol()":"95d89b41","totalSupply()":"18160ddd","transfer(address,uint256)":"a9059cbb","transferFrom(address,address,uint256)":"23b872dd","transferOwnership(address)":"f2fde38b","unpause()":"3f4ba83a"},"id":60}