{"abi":[{"type":"constructor","inputs":[{"name":"initialOwner","type":"address","internalType":"address"}],"stateMutability":"nonpayable"},{"type":"function","name":"approve","inputs":[{"name":"to","type":"address","internalType":"address"},{"name":"tokenId","type":"uint256","internalType":"uint256"}],"outputs":[],"stateMutability":"nonpayable"},{"type":"function","name":"authorizedMinters","inputs":[{"name":"","type":"address","internalType":"address"}],"outputs":[{"name":"","type":"bool","internalType":"bool"}],"stateMutability":"view"},{"type":"function","name":"authorizedVerifiers","inputs":[{"name":"","type":"address","internalType":"address"}],"outputs":[{"name":"","type":"bool","internalType":"bool"}],"stateMutability":"view"},{"type":"function","name":"balanceOf","inputs":[{"name":"owner","type":"address","internalType":"address"}],"outputs":[{"name":"","type":"uint256","internalType":"uint256"}],"stateMutability":"view"},{"type":"function","name":"batchMintTickets","inputs":[{"name":"recipients","type":"address[]","internalType":"address[]"},{"name":"eventId","type":"uint256","internalType":"uint256"},{"name":"seatNumbers","type":"uint256[]","internalType":"uint256[]"},{"name":"originalPrice","type":"uint256","internalType":"uint256"},{"name":"category","type":"uint256","internalType":"uint256"},{"name":"validFrom","type":"uint256","internalType":"uint256"},{"name":"validUntil","type":"uint256","internalType":"uint256"},{"name":"isTransferable","type":"bool","internalType":"bool"},{"name":"seatSection","type":"string","internalType":"string"},{"name":"tokenURIs","type":"string[]","internalType":"string[]"}],"outputs":[{"name":"","type":"uint256[]","internalType":"uint256[]"}],"stateMutability":"nonpayable"},{"type":"function","name":"cancelTicket","inputs":[{"name":"tokenId","type":"uint256","internalType":"uint256"},{"name":"reason","type":"string","internalType":"string"}],"outputs":[],"stateMutability":"nonpayable"},{"type":"function","name":"emergencyWithdraw","inputs":[{"name":"token","type":"address","internalType":"address"},{"name":"to","type":"address","internalType":"address"},{"name":"amount","type":"uint256","internalType":"uint256"}],"outputs":[],"stateMutability":"nonpayable"},{"type":"function","name":"eventPurchaseLimit","inputs":[{"name":"","type":"uint256","internalType":"uint256"}],"outputs":[{"name":"","type":"uint256","internalType":"uint256"}],"stateMutability":"view"},{"type":"function","name":"eventTickets","inputs":[{"name":"","type":"uint256","internalType":"uint256"},{"name":"","type":"uint256","internalType":"uint256"}],"outputs":[{"name":"","type":"uint256","internalType":"uint256"}],"stateMutability":"view"},{"type":"function","name":"expireTickets","inputs":[{"name":"tokenIds","type":"uint256[]","internalType":"uint256[]"}],"outputs":[],"stateMutability":"nonpayable"},{"type":"function","name":"getApproved","inputs":[{"name":"tokenId","type":"uint256","internalType":"uint256"}],"outputs":[{"name":"","type":"address","internalType":"address"}],"stateMutability":"view"},{"type":"function","name":"getEventTickets","inputs":[{"name":"eventId","type":"uint256","internalType":"uint256"}],"outputs":[{"name":"","type":"uint256[]","internalType":"uint256[]"}],"stateMutability":"view"},{"type":"function","name":"getTicketInfo","inputs":[{"name":"tokenId","type":"uint256","internalType":"uint256"}],"outputs":[{"name":"","type":"tuple","internalType":"struct TicketManager.TicketMetadata","components":[{"name":"eventId","type":"uint256","internalType":"uint256"},{"name":"seatNumber","type":"uint256","internalType":"uint256"},{"name":"originalPrice","type":"uint256","internalType":"uint256"},{"name":"category","type":"uint256","internalType":"uint256"},{"name":"validFrom","type":"uint256","internalType":"uint256"},{"name":"validUntil","type":"uint256","internalType":"uint256"},{"name":"status","type":"uint8","internalType":"enum TicketManager.TicketStatus"},{"name":"originalBuyer","type":"address","internalType":"address"},{"name":"purchaseTime","type":"uint256","internalType":"uint256"},{"name":"isTransferable","type":"bool","internalType":"bool"},{"name":"seatSection","type":"string","internalType":"string"},{"name":"verificationHash","type":"bytes32","internalType":"bytes32"}]}],"stateMutability":"view"},{"type":"function","name":"getUserEventTickets","inputs":[{"name":"user","type":"address","internalType":"address"},{"name":"eventId","type":"uint256","internalType":"uint256"}],"outputs":[{"name":"","type":"uint256[]","internalType":"uint256[]"}],"stateMutability":"view"},{"type":"function","name":"getUserTickets","inputs":[{"name":"user","type":"address","internalType":"address"}],"outputs":[{"name":"","type":"uint256[]","internalType":"uint256[]"}],"stateMutability":"view"},{"type":"function","name":"isApprovedForAll","inputs":[{"name":"owner","type":"address","internalType":"address"},{"name":"operator","type":"address","internalType":"address"}],"outputs":[{"name":"","type":"bool","internalType":"bool"}],"stateMutability":"view"},{"type":"function","name":"isTicketValid","inputs":[{"name":"tokenId","type":"uint256","internalType":"uint256"}],"outputs":[{"name":"","type":"bool","internalType":"bool"}],"stateMutability":"view"},{"type":"function","name":"mintTicket","inputs":[{"name":"to","type":"address","internalType":"address"},{"name":"eventId","type":"uint256","internalType":"uint256"},{"name":"seatNumber","type":"uint256","internalType":"uint256"},{"name":"originalPrice","type":"uint256","internalType":"uint256"},{"name":"category","type":"uint256","internalType":"uint256"},{"name":"validFrom","type":"uint256","internalType":"uint256"},{"name":"validUntil","type":"uint256","internalType":"uint256"},{"name":"isTransferable","type":"bool","internalType":"bool"},{"name":"seatSection","type":"string","internalType":"string"},{"name":"uri","type":"string","internalType":"string"}],"outputs":[{"name":"","type":"uint256","internalType":"uint256"}],"stateMutability":"nonpayable"},{"type":"function","name":"name","inputs":[],"outputs":[{"name":"","type":"string","internalType":"string"}],"stateMutability":"view"},{"type":"function","name":"owner","inputs":[],"outputs":[{"name":"","type":"address","internalType":"address"}],"stateMutability":"view"},{"type":"function","name":"ownerOf","inputs":[{"name":"tokenId","type":"uint256","internalType":"uint256"}],"outputs":[{"name":"","type":"address","internalType":"address"}],"stateMutability":"view"},{"type":"function","name":"pause","inputs":[],"outputs":[],"stateMutability":"nonpayable"},{"type":"function","name":"paused","inputs":[],"outputs":[{"name":"","type":"bool","internalType":"bool"}],"stateMutability":"view"},{"type":"function","name":"renounceOwnership","inputs":[],"outputs":[],"stateMutability":"nonpayable"},{"type":"function","name":"safeTransferFrom","inputs":[{"name":"from","type":"address","internalType":"address"},{"name":"to","type":"address","internalType":"address"},{"name":"tokenId","type":"uint256","internalType":"uint256"}],"outputs":[],"stateMutability":"nonpayable"},{"type":"function","name":"safeTransferFrom","inputs":[{"name":"from","type":"address","internalType":"address"},{"name":"to","type":"address","internalType":"address"},{"name":"tokenId","type":"uint256","internalType":"uint256"},{"name":"data","type":"bytes","internalType":"bytes"}],"outputs":[],"stateMutability":"nonpayable"},{"type":"function","name":"seatToTicket","inputs":[{"name":"","type":"uint256","internalType":"uint256"},{"name":"","type":"uint256","internalType":"uint256"}],"outputs":[{"name":"","type":"uint256","internalType":"uint256"}],"stateMutability":"view"},{"type":"function","name":"setApprovalForAll","inputs":[{"name":"operator","type":"address","internalType":"address"},{"name":"approved","type":"bool","internalType":"bool"}],"outputs":[],"stateMutability":"nonpayable"},{"type":"function","name":"setEventPurchaseLimit","inputs":[{"name":"eventId","type":"uint256","internalType":"uint256"},{"name":"limit","type":"uint256","internalType":"uint256"}],"outputs":[],"stateMutability":"nonpayable"},{"type":"function","name":"setMinterAuthorization","inputs":[{"name":"minter","type":"address","internalType":"address"},{"name":"authorized","type":"bool","internalType":"bool"}],"outputs":[],"stateMutability":"nonpayable"},{"type":"function","name":"setTicketTransferable","inputs":[{"name":"tokenId","type":"uint256","internalType":"uint256"},{"name":"transferable","type":"bool","internalType":"bool"}],"outputs":[],"stateMutability":"nonpayable"},{"type":"function","name":"setVerifierAuthorization","inputs":[{"name":"verifier","type":"address","internalType":"address"},{"name":"authorized","type":"bool","internalType":"bool"}],"outputs":[],"stateMutability":"nonpayable"},{"type":"function","name":"supportsInterface","inputs":[{"name":"interfaceId","type":"bytes4","internalType":"bytes4"}],"outputs":[{"name":"","type":"bool","internalType":"bool"}],"stateMutability":"view"},{"type":"function","name":"symbol","inputs":[],"outputs":[{"name":"","type":"string","internalType":"string"}],"stateMutability":"view"},{"type":"function","name":"tickets","inputs":[{"name":"","type":"uint256","internalType":"uint256"}],"outputs":[{"name":"eventId","type":"uint256","internalType":"uint256"},{"name":"seatNumber","type":"uint256","internalType":"uint256"},{"name":"originalPrice","type":"uint256","internalType":"uint256"},{"name":"category","type":"uint256","internalType":"uint256"},{"name":"validFrom","type":"uint256","internalType":"uint256"},{"name":"validUntil","type":"uint256","internalType":"uint256"},{"name":"status","type":"uint8","internalType":"enum TicketManager.TicketStatus"},{"name":"originalBuyer","type":"address","internalType":"address"},{"name":"purchaseTime","type":"uint256","internalType":"uint256"},{"name":"isTransferable","type":"bool","internalType":"bool"},{"name":"seatSection","type":"string","internalType":"string"},{"name":"verificationHash","type":"bytes32","internalType":"bytes32"}],"stateMutability":"view"},{"type":"function","name":"tokenByIndex","inputs":[{"name":"index","type":"uint256","internalType":"uint256"}],"outputs":[{"name":"","type":"uint256","internalType":"uint256"}],"stateMutability":"view"},{"type":"function","name":"tokenOfOwnerByIndex","inputs":[{"name":"owner","type":"address","internalType":"address"},{"name":"index","type":"uint256","internalType":"uint256"}],"outputs":[{"name":"","type":"uint256","internalType":"uint256"}],"stateMutability":"view"},{"type":"function","name":"tokenURI","inputs":[{"name":"tokenId","type":"uint256","internalType":"uint256"}],"outputs":[{"name":"","type":"string","internalType":"string"}],"stateMutability":"view"},{"type":"function","name":"totalSupply","inputs":[],"outputs":[{"name":"","type":"uint256","internalType":"uint256"}],"stateMutability":"view"},{"type":"function","name":"transferFrom","inputs":[{"name":"from","type":"address","internalType":"address"},{"name":"to","type":"address","internalType":"address"},{"name":"tokenId","type":"uint256","internalType":"uint256"}],"outputs":[],"stateMutability":"nonpayable"},{"type":"function","name":"transferOwnership","inputs":[{"name":"newOwner","type":"address","internalType":"address"}],"outputs":[],"stateMutability":"nonpayable"},{"type":"function","name":"unpause","inputs":[],"outputs":[],"stateMutability":"nonpayable"},{"type":"function","name":"useTicket","inputs":[{"name":"tokenId","type":"uint256","internalType":"uint256"}],"outputs":[],"stateMutability":"nonpayable"},{"type":"function","name":"userPurchaseCount","inputs":[{"name":"","type":"uint256","internalType":"uint256"},{"name":"","type":"address","internalType":"address"}],"outputs":[{"name":"","type":"uint256","internalType":"uint256"}],"stateMutability":"view"},{"type":"function","name":"verifyTicketHash","inputs":[{"name":"tokenId","type":"uint256","internalType":"uint256"},{"name":"providedHash","type":"bytes32","internalType":"bytes32"}],"outputs":[{"name":"","type":"bool","internalType":"bool"}],"stateMutability":"view"},{"type":"event","name":"Approval","inputs":[{"name":"owner","type":"address","indexed":true,"internalType":"address"},{"name":"approved","type":"address","indexed":true,"internalType":"address"},{"name":"tokenId","type":"uint256","indexed":true,"internalType":"uint256"}],"anonymous":false},{"type":"event","name":"ApprovalForAll","inputs":[{"name":"owner","type":"address","indexed":true,"internalType":"address"},{"name":"operator","type":"address","indexed":true,"internalType":"address"},{"name":"approved","type":"bool","indexed":false,"internalType":"bool"}],"anonymous":false},{"type":"event","name":"BatchMetadataUpdate","inputs":[{"name":"_fromTokenId","type":"uint256","indexed":false,"internalType":"uint256"},{"name":"_toTokenId","type":"uint256","indexed":false,"internalType":"uint256"}],"anonymous":false},{"type":"event","name":"MetadataUpdate","inputs":[{"name":"_tokenId","type":"uint256","indexed":false,"internalType":"uint256"}],"anonymous":false},{"type":"event","name":"MinterAuthorized","inputs":[{"name":"minter","type":"address","indexed":true,"internalType":"address"},{"name":"authorized","type":"bool","indexed":false,"internalType":"bool"}],"anonymous":false},{"type":"event","name":"OwnershipTransferred","inputs":[{"name":"previousOwner","type":"address","indexed":true,"internalType":"address"},{"name":"newOwner","type":"address","indexed":true,"internalType":"address"}],"anonymous":false},{"type":"event","name":"Paused","inputs":[{"name":"account","type":"address","indexed":false,"internalType":"address"}],"anonymous":false},{"type":"event","name":"TicketCancelled","inputs":[{"name":"tokenId","type":"uint256","indexed":true,"internalType":"uint256"},{"name":"eventId","type":"uint256","indexed":true,"internalType":"uint256"},{"name":"reason","type":"string","indexed":false,"internalType":"string"}],"anonymous":false},{"type":"event","name":"TicketMinted","inputs":[{"name":"tokenId","type":"uint256","indexed":true,"internalType":"uint256"},{"name":"eventId","type":"uint256","indexed":true,"internalType":"uint256"},{"name":"buyer","type":"address","indexed":true,"internalType":"address"},{"name":"seatNumber","type":"uint256","indexed":false,"internalType":"uint256"},{"name":"price","type":"uint256","indexed":false,"internalType":"uint256"}],"anonymous":false},{"type":"event","name":"TicketStatusChanged","inputs":[{"name":"tokenId","type":"uint256","indexed":true,"internalType":"uint256"},{"name":"oldStatus","type":"uint8","indexed":false,"internalType":"enum TicketManager.TicketStatus"},{"name":"newStatus","type":"uint8","indexed":false,"internalType":"enum TicketManager.TicketStatus"}],"anonymous":false},{"type":"event","name":"TicketUsed","inputs":[{"name":"tokenId","type":"uint256","indexed":true,"internalType":"uint256"},{"name":"eventId","type":"uint256","indexed":true,"internalType":"uint256"},{"name":"verifier","type":"address","indexed":true,"internalType":"address"}],"anonymous":false},{"type":"event","name":"Transfer","inputs":[{"name":"from","type":"address","indexed":true,"internalType":"address"},{"name":"to","type":"address","indexed":true,"internalType":"address"},{"name":"tokenId","type":"uint256","indexed":true,"internalType":"uint256"}],"anonymous":false},{"type":"event","name":"Unpaused","inputs":[{"name":"account","type":"address","indexed":false,"internalType":"address"}],"anonymous":false},{"type":"event","name":"VerifierAuthorized","inputs":[{"name":"verifier","type":"address","indexed":true,"internalType":"address"},{"name":"authorized","type":"bool","indexed":false,"internalType":"bool"}],"anonymous":false},{"type":"error","name":"ERC721EnumerableForbiddenBatchMint","inputs":[]},{"type":"error","name":"ERC721IncorrectOwner","inputs":[{"name":"sender","type":"address","internalType":"address"},{"name":"tokenId","type":"uint256","internalType":"uint256"},{"name":"owner","type":"address","internalType":"address"}]},{"type":"error","name":"ERC721InsufficientApproval","inputs":[{"name":"operator","type":"address","internalType":"address"},{"name":"tokenId","type":"uint256","internalType":"uint256"}]},{"type":"error","name":"ERC721InvalidApprover","inputs":[{"name":"approver","type":"address","internalType":"address"}]},{"type":"error","name":"ERC721InvalidOperator","inputs":[{"name":"operator","type":"address","internalType":"address"}]},{"type":"error","name":"ERC721InvalidOwner","inputs":[{"name":"owner","type":"address","internalType":"address"}]},{"type":"error","name":"ERC721InvalidReceiver","inputs":[{"name":"receiver","type":"address","internalType":"address"}]},{"type":"error","name":"ERC721InvalidSender","inputs":[{"name":"sender","type":"address","internalType":"address"}]},{"type":"error","name":"ERC721NonexistentToken","inputs":[{"name":"tokenId","type":"uint256","internalType":"uint256"}]},{"type":"error","name":"ERC721OutOfBoundsIndex","inputs":[{"name":"owner","type":"address","internalType":"address"},{"name":"index","type":"uint256","internalType":"uint256"}]},{"type":"error","name":"EnforcedPause","inputs":[]},{"type":"error","name":"ExpectedPause","inputs":[]},{"type":"error","name":"OwnableInvalidOwner","inputs":[{"name":"owner","type":"address","internalType":"address"}]},{"type":"error","name":"OwnableUnauthorizedAccount","inputs":[{"name":"account","type":"address","internalType":"address"}]},{"type":"error","name":"ReentrancyGuardReentrantCall","inputs":[]}],"bytecode":{"object":"0x6080346200037c57601f1990601f906001600160401b0362003a223881900384810186168401838111858210176200029e578492829160405283396020938491810103126200037c57516001600160a01b039384821692918390036200037c576200006962000380565b93601085526f13db9b1a5b99551a58dad95d0813919560821b818601526200009062000380565b96600388526227aa2760e91b8289015285518481116200029e575f546001978882811c9216801562000371575b858310146200027f5781868493116200031e575b508490868311600114620002be575f92620002b2575b50505f19600383901b1c191690871b175f555b87519384116200029e5785548681811c9116801562000293575b838210146200027f5783811162000237575b5081928411600114620001d157505081929394955f92620001c5575b50505f19600383901b1c191690831b1782555b8015620001ad57600b80546001600160a01b03198116831790915560405193167f8be0079c531659141344cd1fd0a4f28419497f9722a3daafe3b4186f6b6457e05f80a380600c55600e556136819081620003a18239f35b604051631e4fbdf760e01b81525f6004820152602490fd5b015190505f8062000142565b5f868152828120918516989193925b8982106200021f575050838697989695961062000206575b505050811b01825562000155565b01515f1960f88460031b161c191690555f8080620001f8565b808885968294968601518155019501930190620001e0565b865f52825f208480870160051c82019285881062000275575b0160051c019087905b8281106200026957505062000126565b5f815501879062000259565b9250819262000250565b634e487b7160e01b5f52602260045260245ffd5b90607f169062000114565b634e487b7160e01b5f52604160045260245ffd5b015190505f80620000e7565b90848a9416915f8052865f20925f5b88828210620003075750508411620002ee575b505050811b015f55620000fa565b01515f1960f88460031b161c191690555f8080620002e0565b8385015186558d97909501949384019301620002cd565b9091505f8052845f208680850160051c82019287861062000367575b918b91869594930160051c01915b82811062000358575050620000d1565b5f81558594508b910162000348565b925081926200033a565b91607f1691620000bd565b5f80fd5b60408051919082016001600160401b038111838210176200029e5760405256fe60806040526004361015610011575f80fd5b5f3560e01c806301ffc9a7146102e45780630484a22f146102df57806306fdde03146102da578063081812fc146102d5578063095ea7b3146102d057806310007ee9146102cb57806318160ddd146102c657806323b872dd146102c1578063262dbfa7146102bc57806326606448146102b75780632773b799146102b2578063294e35bd146102ad5780632f745c59146102a8578063378c2b86146102a35780633f4ba83a1461029e5780633fb5c2531461029957806342842e0e146102945780634f6ccce71461028f57806350b447121461028a578063511bb724146102855780635c975abb146102805780636352211e1461027b5780636b6e3fcb1461027657806370a0823114610271578063715018a61461026c578063779cea77146102675780638456cb59146102625780638da5cb5b1461025d57806395d89b41146102585780639a891716146102535780639da000fe1461024e578063a22cb46514610249578063aa2fe91b14610244578063b88d4fde1461023f578063bac378661461023a578063c87b56dd14610235578063ca261ce114610230578063e63ea4081461022b578063e985e9c514610226578063ea5e6e6714610221578063efe7a79d1461021c578063f2fde38b14610217578063fab97aac14610212578063fb3ae56f1461020d5763ff99a06314610208575f80fd5b611cd7565b611adf565b611a64565b6119d8565b611985565b611956565b6118fa565b611835565b6117cd565b611777565b61163d565b6115de565b6115a1565b6114e8565b611455565b611418565b611374565b61134c565b6112f3565b6112ae565b611225565b611202565b611196565b611166565b611144565b611090565b610e9e565b610cd0565b610ca9565b610bb3565b610b4a565b610ac8565b610a82565b610a58565b610a22565b610985565b61086d565b61076a565b610718565b6106cf565b6105d4565b610598565b6104bf565b610408565b6102ff565b6001600160e01b03198116036102fb57565b5f80fd5b346102fb5760203660031901126102fb57602060043561031e816102e9565b63ffffffff60e01b1663780e9d6360e01b8114908115610344575b506040519015158152f35b632483248360e11b81149150811561035e575b505f610339565b6380ac58cd60e01b811491508115610390575b811561037f575b505f610357565b6301ffc9a760e01b1490505f610378565b635b5e139f60e01b81149150610371565b600435906001600160a01b03821682036102fb57565b602435906001600160a01b03821682036102fb57565b60209060206040818301928281528551809452019301915f5b8281106103f4575050505090565b8351855293810193928101926001016103e6565b346102fb5760203660031901126102fb576104216103a1565b61042a81612ad1565b61043381611e1e565b915f5b82811061044f576040518061044b86826103cd565b0390f35b8061045c600192846121e5565b6104668287611e50565b5201610436565b91908251928382525f5b848110610497575050825f602080949584010152601f8019910116010190565b602081830181015184830182015201610477565b9060206104bc92818152019061046d565b90565b346102fb575f3660031901126102fb576040515f80546104de81610d3e565b8084529060209060019081811690811561056e5750600114610517575b61044b8561050b818703826107d1565b604051918291826104ab565b5f80805293507f290decd9548b62a8d60345a988386fc84ba6bc95484008f6362f93160ef3e5635b83851061055b5750505050810160200161050b8261044b6104fb565b805486860184015293820193810161053f565b86955061044b9693506020925061050b94915060ff191682840152151560051b82010192936104fb565b346102fb5760203660031901126102fb576004356105b581612ed1565b505f526004602052602060018060a01b0360405f205416604051908152f35b346102fb5760403660031901126102fb576105ed6103a1565b602435906105fa82612ed1565b331515806106bc575b8061068f575b61067757610675926106569181906001600160a01b0385811691167f8c5be1e5ebec7d5bd14f71427d1e84f3dd0314c0f7b2291e5b200ac8c7c3b9255f80a45f52600460205260405f2090565b80546001600160a01b0319166001600160a01b03909216919091179055565b005b60405163a9fbf51f60e01b8152336004820152602490fd5b506001600160a01b0381165f90815260056020908152604080832033845290915290205460ff1615610609565b506001600160a01b038116331415610603565b346102fb5760403660031901126102fb57602061070f6106ed6103b7565b6004355f526014835260405f209060018060a01b03165f5260205260405f2090565b54604051908152f35b346102fb575f3660031901126102fb576020600954604051908152f35b60609060031901126102fb576001600160a01b039060043582811681036102fb579160243590811681036102fb579060443590565b346102fb5761067561077b36610735565b91611e64565b634e487b7160e01b5f52604160045260245ffd5b61018081019081106001600160401b038211176107b157604052565b610781565b602081019081106001600160401b038211176107b157604052565b90601f801991011681019081106001600160401b038211176107b157604052565b604051906107ff82610795565b565b6001600160401b0381116107b157601f01601f191660200190565b92919261082882610801565b9161083660405193846107d1565b8294818452818301116102fb578281602093845f960137010152565b9080601f830112156102fb578160206104bc9335910161081c565b346102fb5760403660031901126102fb576004356024356001600160401b0381116102fb576108a0903690600401610852565b6108a8612f63565b5f828152600260205260409020546108ca906001600160a01b03161515611f8d565b815f52600f60205260405f20600681019160ff83541690600482101561097157847fd320b4f6e5b1b0de7d1a6019a2ec992b8d074705834f2e20ad36b42a1deb5a2c61095d61096c9561094f7f1242df8622c8cdee6f783c390ff0e347eacbd7c142064b9760756384f2a23eb5986109428815611fe5565b805460ff19166002179055565b5493604051918291826104ab565b0390a360405191829182612049565b0390a2005b634e487b7160e01b5f52602160045260245ffd5b346102fb5760203660031901126102fb57335f52601360205260ff60405f2054168015610a0e575b156109bd5761067560043561208f565b60405162461bcd60e51b8152602060048201526024808201527f5469636b65744d616e616765723a20756e617574686f72697a656420766572696044820152633334b2b960e11b6064820152608490fd5b50600b546001600160a01b031633146109ad565b346102fb5760403660031901126102fb576004355f52601160205260405f206024355f52602052602060405f2054604051908152f35b346102fb5760203660031901126102fb576004355f526015602052602060405f2054604051908152f35b346102fb5760403660031901126102fb576020610aa9610aa06103a1565b602435906121e5565b604051908152f35b801515036102fb57565b60e435906107ff82610ab1565b346102fb5760403660031901126102fb57610ae16103a1565b7f9041c22ed79d1c19c69cc22fd9e38c93da4f2dd8cd32580594e232a8a18541cb602060243592610b1184610ab1565b610b19612f63565b6001600160a01b03165f8181526012835260409020805460ff191660ff86151516179055925b6040519015158152a2005b346102fb575f3660031901126102fb57610b62612f63565b600d5460ff811615610ba15760ff1916600d557f5db9ee0a495bf2e6ff9c91a7834c1ba4fdd244a5e8aa4e537bd38aeae4b073aa6020604051338152a1005b604051638dfc202b60e01b8152600490fd5b346102fb5760403660031901126102fb57610bcc6103a1565b6024355f52602090601060205260405f209160405180938491602082549182815201915f5260205f20935f905b828210610c8f57505050610c0f925003836107d1565b610c20610c1b82612ad1565b611e1e565b6001600160a01b03918216915f90815b8551811015610c7e57610c438187611e50565b518583610c4f83612ed1565b1614610c5f575b50600101610c30565b83610c7791610c716001949688611e50565b52612255565b9290610c56565b8284526040518061044b86826103cd565b855484526001958601958895509381019390910190610bf9565b346102fb57610675610cba36610735565b9060405192610cc8846107b6565b5f8452612d51565b346102fb5760203660031901126102fb57600435600954811015610d205760209060095f527f6e1540171b6c0c960b71a7020d9f60077f6af931a8bbf590da0223dacf75c7af0154604051908152f35b6044906040519063295f44f760e21b82525f60048301526024820152fd5b90600182811c92168015610d6c575b6020831014610d5857565b634e487b7160e01b5f52602260045260245ffd5b91607f1691610d4d565b9060405191825f8254610d8881610d3e565b908184526020946001916001811690815f14610df45750600114610db6575b5050506107ff925003836107d1565b5f90815285812095935091905b818310610ddc5750506107ff93508201015f8080610da7565b85548884018501529485019487945091830191610dc3565b925050506107ff94925060ff191682840152151560051b8201015f8080610da7565b6004111561097157565b9060048210156109715752565b9c9b9a97939460808e610e999b97610e6d966101609e9a959b966101809c8452602084015260408301526060820152015260a08d015260c08c0190610e20565b6001600160a01b031660e08a01526101008901521515610120880152610140870181905286019061046d565b930152565b346102fb5760203660031901126102fb576004355f52600f60205260405f20805461044b600183015491600284015493600381015491600482015490600583015490600684015490600785015492610efa600887015460ff1690565b94600a610f0960098901610d76565b970154976040519b8c9b60ff60018060a01b038860081c169716958d610e2d565b6001600160401b0381116107b15760051b60200190565b9080601f830112156102fb576020908235610f5b81610f2a565b93610f6960405195866107d1565b81855260208086019260051b8201019283116102fb57602001905b828210610f92575050505090565b81356001600160a01b03811681036102fb578152908301908301610f84565b9080601f830112156102fb576020908235610fcb81610f2a565b93610fd960405195866107d1565b81855260208086019260051b8201019283116102fb57602001905b828210611002575050505090565b81358152908301908301610ff4565b81601f820112156102fb5780359160209161102b84610f2a565b9361103960405195866107d1565b808552838086019160051b830101928084116102fb57848301915b8483106110645750505050505090565b82356001600160401b0381116102fb57869161108584848094890101610852565b815201920191611054565b346102fb576101403660031901126102fb576001600160401b036004358181116102fb576110c2903690600401610f41565b906044358181116102fb576110db903690600401610fb1565b916110e4610abb565b610104358381116102fb576110fd903690600401610852565b90610124359384116102fb5761044b9461111e611138953690600401611011565b9360c4359160a435916084359160643591602435906122bf565b604051918291826103cd565b346102fb575f3660031901126102fb57602060ff600d54166040519015158152f35b346102fb5760203660031901126102fb576020611184600435612ed1565b6040516001600160a01b039091168152f35b346102fb5760403660031901126102fb576106756024356004356111b982610ab1565b6111c1612f63565b5f818152600260205260409020546111e3906001600160a01b03161515611f8d565b5f52600f602052600860405f20019060ff801983541691151516179055565b346102fb5760203660031901126102fb576020610aa96112206103a1565b612ad1565b346102fb575f3660031901126102fb5761123d612f63565b600b80546001600160a01b031981169091555f906001600160a01b03167f8be0079c531659141344cd1fd0a4f28419497f9722a3daafe3b4186f6b6457e08280a3005b634e487b7160e01b5f52603260045260245ffd5b80548210156112a9575f5260205f2001905f90565b611280565b346102fb5760403660031901126102fb576024356004355f52601060205260405f2080548210156102fb576020916112e591611294565b90546040519160031b1c8152f35b346102fb575f3660031901126102fb5761130b612f63565b611313613210565b600160ff19600d541617600d557f62e78cea01bee320cd4e420270b5ea74000d11b0c9f74754ebdbfc544b05a2586020604051338152a1005b346102fb575f3660031901126102fb57600b546040516001600160a01b039091168152602090f35b346102fb575f3660031901126102fb576040515f6001805461139581610d3e565b808552916020916001811690811561056e57506001146113bf5761044b8561050b818703826107d1565b60015f90815293507fb10e2d527612073b26eecdfd717e6a320cf44b4afac2b0732d9fcbe2b7fa0cf65b8385106114055750505050810160200161050b8261044b6104fb565b80548686018401529382019381016113e9565b346102fb5760203660031901126102fb576001600160a01b036114396103a1565b165f526013602052602060ff60405f2054166040519015158152f35b346102fb576101403660031901126102fb5761146f6103a1565b611477610abb565b906001600160401b0390610104358281116102fb5761149a903690600401610852565b610124359283116102fb5761044b936114ba6114d8943690600401610852565b9260c4359060a4359060843590606435906044359060243590612b07565b6040519081529081906020820190565b346102fb5760403660031901126102fb576115016103a1565b60243561150d81610ab1565b6001600160a01b038216918215611588578161154761155892335f52600560205260405f209060018060a01b03165f5260205260405f2090565b9060ff801983541691151516179055565b60405190151581527f17307eab39ab6107e8899845ad3d59bd9653f200f220920489ca2b5937696c3160203392a3005b604051630b61174360e31b815260048101849052602490fd5b346102fb5760203660031901126102fb576001600160a01b036115c26103a1565b165f526012602052602060ff60405f2054166040519015158152f35b346102fb5760803660031901126102fb576115f76103a1565b6115ff6103b7565b606435916001600160401b0383116102fb57366023840112156102fb5761163361067593369060248160040135910161081c565b9160443591612d51565b346102fb5760203660031901126102fb576004356001600160401b0381116102fb5761166d903690600401610fb1565b611675612f63565b5f5b8151811015610675578061168d60019284611e50565b516116bf6116b36116a6835f52600260205260405f2090565b546001600160a01b031690565b6001600160a01b031690565b151580611750575b6116d3575b5001611677565b7f1242df8622c8cdee6f783c390ff0e347eacbd7c142064b9760756384f2a23eb5611747600661173b61171a82611712875f52600f60205260405f2090565b015460ff1690565b9161172d865f52600f60205260405f2090565b01805460ff19166003179055565b60405191829182612063565b0390a25f6116cc565b506117686006611712835f52600f60205260405f2090565b61177181610e16565b156116c7565b346102fb5760203660031901126102fb5760043561179481612ed1565b505f52600660205261044b6117ab60405f20610d76565b5f6040516117b8816107b6565b5260405191829160208352602083019061046d565b346102fb576020806003193601126102fb576004355f52601060205260405f20906040519081602084549182815201935f5260205f20915f905b82821061181e5761044b85611138818903826107d1565b835486529485019460019384019390910190611807565b346102fb5761184336610735565b919061184d612f63565b6001600160a01b0381811692611864841515612e55565b1690816118915750505f8080938193828215611888575bf11561188357005b612ec6565b506108fc61187b565b60405163a9059cbb60e01b81526001600160a01b03919091166004820152602481019390935260209150829060449082905f905af18015611883576118d257005b6106759060203d6020116118f3575b6118eb81836107d1565b810190612eb1565b503d6118e1565b346102fb5760403660031901126102fb57602060ff61194a61191a6103a1565b6119226103b7565b6001600160a01b039182165f9081526005865260408082209290931681526020919091522090565b54166040519015158152f35b346102fb5760403660031901126102fb5761196f612f63565b6004355f52601560205260243560405f20555f80f35b346102fb5760403660031901126102fb576004355f818152600260205260409020546119bb906001600160a01b03161515611f8d565b5f52600f6020526020602435600a60405f20015414604051908152f35b346102fb5760203660031901126102fb576119f16103a1565b6119f9612f63565b6001600160a01b03908116908115611a4c57600b54826bffffffffffffffffffffffff60a01b821617600b55167f8be0079c531659141344cd1fd0a4f28419497f9722a3daafe3b4186f6b6457e05f80a3005b604051631e4fbdf760e01b81525f6004820152602490fd5b346102fb5760403660031901126102fb57611a7d6103a1565b7f549bea741606fea6131feb992ab8021bef3bb5dfc19f6d30184944614a875459602060243592611aad84610ab1565b611ab5612f63565b6001600160a01b03165f8181526013835260409020805460ff191660ff8615151617905592610b3f565b346102fb5760203660031901126102fb576004355f8181526002602052604090205461044b916001600160a01b0391611b1b9083161515611f8d565b5f52600f60205260405f20611b2e6107f2565b918154835260018201546020840152600282015460408401526003820154606084015260048201549260808101938452610160600a60058501549460a08401958652611ba060068201549560c0860196611b8b60ff82168961289e565b60081c1660e086019060018060a01b03169052565b6007810154610100850152611bc6611bbc600883015460ff1690565b1515610120860152565b611bd260098201610d76565b610140850152015491015251611be781610e16565b611bf081610e16565b159182611c1e575b5081611c12575b5060405190151581529081906020820190565b9050514211155f611bff565b5142101591505f611bf8565b6020815281516020820152602082015160408201526040820151606082015260608201516080820152608082015160a082015260a082015160c0820152611c7960c083015160e0830190610e20565b60e08201516001600160a01b0316610100828101919091528201516101209081830152820151611cb0610140918284019015159052565b82015161018090611cce6101609183838601526101a085019061046d565b93015191015290565b346102fb5760203660031901126102fb5761044b60043560408051611cfb81610795565b5f81525f60208201525f828201525f60608201525f60808201525f60a08201525f60c08201525f60e0820152600a6101005f818401526101205f81850152611dfe610140916060838701525f61016080970152875f52600260205260018060a01b0397611d6e89895f2054161515611f8d565b5f52600f602052865f2093611de5611d846107f2565b9986548b52600187015460208c015260028701548a8c0152600387015460608c0152600487015460808c0152600587015460a08c01526006870154611dd08c60c060ff8416910161289e565b60081c1660e08b019060018060a01b03169052565b600785015490890152600884015460ff16151590880152565b611e0a60098301610d76565b908601520154908301525191829182611c2a565b90611e2882610f2a565b611e3560405191826107d1565b8281528092611e46601f1991610f2a565b0190602036910137565b80518210156112a95760209160051b010190565b91906001600160a01b039081811615611f75578190611e81613210565b835f5260026020528160405f205416611ed5575b611ea19084339161333c565b9316921690828203611eb257505050565b60649350604051926364283d7b60e01b8452600484015260248301526044820152fd5b9050600f60205260ff600860405f2001541615611f2157611ea18291611f1a611f0b6006611712885f52600f60205260405f2090565b611f1481610e16565b15612f0b565b9050611e95565b60405162461bcd60e51b815260206004820152602660248201527f5469636b65744d616e616765723a207469636b6574206e6f74207472616e7366604482015265657261626c6560d01b6064820152608490fd5b604051633250574960e11b81525f6004820152602490fd5b15611f9457565b60405162461bcd60e51b8152602060048201526024808201527f5469636b65744d616e616765723a207469636b657420646f6573206e6f7420656044820152631e1a5cdd60e21b6064820152608490fd5b15611fec57565b60405162461bcd60e51b815260206004820152601f60248201527f5469636b65744d616e616765723a207469636b6574206e6f742076616c6964006044820152606490fd5b9060048110156109715760ff80198354169116179055565b602060029193929361205f816040810196610e20565b0152565b602060039193929361205f816040810196610e20565b602060019193929361205f816040810196610e20565b5f818152600260205260409020546120b1906001600160a01b03161515611f8d565b6120b9612f8f565b805f52600f6020527f1242df8622c8cdee6f783c390ff0e347eacbd7c142064b9760756384f2a23eb560405f2060068101906121316120f9835460ff1690565b9261210384610e16565b61210d8415611fe5565b600483015442101580612175575b61212490612183565b805460ff19166001179055565b546121686040519283923390877fb35ebdfb9515b145e406c5c5a0846ec436db0b9560927af3af7a754d90c4f6ff5f80a482612079565b0390a26107ff6001600c55565b50600583015442111561211b565b1561218a57565b60405162461bcd60e51b815260206004820152602d60248201527f5469636b65744d616e616765723a207469636b6574206e6f7420696e2076616c60448201526c69642074696d652072616e676560981b6064820152608490fd5b6121ee81612ad1565b8210156122165760018060a01b03165f52600760205260405f20905f5260205260405f205490565b60405163295f44f760e21b81526001600160a01b039190911660048201526024810191909152604490fd5b634e487b7160e01b5f52601160045260245ffd5b5f1981146122635760010190565b612241565b1561226f57565b60405162461bcd60e51b815260206004820152602260248201527f5469636b65744d616e616765723a20756e617574686f72697a6564206d696e7460448201526132b960f11b6064820152608490fd5b97989695949192939096335f52601260205260ff60405f20541680156125ef575b6122e990612268565b6122f1612f8f565b6122fd89511515612603565b61231389518551811490816125e4575b5061264f565b61232160648a5111156126a7565b61232b8951611e1e565b915f5b8a518110156125ce57808c8b8a8c8f8a612366878f938f9a6123539061236092611e50565b516001600160a01b031690565b99611e50565b5195612372888c611e50565b51936123886001600160a01b038b1615156126f3565b61239386841061274b565b61239e4287116127a1565b6123b0875f52601560205260405f2090565b54806125a7575b5087612582575b600e54956123cb87612255565b600e5560408051602081018981529181018a905260608d811b6bffffffffffffffffffffffff19169082015242607480830191909152815261240e6094826107d1565b5190209361241a6107f2565b898152602081018b90526040810196909652606086018d9052608086015260a08501525f60c08501526001600160a01b038a1660e085015242610100850152151561012084015261014083015261016082015261247f835f52600f60205260405f2090565b90612489916129c8565b8161249c845f52601060205260405f2090565b906124a691612a9d565b8b8415159661251f7fed62a49acafd18b53efaca7f328da805d1d7e1d64fcc169b00556f05b163ed7c93600199612558575b612503836124ee895f52601460205260405f2090565b9060018060a01b03165f5260205260405f2090565b61250d8154612255565b90556125198684612fb2565b85613041565b8361252a888d611e50565b5261254f6040519283928a8060a01b0316978360209093929193604081019481520152565b0390a40161232e565b8561257c8961256f8a5f52601160205260405f2090565b905f5260205260405f2090565b556124d8565b6125a261259b8961256f8a5f52601160205260405f2090565b5415612848565b6123be565b6125c8906125c18c6124ee8b5f52601460205260405f2090565b54106127ed565b5f6123b7565b5050509750505050505050506104bc6001600c55565b90508251145f61230d565b50600b546001600160a01b031633146122e0565b1561260a57565b60405162461bcd60e51b815260206004820152601f60248201527f5469636b65744d616e616765723a20656d70747920726563697069656e7473006044820152606490fd5b1561265657565b60405162461bcd60e51b8152602060048201526024808201527f5469636b65744d616e616765723a206172726179206c656e677468206d69736d6044820152630c2e8c6d60e31b6064820152608490fd5b156126ae57565b60405162461bcd60e51b815260206004820152601e60248201527f5469636b65744d616e616765723a20626174636820746f6f206c6172676500006044820152606490fd5b156126fa57565b60405162461bcd60e51b815260206004820152602360248201527f5469636b65744d616e616765723a206d696e7420746f207a65726f206164647260448201526265737360e81b6064820152608490fd5b1561275257565b60405162461bcd60e51b815260206004820152602160248201527f5469636b65744d616e616765723a20696e76616c69642074696d652072616e676044820152606560f81b6064820152608490fd5b156127a857565b60405162461bcd60e51b815260206004820152601e60248201527f5469636b65744d616e616765723a20616c7265616479206578706972656400006044820152606490fd5b156127f457565b60405162461bcd60e51b815260206004820152602660248201527f5469636b65744d616e616765723a207075726368617365206c696d697420657860448201526518d95959195960d21b6064820152608490fd5b1561284f57565b60405162461bcd60e51b815260206004820152602160248201527f5469636b65744d616e616765723a207365617420616c72656164792074616b656044820152603760f91b6064820152608490fd5b60048210156109715752565b601f82116128b757505050565b5f5260205f20906020601f840160051c830193106128ef575b601f0160051c01905b8181106128e4575050565b5f81556001016128d9565b90915081906128d0565b91909182516001600160401b0381116107b1576129208161291a8454610d3e565b846128aa565b602080601f8311600114612961575081906129529394955f92612956575b50508160011b915f199060031b1c19161790565b9055565b015190505f8061293e565b90601f19831695612975855f5260205f2090565b925f905b8882106129b057505083600195969710612998575b505050811b019055565b01515f1960f88460031b161c191690555f808061298e565b80600185968294968601518155019501930190612979565b90610160600a91805184556020810151600185015560408101516002850155606081015160038501556080810151600485015560a08101516005850155612a5360068501612a2360c0840151612a1d81610e16565b82612031565b60e08301516001600160a01b03168154610100600160a81b03191660089190911b610100600160a81b0316179055565b6101008101516007850155612a84612a6f610120830151151590565b600886019060ff801983541691151516179055565b612a96610140820151600986016128f9565b0151910155565b8054600160401b8110156107b157612aba91600182018155611294565b819291549060031b91821b915f19901b1916179055565b6001600160a01b03168015612aef575f52600360205260405f205490565b6040516322718ad960e21b81525f6004820152602490fd5b9192939798909698335f52601260205260ff60405f2054168015612d3d575b612b2f90612268565b612b37612f8f565b6001600160a01b038316988890612b4f8b15156126f3565b612b5a89891061274b565b612b65428a116127a1565b612b77825f52601560205260405f2090565b5480612d1d575b508515159283612cff575b600e549c8d9a8b9a612b9a8c612255565b600e5560408051602081018e815291810188905260608b811b6bffffffffffffffffffffffff191690820152426074808301919091528152612bdd6094826107d1565b51902094612be96107f2565b968752602087018b9052604087018c90526060870152608086015260a08501525f60c08501526001600160a01b03871660e0850152426101008501521515610120840152610140830152610160820152612c4b875f52600f60205260405f2090565b90612c55916129c8565b85612c68895f52601060205260405f2090565b90612c7291612a9d565b7fed62a49acafd18b53efaca7f328da805d1d7e1d64fcc169b00556f05b163ed7c95612cc89361251992612ce2575b612cb7816124ee8c5f52601460205260405f2090565b612cc18154612255565b9055612fb2565b604080519182526020820192909252a46104bc6001600c55565b81612cf98761256f8d5f52601160205260405f2090565b55612ca1565b612d1861259b8861256f865f52601160205260405f2090565b612b89565b612d37906125c1876124ee865f52601460205260405f2090565b5f612b7e565b50600b546001600160a01b03163314612b26565b91929092612d60818585611e64565b833b612d6d575b50505050565b612d92916020916040519384928392630a85bd0160e11b97888552336004860161318e565b03815f6001600160a01b0388165af15f9181612e24575b50612de85782612db76131bf565b8051919082612de157604051633250574960e11b81526001600160a01b0383166004820152602490fd5b6020915001fd5b6001600160e01b03191603612e0157505f808080612d67565b604051633250574960e11b81526001600160a01b03919091166004820152602490fd5b612e4791925060203d602011612e4e575b612e3f81836107d1565b810190613179565b905f612da9565b503d612e35565b15612e5c57565b60405162461bcd60e51b815260206004820152602760248201527f5469636b65744d616e616765723a20776974686472617720746f207a65726f206044820152666164647265737360c81b6064820152608490fd5b908160209103126102fb57516104bc81610ab1565b6040513d5f823e3d90fd5b5f818152600260205260409020546001600160a01b0316908115612ef3575090565b60249060405190637e27328960e01b82526004820152fd5b15612f1257565b60405162461bcd60e51b8152602060048201526024808201527f5469636b65744d616e616765723a20696e76616c6964207469636b65742073746044820152636174757360e01b6064820152608490fd5b600b546001600160a01b03163303612f7757565b60405163118cdaa760e01b8152336004820152602490fd5b6002600c5414612fa0576002600c55565b604051633ee5aeb560e01b8152600490fd5b6001600160a01b039181831615611f7557612fcb613210565b805f5260026020528260405f205416613007575b612fe89161322e565b16612fef57565b6040516339e3563760e11b81525f6004820152602490fd5b600f60205260ff600860405f2001541615611f2157612fe89161303a611f0b6006611712855f52600f60205260405f2090565b9150612fdf565b919091805f526020600660205260405f20908451906001600160401b0382116107b157613078826130728554610d3e565b856128aa565b602090601f83116001146130e65750816130e19493926130cf927ff8e1a15aba9398e019f0b49df1a4fde98ee17ae345cb5f6b5e2c27f5033e8ce797985f926129565750508160011b915f199060031b1c19161790565b90556040519081529081906020820190565b0390a1565b90601f198316966130fa855f5260205f2090565b925f905b8982106131615750509183916001936130e19796957ff8e1a15aba9398e019f0b49df1a4fde98ee17ae345cb5f6b5e2c27f5033e8ce7999a10613149575b505050811b0190556114d8565b01515f1960f88460031b161c191690555f808061313c565b806001859682949686015181550195019301906130fe565b908160209103126102fb57516104bc816102e9565b6001600160a01b0391821681529116602082015260408101919091526080606082018190526104bc9291019061046d565b3d156131e9573d906131d082610801565b916131de60405193846107d1565b82523d5f602084013e565b606090565b613200905f52600460205260405f2090565b80546001600160a01b0319169055565b60ff600d541661321c57565b60405163d93c066560e01b8152600490fd5b5f828152600260205260409020546001600160a01b0316916001600160a01b038084168015918215613310575b84169182159081156132ed575b61327e86610656875f52600260205260405f2090565b8484847fddf252ad1be2c89b69c2b068fc378daa952ba7f163c4a11628f55a4df523b3ef5f80a4156132d7576132b384613418565b156132c45750506104bc91506134b0565b036132ce57505090565b6104bc9161346d565b8183146132b3576132e884876133aa565b6132b3565b6001600160a01b0386165f90815260036020526040902060018154019055613268565b613319846131ee565b6001600160a01b0386165f90815260036020526040902080545f1901905561325b565b5f828152600260205260409020549091906001600160a01b0316926001600160a01b039082828216613399575b505080841680159182156133105784169182159081156132ed5761327e86610656875f52600260205260405f2090565b6133a39186613578565b5f82613369565b905f916133b681612ad1565b82845260209060088252604093848620549360018060a01b0316865260078352848620938281036133f6575b508552600882528484812055845252812055565b828752848452858720548188528087892055875260088452858720555f6133e2565b600954815f52600a6020528060405f2055600160401b8110156107b15760018101806009558110156112a95760095f527f6e1540171b6c0c960b71a7020d9f60077f6af931a8bbf590da0223dacf75c7af0155565b9061347782612ad1565b5f198101929083116122635760018060a01b03165f52600760205260405f20825f526020528060405f20555f52600860205260405f2055565b600980545f19908181019080821161226357845f52600a6020528060405f20549210156112a957835f527f6e1540171b6c0c960b71a7020d9f60077f6af931a8bbf590da0223dacf75c7ae9485820154918310156112a9577f6e1540171b6c0c960b71a7020d9f60077f6af931a8bbf590da0223dacf75c7af83018290555f918252600a602052604080832093909355815290812055815490811561356457810192818410156112a9575f91838352015555565b634e487b7160e01b5f52603160045260245ffd5b6001600160a01b039082821680151590816135e3575b501561359a5750505050565b166135b857604051637e27328960e01b815260048101839052602490fd5b60405163177e802f60e01b81526001600160a01b039190911660048201526024810191909152604490fd5b82841680821492508215613619575b508115613601575b505f61358e565b9050845f5260046020528260405f205416145f6135fa565b9091505f52600560205260ff6136428560405f209060018060a01b03165f5260205260405f2090565b5416905f6135f256fea2646970667358221220740b63a533310d5cc656b9417fae71cf50983e2412c426f8a8a3e886c3acae8764736f6c63430008170033","linkReferences":{}},"methodIdentifiers":{"approve(address,uint256)":"095ea7b3","authorizedMinters(address)":"aa2fe91b","authorizedVerifiers(address)":"9a891716","balanceOf(address)":"70a08231","batchMintTickets(address[],uint256,uint256[],uint256,uint256,uint256,uint256,bool,string,string[])":"511bb724","cancelTicket(uint256,string)":"262dbfa7","emergencyWithdraw(address,address,uint256)":"e63ea408","eventPurchaseLimit(uint256)":"294e35bd","eventTickets(uint256,uint256)":"779cea77","expireTickets(uint256[])":"bac37866","getApproved(uint256)":"081812fc","getEventTickets(uint256)":"ca261ce1","getTicketInfo(uint256)":"ff99a063","getUserEventTickets(address,uint256)":"3fb5c253","getUserTickets(address)":"0484a22f","isApprovedForAll(address,address)":"e985e9c5","isTicketValid(uint256)":"fb3ae56f","mintTicket(address,uint256,uint256,uint256,uint256,uint256,uint256,bool,string,string)":"9da000fe","name()":"06fdde03","owner()":"8da5cb5b","ownerOf(uint256)":"6352211e","pause()":"8456cb59","paused()":"5c975abb","renounceOwnership()":"715018a6","safeTransferFrom(address,address,uint256)":"42842e0e","safeTransferFrom(address,address,uint256,bytes)":"b88d4fde","seatToTicket(uint256,uint256)":"2773b799","setApprovalForAll(address,bool)":"a22cb465","setEventPurchaseLimit(uint256,uint256)":"ea5e6e67","setMinterAuthorization(address,bool)":"378c2b86","setTicketTransferable(uint256,bool)":"6b6e3fcb","setVerifierAuthorization(address,bool)":"fab97aac","supportsInterface(bytes4)":"01ffc9a7","symbol()":"95d89b41","tickets(uint256)":"50b44712","tokenByIndex(uint256)":"4f6ccce7","tokenOfOwnerByIndex(address,uint256)":"2f745c59","tokenURI(uint256)":"c87b56dd","totalSupply()":"18160ddd","transferFrom(address,address,uint256)":"23b872dd","transferOwnership(address)":"f2fde38b","unpause()":"3f4ba83a","useTicket(uint256)":"26606448","userPurchaseCount(uint256,address)":"10007ee9","verifyTicketHash(uint256,bytes32)":"efe7a79d"},"id":61}