{"abi":[{"type":"constructor","inputs":[{"name":"initialOwner","type":"address","internalType":"address"},{"name":"_platformToken","type":"address","internalType":"address"},{"name":"lpTokenName","type":"string","internalType":"string"},{"name":"lpTokenSymbol","type":"string","internalType":"string"}],"stateMutability":"nonpayable"},{"type":"receive","stateMutability":"payable"},{"type":"function","name":"MINIMUM_LIQUIDITY","inputs":[],"outputs":[{"name":"","type":"uint256","internalType":"uint256"}],"stateMutability":"view"},{"type":"function","name":"addLiquidity","inputs":[{"name":"tokenAmount","type":"uint256","internalType":"uint256"},{"name":"minTokenAmount","type":"uint256","internalType":"uint256"},{"name":"minETHAmount","type":"uint256","internalType":"uint256"}],"outputs":[{"name":"liquidity","type":"uint256","internalType":"uint256"}],"stateMutability":"payable"},{"type":"function","name":"allowance","inputs":[{"name":"owner","type":"address","internalType":"address"},{"name":"spender","type":"address","internalType":"address"}],"outputs":[{"name":"","type":"uint256","internalType":"uint256"}],"stateMutability":"view"},{"type":"function","name":"approve","inputs":[{"name":"spender","type":"address","internalType":"address"},{"name":"value","type":"uint256","internalType":"uint256"}],"outputs":[{"name":"","type":"bool","internalType":"bool"}],"stateMutability":"nonpayable"},{"type":"function","name":"balanceOf","inputs":[{"name":"account","type":"address","internalType":"address"}],"outputs":[{"name":"","type":"uint256","internalType":"uint256"}],"stateMutability":"view"},{"type":"function","name":"calculateAddLiquidity","inputs":[{"name":"tokenAmount","type":"uint256","internalType":"uint256"}],"outputs":[{"name":"requiredETH","type":"uint256","internalType":"uint256"},{"name":"lpTokensOut","type":"uint256","internalType":"uint256"}],"stateMutability":"view"},{"type":"function","name":"calculateRemoveLiquidity","inputs":[{"name":"liquidity","type":"uint256","internalType":"uint256"}],"outputs":[{"name":"tokenAmount","type":"uint256","internalType":"uint256"},{"name":"ethAmount","type":"uint256","internalType":"uint256"}],"stateMutability":"view"},{"type":"function","name":"decimals","inputs":[],"outputs":[{"name":"","type":"uint8","internalType":"uint8"}],"stateMutability":"view"},{"type":"function","name":"emergencyWithdraw","inputs":[{"name":"token","type":"address","internalType":"address"},{"name":"to","type":"address","internalType":"address"},{"name":"amount","type":"uint256","internalType":"uint256"}],"outputs":[],"stateMutability":"nonpayable"},{"type":"function","name":"ethCumulativePrice","inputs":[],"outputs":[{"name":"","type":"uint256","internalType":"uint256"}],"stateMutability":"view"},{"type":"function","name":"flashLoan","inputs":[{"name":"tokenAmount","type":"uint256","internalType":"uint256"},{"name":"ethAmount","type":"uint256","internalType":"uint256"},{"name":"data","type":"bytes","internalType":"bytes"}],"outputs":[],"stateMutability":"nonpayable"},{"type":"function","name":"getETHAmountOut","inputs":[{"name":"tokenAmountIn","type":"uint256","internalType":"uint256"}],"outputs":[{"name":"","type":"uint256","internalType":"uint256"}],"stateMutability":"view"},{"type":"function","name":"getPoolStats","inputs":[],"outputs":[{"name":"totalValueLocked","type":"uint256","internalType":"uint256"},{"name":"volume24h","type":"uint256","internalType":"uint256"},{"name":"feesGenerated24h","type":"uint256","internalType":"uint256"},{"name":"apr","type":"uint256","internalType":"uint256"}],"stateMutability":"view"},{"type":"function","name":"getPrice","inputs":[],"outputs":[{"name":"tokenPrice","type":"uint256","internalType":"uint256"},{"name":"ethPrice","type":"uint256","internalType":"uint256"}],"stateMutability":"view"},{"type":"function","name":"getTWAP","inputs":[{"name":"timeWindow","type":"uint256","internalType":"uint256"}],"outputs":[{"name":"avgTokenPrice","type":"uint256","internalType":"uint256"},{"name":"avgETHPrice","type":"uint256","internalType":"uint256"}],"stateMutability":"view"},{"type":"function","name":"getTokenAmountOut","inputs":[{"name":"ethAmountIn","type":"uint256","internalType":"uint256"}],"outputs":[{"name":"","type":"uint256","internalType":"uint256"}],"stateMutability":"view"},{"type":"function","name":"getUserLiquidityInfo","inputs":[{"name":"user","type":"address","internalType":"address"}],"outputs":[{"name":"lpBalance","type":"uint256","internalType":"uint256"},{"name":"tokenValue","type":"uint256","internalType":"uint256"},{"name":"ethValue","type":"uint256","internalType":"uint256"},{"name":"sharePercentage","type":"uint256","internalType":"uint256"}],"stateMutability":"view"},{"type":"function","name":"lastUpdateTime","inputs":[],"outputs":[{"name":"","type":"uint256","internalType":"uint256"}],"stateMutability":"view"},{"type":"function","name":"maxSlippageRate","inputs":[],"outputs":[{"name":"","type":"uint256","internalType":"uint256"}],"stateMutability":"view"},{"type":"function","name":"multiSwap","inputs":[{"name":"tokens","type":"address[]","internalType":"address[]"},{"name":"amounts","type":"uint256[]","internalType":"uint256[]"},{"name":"","type":"uint256","internalType":"uint256"}],"outputs":[{"name":"","type":"uint256","internalType":"uint256"}],"stateMutability":"payable"},{"type":"function","name":"name","inputs":[],"outputs":[{"name":"","type":"string","internalType":"string"}],"stateMutability":"view"},{"type":"function","name":"owner","inputs":[],"outputs":[{"name":"","type":"address","internalType":"address"}],"stateMutability":"view"},{"type":"function","name":"pause","inputs":[],"outputs":[],"stateMutability":"nonpayable"},{"type":"function","name":"paused","inputs":[],"outputs":[{"name":"","type":"bool","internalType":"bool"}],"stateMutability":"view"},{"type":"function","name":"platformToken","inputs":[],"outputs":[{"name":"","type":"address","internalType":"contract IERC20"}],"stateMutability":"view"},{"type":"function","name":"protocolFeeRate","inputs":[],"outputs":[{"name":"","type":"uint256","internalType":"uint256"}],"stateMutability":"view"},{"type":"function","name":"removeLiquidity","inputs":[{"name":"liquidity","type":"uint256","internalType":"uint256"},{"name":"minTokenAmount","type":"uint256","internalType":"uint256"},{"name":"minETHAmount","type":"uint256","internalType":"uint256"}],"outputs":[{"name":"tokenAmount","type":"uint256","internalType":"uint256"},{"name":"ethAmount","type":"uint256","internalType":"uint256"}],"stateMutability":"nonpayable"},{"type":"function","name":"renounceOwnership","inputs":[],"outputs":[],"stateMutability":"nonpayable"},{"type":"function","name":"reserveETH","inputs":[],"outputs":[{"name":"","type":"uint256","internalType":"uint256"}],"stateMutability":"view"},{"type":"function","name":"reserveToken","inputs":[],"outputs":[{"name":"","type":"uint256","internalType":"uint256"}],"stateMutability":"view"},{"type":"function","name":"setMaxSlippageRate","inputs":[{"name":"newMaxSlippageRate","type":"uint256","internalType":"uint256"}],"outputs":[],"stateMutability":"nonpayable"},{"type":"function","name":"setProtocolFeeRate","inputs":[{"name":"newProtocolFeeRate","type":"uint256","internalType":"uint256"}],"outputs":[],"stateMutability":"nonpayable"},{"type":"function","name":"setSwapFeeRate","inputs":[{"name":"newSwapFeeRate","type":"uint256","internalType":"uint256"}],"outputs":[],"stateMutability":"nonpayable"},{"type":"function","name":"swapETHForTokens","inputs":[{"name":"minTokensOut","type":"uint256","internalType":"uint256"}],"outputs":[],"stateMutability":"payable"},{"type":"function","name":"swapFeeRate","inputs":[],"outputs":[{"name":"","type":"uint256","internalType":"uint256"}],"stateMutability":"view"},{"type":"function","name":"swapTokensForETH","inputs":[{"name":"tokenAmountIn","type":"uint256","internalType":"uint256"},{"name":"minETHOut","type":"uint256","internalType":"uint256"}],"outputs":[],"stateMutability":"nonpayable"},{"type":"function","name":"symbol","inputs":[],"outputs":[{"name":"","type":"string","internalType":"string"}],"stateMutability":"view"},{"type":"function","name":"tokenCumulativePrice","inputs":[],"outputs":[{"name":"","type":"uint256","internalType":"uint256"}],"stateMutability":"view"},{"type":"function","name":"totalLiquidity","inputs":[],"outputs":[{"name":"","type":"uint256","internalType":"uint256"}],"stateMutability":"view"},{"type":"function","name":"totalProtocolFeesETH","inputs":[],"outputs":[{"name":"","type":"uint256","internalType":"uint256"}],"stateMutability":"view"},{"type":"function","name":"totalProtocolFeesToken","inputs":[],"outputs":[{"name":"","type":"uint256","internalType":"uint256"}],"stateMutability":"view"},{"type":"function","name":"totalSupply","inputs":[],"outputs":[{"name":"","type":"uint256","internalType":"uint256"}],"stateMutability":"view"},{"type":"function","name":"transfer","inputs":[{"name":"to","type":"address","internalType":"address"},{"name":"value","type":"uint256","internalType":"uint256"}],"outputs":[{"name":"","type":"bool","internalType":"bool"}],"stateMutability":"nonpayable"},{"type":"function","name":"transferFrom","inputs":[{"name":"from","type":"address","internalType":"address"},{"name":"to","type":"address","internalType":"address"},{"name":"value","type":"uint256","internalType":"uint256"}],"outputs":[{"name":"","type":"bool","internalType":"bool"}],"stateMutability":"nonpayable"},{"type":"function","name":"transferOwnership","inputs":[{"name":"newOwner","type":"address","internalType":"address"}],"outputs":[],"stateMutability":"nonpayable"},{"type":"function","name":"unpause","inputs":[],"outputs":[],"stateMutability":"nonpayable"},{"type":"function","name":"userLiquidity","inputs":[{"name":"","type":"address","internalType":"address"}],"outputs":[{"name":"","type":"uint256","internalType":"uint256"}],"stateMutability":"view"},{"type":"function","name":"withdrawProtocolFees","inputs":[{"name":"isETH","type":"bool","internalType":"bool"},{"name":"amount","type":"uint256","internalType":"uint256"}],"outputs":[],"stateMutability":"nonpayable"},{"type":"event","name":"Approval","inputs":[{"name":"owner","type":"address","indexed":true,"internalType":"address"},{"name":"spender","type":"address","indexed":true,"internalType":"address"},{"name":"value","type":"uint256","indexed":false,"internalType":"uint256"}],"anonymous":false},{"type":"event","name":"FeeRatesUpdated","inputs":[{"name":"swapFeeRate","type":"uint256","indexed":false,"internalType":"uint256"},{"name":"protocolFeeRate","type":"uint256","indexed":false,"internalType":"uint256"}],"anonymous":false},{"type":"event","name":"LiquidityAdded","inputs":[{"name":"provider","type":"address","indexed":true,"internalType":"address"},{"name":"tokenAmount","type":"uint256","indexed":false,"internalType":"uint256"},{"name":"ethAmount","type":"uint256","indexed":false,"internalType":"uint256"},{"name":"liquidity","type":"uint256","indexed":false,"internalType":"uint256"}],"anonymous":false},{"type":"event","name":"LiquidityRemoved","inputs":[{"name":"provider","type":"address","indexed":true,"internalType":"address"},{"name":"tokenAmount","type":"uint256","indexed":false,"internalType":"uint256"},{"name":"ethAmount","type":"uint256","indexed":false,"internalType":"uint256"},{"name":"liquidity","type":"uint256","indexed":false,"internalType":"uint256"}],"anonymous":false},{"type":"event","name":"OwnershipTransferred","inputs":[{"name":"previousOwner","type":"address","indexed":true,"internalType":"address"},{"name":"newOwner","type":"address","indexed":true,"internalType":"address"}],"anonymous":false},{"type":"event","name":"Paused","inputs":[{"name":"account","type":"address","indexed":false,"internalType":"address"}],"anonymous":false},{"type":"event","name":"PriceUpdated","inputs":[{"name":"tokenPrice","type":"uint256","indexed":false,"internalType":"uint256"},{"name":"ethPrice","type":"uint256","indexed":false,"internalType":"uint256"},{"name":"timestamp","type":"uint256","indexed":false,"internalType":"uint256"}],"anonymous":false},{"type":"event","name":"ReservesUpdated","inputs":[{"name":"reserveToken","type":"uint256","indexed":false,"internalType":"uint256"},{"name":"reserveETH","type":"uint256","indexed":false,"internalType":"uint256"}],"anonymous":false},{"type":"event","name":"Swap","inputs":[{"name":"user","type":"address","indexed":true,"internalType":"address"},{"name":"tokenIn","type":"address","indexed":true,"internalType":"address"},{"name":"tokenOut","type":"address","indexed":true,"internalType":"address"},{"name":"amountIn","type":"uint256","indexed":false,"internalType":"uint256"},{"name":"amountOut","type":"uint256","indexed":false,"internalType":"uint256"},{"name":"fee","type":"uint256","indexed":false,"internalType":"uint256"}],"anonymous":false},{"type":"event","name":"Transfer","inputs":[{"name":"from","type":"address","indexed":true,"internalType":"address"},{"name":"to","type":"address","indexed":true,"internalType":"address"},{"name":"value","type":"uint256","indexed":false,"internalType":"uint256"}],"anonymous":false},{"type":"event","name":"Unpaused","inputs":[{"name":"account","type":"address","indexed":false,"internalType":"address"}],"anonymous":false},{"type":"error","name":"ERC20InsufficientAllowance","inputs":[{"name":"spender","type":"address","internalType":"address"},{"name":"allowance","type":"uint256","internalType":"uint256"},{"name":"needed","type":"uint256","internalType":"uint256"}]},{"type":"error","name":"ERC20InsufficientBalance","inputs":[{"name":"sender","type":"address","internalType":"address"},{"name":"balance","type":"uint256","internalType":"uint256"},{"name":"needed","type":"uint256","internalType":"uint256"}]},{"type":"error","name":"ERC20InvalidApprover","inputs":[{"name":"approver","type":"address","internalType":"address"}]},{"type":"error","name":"ERC20InvalidReceiver","inputs":[{"name":"receiver","type":"address","internalType":"address"}]},{"type":"error","name":"ERC20InvalidSender","inputs":[{"name":"sender","type":"address","internalType":"address"}]},{"type":"error","name":"ERC20InvalidSpender","inputs":[{"name":"spender","type":"address","internalType":"address"}]},{"type":"error","name":"EnforcedPause","inputs":[]},{"type":"error","name":"ExpectedPause","inputs":[]},{"type":"error","name":"OwnableInvalidOwner","inputs":[{"name":"owner","type":"address","internalType":"address"}]},{"type":"error","name":"OwnableUnauthorizedAccount","inputs":[{"name":"account","type":"address","internalType":"address"}]},{"type":"error","name":"ReentrancyGuardReentrantCall","inputs":[]}],"bytecode":{"object":"0x60a0604052346200043e5762003246803803806200001d8162000442565b92833981016080828203126200043e57620000388262000468565b6020906200004882850162000468565b60408501516001600160401b0395908681116200043e57856200006d9183016200047d565b9460608201518781116200043e576200008792016200047d565b94845181811162000349576003908154906001978883811c9316801562000433575b888410146200041f578190601f93848111620003cc575b50889084831160011462000369575f926200035d575b50505f1982851b1c191690881b1782555b8751928311620003495760049788548881811c911680156200033e575b888210146200032b579081838695949311620002d4575b50879184116001146200026d575f9362000261575b505082871b925f19911b1c19161785555b6001600160a01b039182169384156200024a57600580546001600160a01b031981168717909155604051959084167f8be0079c531659141344cd1fd0a4f28419497f9722a3daafe3b4186f6b6457e05f80a3600655601e600a556005600b556103e86013551692831562000201578360805242600e55604051612d589081620004ee8239608051818181610611015281816109b101528181610e98015281816114010152818161180701528181611b85015281816121ef0152612a250152f35b62461bcd60e51b8352820152602160248201527f546f6b656e537761703a20696e76616c696420706c6174666f726d20746f6b656044820152603760f91b606482015260849150fd5b604051631e4fbdf760e01b81525f81880152602490fd5b015191505f8062000130565b9190889450601f198416928a5f52885f20935f5b8a828210620002bd5750508511620002a3575b50505050811b01855562000141565b01519060f8845f19921b161c191690555f80808062000294565b8385015187558c9890960195938401930162000281565b9091929350895f52875f208380870160051c8201928a881062000321575b918b918897969594930160051c01915b828110620003125750506200011b565b5f81558796508b910162000302565b92508192620002f2565b60228a634e487b7160e01b5f525260245ffd5b90607f169062000104565b634e487b7160e01b5f52604160045260245ffd5b015190505f80620000d6565b908a9350601f19831691865f528a5f20925f5b8c828210620003b557505084116200039d575b505050811b018255620000e7565b01515f1983871b60f8161c191690555f80806200038f565b8385015186558e979095019493840193016200037c565b909150845f52885f208480850160051c8201928b861062000415575b918c91869594930160051c01915b82811062000406575050620000c0565b5f81558594508c9101620003f6565b92508192620003e8565b634e487b7160e01b5f52602260045260245ffd5b92607f1692620000a9565b5f80fd5b6040519190601f01601f191682016001600160401b038111838210176200034957604052565b51906001600160a01b03821682036200043e57565b919080601f840112156200043e5782516001600160401b0381116200034957602090620004b3601f8201601f1916830162000442565b928184528282870101116200043e575f5b818110620004d95750825f9394955001015290565b8581018301518482018401528201620004c456fe6040608081526004908136101561001f575b5050361561001d575f80fd5b005b5f915f3560e01c90816303f4950d146120d457816303fa18601461200857816306fdde0314611f14578163095ea7b314611e6c5781630bb0cc0c14611b01578163100af20314611ae257816315770f9214611ac357816317b6831e14611aa457816318160ddd14611a855781631993876f14611a6657816323b872dd146119885781632eab284114611726578163313ce5671461170a5781633a04801d146116eb5781633f4ba83a14611681578163422f10431461132357816358f85880146113045781635c975abb146112e05781636b8e01541461119857816370a082311461116157816371073b3814611141578163715018a6146110e45781638456cb5914611089578163857620e114610daf57816387e42a4d14610d905781638da5cb5b14610d6757816395d89b4114610c6257816398d5fdca14610b9a578163a22280a6146108d7578163a9059cbb146108a6578163b13aa2d6146107f5578163ba4c28c3146107bd578163ba9a7a56146107a0578163bbb8518814610748578163c204220214610729578163c8f33c911461070a578163cd192db5146106e3578163d1154ff014610640578163d1b812cd146105fc578163d80d6fc01461059b578163dd62ed3e14610547578163e63ea40814610413578163ee86cc7714610397578163f2fad2b614610338578163f2fde38b146102a4578163f30d3d1b1461027657508063f4325d67146102585763f550a62b0361001157346102545781600319360112610254576020906011549051908152f35b5080fd5b50346102545781600319360112610254576020906008549051908152f35b905082346102a15760203660031901126102a1575061029590356127a3565b82519182526020820152f35b80fd5b905034610334576020366003190112610334576102bf6122a0565b906102c86128d6565b6001600160a01b0391821692831561031e575050600554826bffffffffffffffffffffffff60a01b821617600555167f8be0079c531659141344cd1fd0a4f28419497f9722a3daafe3b4186f6b6457e05f80a380f35b51631e4fbdf760e01b8152908101849052602490fd5b8280fd5b839150346102545760203660031901126102545735819060025480610366575b505082519182526020820152f35b90925061039091506103816103868261038160085487612437565b61244a565b9360095490612437565b8380610358565b905034610334576020366003190112610334578035916103b56128d6565b6107d083116103c657505060135580f35b906020608492519162461bcd60e51b8352820152602160248201527f546f6b656e537761703a20736c697070616765207261746520746f6f206869676044820152600d60fb1b6064820152fd5b83833461025457610423366122fd565b919461042d6128d6565b6001600160a01b03828116929083156104f8578697969596169182155f1461047c575050508280928192828215610473575bf115610469575080f35b51903d90823e3d90fd5b506108fc61045f565b865163a9059cbb60e01b81526001600160a01b039092169082019081526020818101959095529095948693508391829060400103925af19081156104ef57506104c3575080f35b6104e49060203d6020116104e8575b6104dc818361239e565b8101906123d4565b5080f35b503d6104d2565b513d84823e3d90fd5b855162461bcd60e51b8152602081850152602360248201527f546f6b656e537761703a20776974686472617720746f207a65726f206164647260448201526265737360e81b6064820152608490fd5b5050346102545780600319360112610254576105616122a0565b6001600160a01b03926024358481169291908390036105975760209484921681526001855220905f528252805f20549051908152f35b5f80fd5b839150346102545760203660031901126102545735905060025480155f146105d057506102956105cb8280612437565b612be2565b6105f7906103816105e360095485612437565b916105f1600854809461244a565b94612437565b610295565b505034610254578160031936011261025457517f00000000000000000000000000000000000000000000000000000000000000006001600160a01b03168152602090f35b9050346103345760203660031901126103345780359061065e6128d6565b6103e882116106a0575090817f4f672c50736ba0fe8a4825ecfde8bcd931727422a77ac89af44fccce2746e0b392600a55600b5482519182526020820152a180f35b606490602084519162461bcd60e51b8352820152601c60248201527f546f6b656e537761703a20666565207261746520746f6f2068696768000000006044820152fd5b8284346102a15760203660031901126102a1575061070360209235612730565b9051908152f35b505034610254578160031936011261025457602090600e549051908152f35b5050346102545781600319360112610254576020906013549051908152f35b905082346102a157806003193601126102a157600954918260011b928084046002149015171561078d576080835f8680519283528160208401528201525f6060820152f35b634e487b7160e01b825260119052602490fd5b505034610254578160031936011261025457602090516103e88152f35b5050346102545760203660031901126102545760209181906001600160a01b036107e56122a0565b168152600c845220549051908152f35b905034610334576020366003190112610334578035906108136128d6565b60328211610855575090817f4f672c50736ba0fe8a4825ecfde8bcd931727422a77ac89af44fccce2746e0b392600b55600a549082519182526020820152a180f35b608490602084519162461bcd60e51b8352820152602560248201527f546f6b656e537761703a2070726f746f636f6c20666565207261746520746f6f604482015264040d0d2ced60db1b6064820152fd5b5050346102545780600319360112610254576020906108d06108c66122a0565b6024359033612925565b5160018152f35b8391503461025457826003193601126102545780356024356108f7612902565b6108ff6129ec565b61090882612730565b81811115610b905761091a828261237d565b61271090818102918183041490151715610b7d576109459161093b9161244a565b60135410156124c0565b8115610b3a5761096061095783612730565b9182101561250c565b6009548111610ae95793839461271061097b600a5485612437565b0491606461098b600b5485612437565b82516323b872dd60e01b81523397810197885230602089810191909152604089018890527f00000000000000000000000000000000000000000000000000000000000000006001600160a01b03169893909204929091908290819060600103818b8b5af1908115610adf5790610a08918991610ac0575b506123ec565b610a1485600854612468565b600855610a238360095461237d565b6009558680848015610ab6575b8280929181923390f115610aac577fd6d34547c69c5ee3d2667625c188acf1006abb93e0ee7cf03925c67cf7760413939291610a71610a9192601154612468565b601155519283923396846040919493926060820195825260208201520152565b0390a4610a9c612a0a565b610aa4612aee565b600160065580f35b81513d88823e3d90fd5b6108fc9150610a30565b610ad9915060203d6020116104e8576104dc818361239e565b8a610a02565b83513d8a823e3d90fd5b845162461bcd60e51b8152602081850152602560248201527f546f6b656e537761703a20696e73756666696369656e7420455448206c697175604482015264696469747960d81b6064820152608490fd5b845162461bcd60e51b8152602081850152601f60248201527f546f6b656e537761703a20696e76616c696420746f6b656e20616d6f756e74006044820152606490fd5b634e487b7160e01b865260118552602486fd5b506109458461093b565b8284346102a157806003193601126102a157600954801591821580610c57575b15610c1457670de0b6b3a7640000908183029383850483141715610c0157610be5600854809561244a565b93828102928184041490151715610c015750906102959161244a565b634e487b7160e01b815260118652602490fd5b835162461bcd60e51b8152602081870152601760248201527f546f6b656e537761703a206e6f206c69717569646974790000000000000000006044820152606490fd5b506008541515610bba565b83833461025457816003193601126102545780519180938054916001908360011c9260018516948515610d5d575b6020958686108114610d4a57858952908115610d265750600114610cce575b610cca8787610cc0828c038361239e565b51918291826122b6565b0390f35b81529295507f8a35acfbc15ff81a39ae7d344fd709f28e8600b4aa8c65c6b64bfe7fe36bd19b5b828410610d135750505082610cca94610cc092820101948680610caf565b8054868501880152928601928101610cf5565b60ff19168887015250505050151560051b8301019250610cc082610cca8680610caf565b634e487b7160e01b845260228352602484fd5b93607f1693610c90565b50503461025457816003193601126102545760055490516001600160a01b039091168152602090f35b5050346102545781600319360112610254576020906012549051908152f35b905082346102a157610dc036612332565b93919092610dcc612902565b811561104657338152602092818452828783205410610ff957610e2060025496610e18610e0f610e028a6103816008548a612437565b9961038160095489612437565b978910156125bc565b861015612614565b3315610fe457335f525f8452865f2054838110610fb85786610e9392858793335f525f8552038a5f205585600254036002555f8a518781525f80516020612d03833981519152853392a3895163a9059cbb60e01b8152339181019182526020820192909252909283918291604090910190565b0381857f00000000000000000000000000000000000000000000000000000000000000006001600160a01b03165af1908115610fae5790610eda918391610f9157506123ec565b8080858015610f87575b8280929181923390f115610f7c578590338152600c845220610f0782825461237d565b9055610f1581600d5461237d565b600d557f1dc8bb69df2b8e91fbdcbfcf93d951b3f0000f085a95fe3f7946d6161439245d855180610f5a33948789846040919493926060820195825260208201520152565b0390a2610f65612a0a565b610f6d612aee565b60016006558351928352820152f35b8551903d90823e3d90fd5b6108fc9150610ee4565b610fa89150853d87116104e8576104dc818361239e565b88610a02565b87513d84823e3d90fd5b875163391434e360e21b8152339281019283526020830191909152604082018490529081906060010390fd5b602491875191634b637e8f60e11b8352820152fd5b865162461bcd60e51b8152908101849052602160248201527f546f6b656e537761703a20696e73756666696369656e74204c5020746f6b656e6044820152607360f81b6064820152608490fd5b855162461bcd60e51b8152602081850152601c60248201527f546f6b656e537761703a20696e76616c6964206c6971756964697479000000006044820152606490fd5b50503461025457816003193601126102545760207f62e78cea01bee320cd4e420270b5ea74000d11b0c9f74754ebdbfc544b05a258916110c76128d6565b6110cf6129ec565b600160ff19600754161760075551338152a180f35b83346102a157806003193601126102a1576110fd6128d6565b600580546001600160a01b031981169091555f906001600160a01b03167f8be0079c531659141344cd1fd0a4f28419497f9722a3daafe3b4186f6b6457e08280a380f35b8284346102a15760203660031901126102a15750610703602092356126b7565b5050346102545760203660031901126102545760209181906001600160a01b036111896122a0565b16815280845220549051908152f35b90508260603660031901126102a15767ffffffffffffffff8235818111610334576111c6903690850161234c565b9290506024359182116102a157506111e1903690840161234c565b90506111eb612902565b6111f36129ec565b810361129d57608492600260209210611255575162461bcd60e51b815291820152602960248201527f546f6b656e537761703a206d756c74692d73776170206e6f7420696d706c656d604482015268195b9d1959081e595d60ba1b6064820152fd5b5162461bcd60e51b815291820152602260248201527f546f6b656e537761703a20696e73756666696369656e74207377617020737465604482015261707360f01b6064820152fd5b506020606492519162461bcd60e51b8352820152602060248201527f546f6b656e537761703a206172726179206c656e677468206d69736d617463686044820152fd5b50503461025457816003193601126102545760209060ff6007541690519015158152f35b505034610254578160031936011261025457602090600b549051908152f35b838361132e36612332565b9091611338612902565b6113406129ec565b809281151580611678575b156116355734926002549283155f1461155f575050505061136f6105cb8284612437565b6103e719810194908511610c0157611388851515612566565b3015611549576002546103e89081810180911161153657600255305f525f602052845f2081815401905584519081525f5f80516020612d0383398151915260203093a35b83516323b872dd60e01b81523387820190815230602082810191909152604082018690529791908890829081906060010381867f00000000000000000000000000000000000000000000000000000000000000006001600160a01b03165af190811561152c579061144391849161150f57506123ec565b33156114f957507f64b83944e79c3ce8d4c297411de637c3e102d064677aac0c163976ebdcd6f50e9184869261147b84600254612468565b600255335f525f8952815f2084815401905581518481525f5f80516020612d038339815191528b3393a3338152600c8952206114b8838254612468565b90556114c682600d54612468565b600d558451938452602084015260408301523391606090a26114e6612a0a565b6114ee612aee565b600160065551908152f35b6024905f86519163ec442f0560e01b8352820152fd5b6115269150893d8b116104e8576104dc818361239e565b89610a02565b86513d85823e3d90fd5b601188634e487b7160e01b5f525260245ffd5b835163ec442f0560e01b81525f81880152602490fd5b61157192955083979450929092612437565b9060085491826115809161244a565b958061158c8134612437565b93600954948561159b9161244a565b9889808210911802808a189914156115b290612566565b6115bc9089612437565b906115c69161244a565b926115d19088612437565b906115db9161244a565b938210156115e8906125bc565b8310156115f490612614565b823411611603575b91906113cc565b81808080611611873461237d565b81811561162c575b3390f16115fc57508251903d90823e3d90fd5b506108fc611619565b845162461bcd60e51b8152602081890152601a60248201527f546f6b656e537761703a20696e76616c696420616d6f756e74730000000000006044820152606490fd5b5034151561134b565b90503461033457826003193601126103345761169b6128d6565b6007549060ff8216156116dd575060ff1916600755513381527f5db9ee0a495bf2e6ff9c91a7834c1ba4fdd244a5e8aa4e537bd38aeae4b073aa90602090a180f35b8251638dfc202b60e01b8152fd5b505034610254578160031936011261025457602090600a549051908152f35b5050346102545781600319360112610254576020905160128152f35b91905060208060031936011261198457823591611741612902565b6117496129ec565b611752346126b7565b8381111561197a57611764848261237d565b61271090818102918183041490151715611967576117859161093b9161244a565b3415611926576117a0611797346126b7565b9384101561250c565b6008548084116118d35790859392916127106117be600a5434612437565b04926117e88560646117d2600b5488612437565b04936117e034600954612468565b60095561237d565b600855825163a9059cbb60e01b815233978101978852602088018690527f00000000000000000000000000000000000000000000000000000000000000006001600160a01b03169782908290819060400103818a8c5af19182156118c95792611884610a91959361188c937fd6d34547c69c5ee3d2667625c188acf1006abb93e0ee7cf03925c67cf776041398968b926118ac575b50506123ec565b601254612468565b601255513481526020810194909452604084015233929081906060820190565b6118c29250803d106104e8576104dc818361239e565b5f8061187d565b84513d89823e3d90fd5b815162461bcd60e51b8152808601849052602760248201527f546f6b656e537761703a20696e73756666696369656e7420746f6b656e206c696044820152667175696469747960c81b6064820152608490fd5b5162461bcd60e51b81529283015250601d60248201527f546f6b656e537761703a20696e76616c69642045544820616d6f756e740000006044820152606490fd5b634e487b7160e01b875260118652602487fd5b506117858561093b565b8380fd5b905082346102a157611999366122fd565b9390928560018060a01b03841691828152600160205220335f52602052855f2054915f1983106119d2575b6020876108d0888888612925565b858310611a3a578115611a24573315611a0e57505f908152600160209081528682203383528152908690209185900390915582906108d06119c4565b6024905f885191634a1406b160e11b8352820152fd5b6024905f88519163e602df0560e01b8352820152fd5b8651637dc7a0d960e11b8152339181019182526020820193909352604081018690528291506060010390fd5b505034610254578160031936011261025457602090600f549051908152f35b5050346102545781600319360112610254576020906002549051908152f35b5050346102545781600319360112610254576020906010549051908152f35b505034610254578160031936011261025457602090600d549051908152f35b5050346102545781600319360112610254576020906009549051908152f35b91905034610597576060366003190112610597578135916024918235936044359367ffffffffffffffff8086116105975736602387011215610597578585013594818611610597573683878901011161059757611b5c612902565b6008548411801590611e60575b15611e1f5784516370a0823160e01b80825230838301529790947f00000000000000000000000000000000000000000000000000000000000000006001600160a01b031694602094909290858885818a5afa978815611d54575f98611df0575b50479983611d83575b8c80158015611d5e575b5050333b1561059757836084878f959380898f965f9751998a978896637924fd7d60e01b8852870152828601526060604486015282606486015201848401378181018301859052601f01601f1916810103018183335af18015611d5457611d2c575b505090839291611c61600a548092611c5a612710948592612437565b049c612437565b049887519586938492835230908301525afa938415611d2357508793611ce7575b87611cdc6064611cd38a8a611cb18b611ca68c611c9f868e612468565b1115612475565b611c9f834792612468565b611ccb84611cc2600b548095612437565b04601154612468565b601155612437565b04601254612468565b601255600160065580f35b9080949592969350813d8311611d1c575b611d02818361239e565b810103126105975791519093919291611cb1611cd3611c82565b503d611cf8565b513d89823e3d90fd5b9080929c5011611d415786525f99838b611c3e565b50634e487b7160e01b5f90815260418352fd5b89513d5f823e3d90fd5b5f80809381938290611d7a575b3390f115611d54578c5f611bdc565b506108fc611d6b565b895163a9059cbb60e01b8152338782019081526020810186905288908290819060400103815f8d5af1908115611de65790611dc4915f91611dc957506123ec565b611bd2565b611de09150893d8b116104e8576104dc818361239e565b5f610a02565b8b513d5f823e3d90fd5b9097508581813d8311611e18575b611e08818361239e565b810103126105975751965f611bc9565b503d611dfe565b6064906020848188519362461bcd60e51b85528401528201527f546f6b656e537761703a20696e73756666696369656e742072657365727665736044820152fd5b50600954881115611b69565b8234610597578060031936011261059757611e856122a0565b602435903315611efe576001600160a01b0316908115611ee85760209350335f5260018452825f20825f52845280835f205582519081527f8c5be1e5ebec7d5bd14f71427d1e84f3dd0314c0f7b2291e5b200ac8c7c3b925843392a35160018152f35b8251634a1406b160e11b81525f81860152602490fd5b825163e602df0560e01b81525f81860152602490fd5b8234610597575f366003190112610597578051905f9260035460018160011c91600181168015611ffe575b6020948585108214611feb5750838752908115611fcb5750600114611f71575b505050610cc082610cca94038361239e565b60035f9081529295507fc2575a0e9e593c00f959f8c92f12db2869c3395a3b0502d05e2516446f71f85b5b828410611fb85750505082610cca94610cc09282010194611f5f565b8054868501880152928601928101611f9c565b60ff1916868501525050151560051b8301019250610cc082610cca611f5f565b602290634e487b7160e01b5f525260245ffd5b92607f1692611f3f565b8234610597576020366003190112610597576120226122a0565b6001600160a01b03165f90815260208190528181205460025493909282918290861515806120cb575b612069575b5060809550815194855260208501528301526060820152f35b925050915061207e8461038160085486612437565b9161208f8561038160095487612437565b91612710908186029186830414861517156120b857506080956120b19161244a565b9286612050565b601190634e487b7160e01b5f525260245ffd5b5085151561204b565b905034610597578160031936011261059757803590811515820361059757602435916120fe6128d6565b15612192576012549081831161214f57505f808361211e8295839561237d565b6012556005546001600160a01b0316828215612146575bf11561213d57005b513d5f823e3d90fd5b506108fc612135565b606490602085519162461bcd60e51b8352820152602060248201527f546f6b656e537761703a20696e73756666696369656e742045544820666565736044820152fd5b60115480831161225257916020916121ad826121eb9561237d565b601155600554855163a9059cbb60e01b81526001600160a01b039182169281019283526020830193909352919384929183915f918391604090910190565b03927f0000000000000000000000000000000000000000000000000000000000000000165af19081156122485761001d92505f9161222957506123ec565b612242915060203d6020116104e8576104dc818361239e565b82610a02565b82513d5f823e3d90fd5b835162461bcd60e51b8152602081840152602260248201527f546f6b656e537761703a20696e73756666696369656e7420746f6b656e206665604482015261657360f01b6064820152608490fd5b600435906001600160a01b038216820361059757565b602080825282518183018190529093925f5b8281106122e957505060409293505f838284010152601f8019910116010190565b8181018601518482016040015285016122c8565b6060906003190112610597576001600160a01b0390600435828116810361059757916024359081168103610597579060443590565b606090600319011261059757600435906024359060443590565b9181601f840112156105975782359167ffffffffffffffff8311610597576020808501948460051b01011161059757565b9190820391821161238a57565b634e487b7160e01b5f52601160045260245ffd5b90601f8019910116810190811067ffffffffffffffff8211176123c057604052565b634e487b7160e01b5f52604160045260245ffd5b90816020910312610597575180151581036105975790565b156123f357565b606460405162461bcd60e51b815260206004820152602060248201527f546f6b656e537761703a20746f6b656e207472616e73666572206661696c65646044820152fd5b8181029291811591840414171561238a57565b8115612454570490565b634e487b7160e01b5f52601260045260245ffd5b9190820180921161238a57565b1561247c57565b606460405162461bcd60e51b815260206004820152602060248201527f546f6b656e537761703a20666c617368206c6f616e206e6f74207265706169646044820152fd5b156124c757565b60405162461bcd60e51b815260206004820152601c60248201527f546f6b656e537761703a20736c69707061676520746f6f2068696768000000006044820152606490fd5b1561251357565b60405162461bcd60e51b815260206004820152602560248201527f546f6b656e537761703a20696e73756666696369656e74206f757470757420616044820152641b5bdd5b9d60da1b6064820152608490fd5b1561256d57565b60405162461bcd60e51b815260206004820152602160248201527f546f6b656e537761703a20696e73756666696369656e74206c697175696469746044820152607960f81b6064820152608490fd5b156125c357565b60405162461bcd60e51b8152602060048201526024808201527f546f6b656e537761703a20696e73756666696369656e7420746f6b656e20616d6044820152631bdd5b9d60e21b6064820152608490fd5b1561261b57565b60405162461bcd60e51b815260206004820152602260248201527f546f6b656e537761703a20696e73756666696369656e742045544820616d6f756044820152611b9d60f21b6064820152608490fd5b1561267257565b60405162461bcd60e51b815260206004820152601f60248201527f546f6b656e537761703a20696e76616c696420696e70757420616d6f756e74006044820152606490fd5b6126c281151561266b565b60095490811591821580612725575b6126da90612566565b600a549161271092830383811161238a576126f491612437565b9261270160085485612437565b9280830292830414171561238a576127229261271c91612468565b9061244a565b90565b5060085415156126d1565b61273b81151561266b565b6009549081151580612798575b61275190612566565b600a54906127109182039082821161238a576127779161277091612437565b9283612437565b9060085481810291818304149015171561238a576127229261271c91612468565b506008541515612748565b90811561289157600e548042111561284c576127bf904261237d565b9182106127de576127226127d583600f5461244a565b9260105461244a565b60408051634c6afee560e11b815292508083600481305afa928315612842575f915f9461280c575b50509190565b8194508092503d831161283b575b612824818361239e565b810103126105975760208251920151915f80612806565b503d61281a565b50513d5f823e3d90fd5b60405162461bcd60e51b815260206004820152601b60248201527f546f6b656e537761703a206e6f207072696365207570646174657300000000006044820152606490fd5b60405162461bcd60e51b815260206004820152601e60248201527f546f6b656e537761703a20696e76616c69642074696d652077696e646f7700006044820152606490fd5b6005546001600160a01b031633036128ea57565b60405163118cdaa760e01b8152336004820152602490fd5b600260065414612913576002600655565b604051633ee5aeb560e01b8152600490fd5b916001600160a01b038084169283156129d457169283156129bc57825f525f60205260405f20549082821061298a5750815f80516020612d0383398151915292602092855f525f84520360405f2055845f5260405f20818154019055604051908152a3565b60405163391434e360e21b81526001600160a01b03919091166004820152602481019190915260448101829052606490fd5b60405163ec442f0560e01b81525f6004820152602490fd5b604051634b637e8f60e11b81525f6004820152602490fd5b60ff600754166129f857565b60405163d93c066560e01b8152600490fd5b6040516370a0823160e01b81523060048201526020816024817f00000000000000000000000000000000000000000000000000000000000000006001600160a01b03165afa908115612ae3575f91612ab0575b506040612a8e7f5141ecc84a35c12ca2bf76bb33d393bd2fc22f906da0743534beef4ae63c6c8e926011549061237d565b80600855612a9f476012549061237d565b8060095582519182526020820152a1565b90506020813d602011612adb575b81612acb6020938361239e565b8101031261059757516040612a5d565b3d9150612abe565b6040513d5f823e3d90fd5b600954801590811580612bd7575b612b04575050565b612b10600e544261237d565b9182612b1b57505050565b670de0b6b3a764000091828102918183048414171561238a5760085493612b56612b4e82612b49888761244a565b612437565b600f54612468565b600f5583850293858504148515171561238a577f15819dd2fd9f6418b142e798d08a18d0bf06ea368f4480b7b0d3f75bd966bc4894612bbd93612bab612ba3612bb794612b49878a61244a565b601054612468565b60105542600e5561244a565b9261244a565b6040805192835260208301919091524290820152606090a1565b506008541515612afc565b600180821115612cfe57612c9f908083600160801b811015612cec575b80600160401b6004921015612cdf575b640100000000811015612cd2575b62010000811015612cc5575b610100811015612cb9575b6010811015612cad575b1015612ca6575b600302811c612c54818561244a565b01811c612c61818561244a565b01811c612c6e818561244a565b01811c612c7b818561244a565b01811c612c88818561244a565b01811c612c95818561244a565b01901c809261244a565b8111900390565b811b612c45565b811c9160021b91612c3e565b60081c91811b91612c34565b60101c9160081b91612c29565b60201c9160101b91612c1d565b60401c9160201b91612c0f565b50600160401b9050608084901c612bff565b509056feddf252ad1be2c89b69c2b068fc378daa952ba7f163c4a11628f55a4df523b3efa2646970667358221220f87a940ada85f20a049328b47992b287819dfee5fb67f36ecaf630ec6d98153264736f6c63430008170033","linkReferences":{}},"methodIdentifiers":{"MINIMUM_LIQUIDITY()":"ba9a7a56","addLiquidity(uint256,uint256,uint256)":"422f1043","allowance(address,address)":"dd62ed3e","approve(address,uint256)":"095ea7b3","balanceOf(address)":"70a08231","calculateAddLiquidity(uint256)":"d80d6fc0","calculateRemoveLiquidity(uint256)":"f2fad2b6","decimals()":"313ce567","emergencyWithdraw(address,address,uint256)":"e63ea408","ethCumulativePrice()":"17b6831e","flashLoan(uint256,uint256,bytes)":"0bb0cc0c","getETHAmountOut(uint256)":"cd192db5","getPoolStats()":"bbb85188","getPrice()":"98d5fdca","getTWAP(uint256)":"f30d3d1b","getTokenAmountOut(uint256)":"71073b38","getUserLiquidityInfo(address)":"03fa1860","lastUpdateTime()":"c8f33c91","maxSlippageRate()":"c2042202","multiSwap(address[],uint256[],uint256)":"6b8e0154","name()":"06fdde03","owner()":"8da5cb5b","pause()":"8456cb59","paused()":"5c975abb","platformToken()":"d1b812cd","protocolFeeRate()":"58f85880","removeLiquidity(uint256,uint256,uint256)":"857620e1","renounceOwnership()":"715018a6","reserveETH()":"100af203","reserveToken()":"f4325d67","setMaxSlippageRate(uint256)":"ee86cc77","setProtocolFeeRate(uint256)":"b13aa2d6","setSwapFeeRate(uint256)":"d1154ff0","swapETHForTokens(uint256)":"2eab2841","swapFeeRate()":"3a04801d","swapTokensForETH(uint256,uint256)":"a22280a6","symbol()":"95d89b41","tokenCumulativePrice()":"1993876f","totalLiquidity()":"15770f92","totalProtocolFeesETH()":"87e42a4d","totalProtocolFeesToken()":"f550a62b","totalSupply()":"18160ddd","transfer(address,uint256)":"a9059cbb","transferFrom(address,address,uint256)":"23b872dd","transferOwnership(address)":"f2fde38b","unpause()":"3f4ba83a","userLiquidity(address)":"ba4c28c3","withdrawProtocolFees(bool,uint256)":"03f4950d"},"id":62}